:020000040800F2
:10000000F84A0020810200088B29000821250008F9
:10001000892900088D06000849300008000000000A
:10002000000000000000000000000000C101000806
:100030006D070008000000001D020008D12900081B
:100040009B0200089B0200089B0200089B0200081C
:100050009B0200089B0200089B0200089B0200080C
:100060009B0200089B0200089B0200089B020008FC
:100070009B0200089B0200089B0200089B020008EC
:100080009B0200089B0200089B0200089D060008D6
:10009000910600089B0200089B0200089B020008D2
:1000A0009B020008A12A00089B0200089B0200088E
:1000B0009B0200089B0200089B0200089B020008AC
:1000C0009B0200089B0200089B0200089B0200089C
:1000D0009B020008313000089B0200089B020008C8
:1000E0009B0200089B0200089B0200089B0200087C
:1000F0009B0200089B0200089B0200089B0200086C
:100100009B0200089B0200089B0200089B0200085B
:100110009B0200089B0200089B0200089B0200084B
:100120009B020008C1060008CD0600089B020008DB
:100130009B0200089B0200089B020008B50600080D
:10014000A90600089B0200089B0200089B02000809
:100150009B020008D9060008E50600083D300008AB
:100160009B0200089B0200089B0200089B020008FB
:100170009B0200089B0200089B0200080000000090
:100180009B0200089B0200089B0200089B020008DB
:100190009B0200089B0200089B0200089B020008CB
:1001A00000000000000000009B020008DFF80CD0F7
:1001B00000F05AFA0048004749330008F84A002086
:1001C0002C4B19680868B0E8F04F80F30988BFF33A
:1001D0006F8F4FF0000080F311887047000000001F
:1001E00008480068006880F308884FF0000080F33A
:1001F000148862B661B6BFF34F8FBFF36F8F00DF15
:1002000000BF00BF08ED00E0DFF80C00016841F41A
:1002100070010160704700BF88ED00E0EFF30980D6
:10022000BFF36F8F134B1A681EF0100F08BF20ED3D
:10023000108A20E9F04F106009B44FF0500080F3AD
:100240001188BFF34F8FBFF36F8F04F029F94FF080
:10025000000080F3118809BC19680868B0E8F04F05
:100260001EF0100F08BFB0EC108A80F30988BFF3AE
:100270006F8F704728000020EFF305807047000063
:100280000648804706480047FEE7FEE7FEE7FEE730
:10029000FEE7FEE7FEE7FEE7FEE7FEE7852A000849
:1002A000AD0100082DE9F05F0546002092469B460F
:1002B00088460646814640241BE02846414647467C
:1002C000224600F064F953465A46C01A914110D3B1
:1002D00011461846224600F04BF92D1A67EB01082B
:1002E0004F4622460120002100F042F917EB000999
:1002F0004E41201EA4F10104DFDC484631462A4667
:100300004346BDE8F09F40EA01039B0703D009E0A4
:1003100008C9121F08C0042AFAD203E011F8013BF1
:1003200000F8013B521EF9D27047D2B201E000F84A
:10033000012B491EFBD270470022F6E710B5134689
:100340000A4604461946FFF7F0FF204610BD2DE986
:10035000FE4F81EA030404F0004421F000410094C0
:100360004FF0000B23F0004350EA01045ED052EA44
:1003700003045BD0C3F30A54C1F30A552C44A4F21E
:10038000F3340194A0FB0254C1F3130141F4801132
:10039000C3F3130343F4801301FB024400FB034E39
:1003A000840A970A44EA815447EA8357A4FB076802
:1003B00002958D0A05FB07854FEA932C04FB0C542C
:1003C0002705029D4FEA065847EA1637B5EB0805A0
:1003D0006EEB070C870E920E47EA811742EA8312F2
:1003E000A7FB0201B6EB0B0164EB00042B0D43EA03
:1003F0000C335E1844EB1C50DA465146E7FB020111
:10040000C5F313044FEA0B3343EA14534FEA0432A3
:10041000019C43EA0603A4F10C040294009CCDE97C
:1004200000B400F0D3F803B0BDE8F08F002001461F
:10043000F9E72DE9F04D81EA030404F0004B21F0C7
:10044000004514464FF0000A23F0004150EA05022F
:1004500020D054EA01021DD0C5F30A570246C5F365
:100460001303C1F31300C1F30A5640F4801543F49B
:100470008013A7EB0608101BD64608F2FD3873EB75
:10048000050002D308F1010801E092185B41B8F1C0
:10049000000F03DA00200146BDE8F08D00204FF484
:1004A0008011064684460EE0171B73EB050705D343
:1004B000121B63EB050306434CEA010C49084FEAA3
:1004C000300092185B4150EA0107EDD152EA030077
:1004D00012D082EA040083EA0501084305D0101B0C
:1004E000AB4106D20122002306E000224FF0004378
:1004F00002E06FF0010253101AEB06004CEB0851BA
:1005000010EB0A0041EB0B01BDE8F04D00F04FB8D5
:100510000EB5C10F80EAE0700844CA07002140F21E
:1005200033438DE80E000A460B4600F04FF803B047
:1005300000BD70B5C1F30A5201F000450024C1F3BB
:10054000130140F2FF3341F480119A4201DA002096
:1005500070BD40F233439A42A2F2334203DC52426E
:1005600000F015F800E090402C43F1D0404270BDFF
:10057000202A04DB203A00FA02F100207047914063
:10058000C2F1200320FA03F3194390407047202A58
:1005900004DB203A21FA02F00021704721FA02F32D
:1005A000D040C2F12002914008431946704710B56F
:1005B000141E73F1000408DA401C41F10001921886
:1005C0005B411A4301D120F0010010BD2DE9F04D2F
:1005D00092469B4611B1B1FA81F202E0B0FA80F284
:1005E00020329046FFF7C4FF04460F4640EA0A0057
:1005F00041EA0B0153465A46084313D0114653EAC9
:10060000010019D0C8F140025046FFF7C0FF05466F
:100610000E46504659464246FFF7AAFF084305D00A
:10062000012004E020463946BDE8F08D0020054356
:1006300046EAE0762C4337430A986305E40AA0EBC8
:1006400008000022FD0A44EA47540A3002D500207F
:100650000146E9E7010510196941DDE9084500197E
:100660006941BDE8F04DA2E7064C074D06E0E068A1
:1006700040F0010394E8070098471034AC42F6D3E9
:10068000FFF798FD1C4900083C490008FEE7000000
:10069000014800F0DEB90000A8000020014800F089
:1006A000D8B90000A8000020014800F0D2B900002D
:1006B000D0000020014800F0CCB90000D00000209C
:1006C000014800F055BC00004C050020014800F036
:1006D0004FBC00008C040020014800F049BC000021
:1006E000AC050020014800F043BC0000EC040020F1
:1006F00001681823CAB2103AB2FBF3F2054B6FF34C
:100700000901032A9B5CC36500D9091D8165084660
:1007100070470000B848000810B5014600208B69FA
:100720008A6A4FF0C07453B1B3F5005F15D072B14F
:10073000012A0CD0022A0AD0032A09D104E01AB1F6
:10074000012A06D0022A03D1C96AC90100D50120B5
:1007500010BDC96AA142FAD010BD002AF7D0012A03
:10076000F2D0022AF3D0032AF3D010BD70477047AD
:1007700090F82020012A07D0022A05D0416A41F4CE
:100780008021416201207047006842690A4342614A
:1007900000207047F0B590F820500468A468012D3F
:1007A00005D0022D03D0416A41F4802153E014F0BA
:1007B000406F01D1E5004BD5C4F30164022C03D98D
:1007C000416A41F4000146E00125A5401D608D68A5
:1007D0004FF4C0739DB1CE6835434E6845EAC605F7
:1007E000066803EB0417F5514FF4C275076805EB73
:1007F00004150E697E51097D012905D009E00E8896
:10080000CD6845EA4655EBE701684E5946F48076D7
:100810004E511179D2F805504FF4C67641EA0525BC
:10082000016806EB04168D511178D2F801204FF4BF
:10083000C47541EA0221026805EB041551510068B4
:1008400003EB0411425842F0010242500020F0BD77
:10085000416A41F4001141620120F0BD10B590F8E9
:100860002020012A07D0022A05D0416A41F48021C4
:100870004162012010BD3B48D0F8002242F0010245
:10088000C0F80022D0F8002222F47C52C0F80022E6
:10089000D0F800224B6A42EA0322C0F800220A7D07
:1008A00002F01F0301229A40D0F81C329343C0F893
:1008B0001C32CB69B3B9D0F80C329343C0F80C3278
:1008C0008C894B6864F31F434C6900EBC404C4F883
:1008D00040320C890B6864F31F434C6900EBC4047D
:1008E000C4F84432CB69012B16D1D0F80C32134333
:1008F000C0F80C320C884B6864F31F434C6900EB62
:10090000C404C4F840320C89CB6864F31F434C69BB
:1009100000EBC404C4F844328B69002BD0F80432D5
:100920000ED01343C0F804320B69002BD0F81432F8
:1009300008D01343C0F81432096A012904D008E032
:100940009343EFE79343F5E7D0F81C121143C0F847
:100950001C12D0F8001221F00101C0F80012002092
:1009600010BD000000640040704730B590F8204092
:10097000012C05D0022C03D0416A41F480215DE0B6
:100980000468002955D02469A40754D04FF4D874C2
:10099000056804EB01142D5915F0040595600568F0
:1009A0002D594ED0ED08556005682C5904F002040D
:1009B000D4604FF4DA74056804EB01142D5905F086
:1009C0000F05156105682D59C5F307259561056863
:1009D0002C59240C54614FF4DC72046802EB0112B0
:1009E000A4581C700468A458240A5C700468A458B5
:1009F000240C9C700468A258120EDA704FF4DE7258
:100A0000046802EB0112A4581C710468A458240A5B
:100A10005C710468A458240C9C710468A258120EDE
:100A2000DA71006881B1016941F0200101610020A3
:100A300030BDE468A8E7416A41F400114162012039
:100A400030BD6D0D1560AFE7C16841F02001C16098
:100A5000EDE72DE9F05F0546006800244669D0F80F
:100A600004908768D0F80CB0D0F810A0D0F81880A7
:100A7000F10748D0F90714D001218160B80703D5E8
:100A8000284600F05CFA0CE0780702D54FF40064C9
:100A900007E0380702D54FF4805402E0284600F002
:100AA0004DFAF80516D529684FF480708860B805AE
:100AB00003D5284600F045FA0CE0780502D544F449
:100AC000005407E0380502D544F4804402E028468B
:100AD00000F036FAF80316D529684FF480308860A4
:100AE000B80303D5284600F02EFA0CE0780302D5AF
:100AF00044F4004407E0380302D544F4803402E0B3
:100B0000284600F01FFA300707D55FEACB6004D50E
:100B10002968102044F40074C86070074FF008077B
:100B200007D55FEA0B7004D52868C760284600F037
:100B3000A9F9B00706D52868C068800702D0284602
:100B400000F0A2F9700607D55FEACA6004D52968EB
:100B5000102044F480640861B00607D55FEA0A708B
:100B600004D528680761284600F0B8F9F00606D5D4
:100B700028680069800702D0284600F0B0F9B00369
:100B800008D55FEAC96005D5296810204860284665
:100B900000F0A6F9F00307D55FEA097004D52868CC
:100BA0004760284600F0D0F9300446D55FEA497026
:100BB00040D5F00504D55FEAC87001D044F00104C7
:100BC000B00504D55FEA887001D544F002047005D1
:100BD00004D55FEA487001D544F00404300529D5F6
:100BE00018F0700F26D008F07000402815D006DCF1
:100BF000102809D020280AD0302816D10AE0502821
:100C00000ED0602811D10EE044F008040DE044F04D
:100C100010040AE044F0200407E044F0400404E03B
:100C200044F0800401E044F480742868816921F074
:100C300070018161296804204860002C05D0686A31
:100C4000204368622846FFF78FFEBDE8F09F70B52D
:100C5000040003D094F8200010B104E0012070BD1E
:100C6000204600F081F82068016821F0020101604F
:100C700000F0ACFB0546052604E000F0A7FB401B96
:100C80000A2811D8206840688007F6D420680168D7
:100C900041F00101016000F099FB05460BE000F016
:100CA00095FB401B0A2806D9606A40F40030606258
:100CB00084F82060D2E720684068C007EFD0207E2B
:100CC0000128206801683DD021F080010160607E2C
:100CD00001282068016838D021F040010160A07E21
:100CE00001282068016833D021F020010160E07EF6
:100CF0000128206801682ED041F010010160207F9A
:100D000001282068016829D021F008010160607F76
:100D100001282068016824D021F004010160D4E991
:100D200002010843D4E90412114308436168491ED3
:100D300008432168C86100206062012084F8200017
:100D4000002070BD41F08001C0E741F04001C5E7DF
:100D500041F02001CAE721F01001CFE741F008017E
:100D6000D4E741F00401D9E7F0B587B00446142177
:100D70006846FFF7E1FA3E4B3E48DFF8F0E01968BD
:100D8000D4F800C03B4A032502260927103000246E
:100D9000491CF4452AD11960012907D1016841F0A5
:100DA00000710160006800F000700590106840F06C
:100DB000080010601068CDE9005600F00800CDE989
:100DC000047069462C48CDE9024500F00BFA002278
:100DD0000521132000F086FB132000F075FB002294
:100DE0000521142000F07EFB14203AE0DFF88CE0AF
:100DF000F44538D1D0F800C04CF0806CC0F800C089
:100E0000D0F800C001290CF0806CCDF814C0196036
:100E100007D1016841F000710160006800F00070C6
:100E20000590106840F002001060106802AB00F0FE
:100E3000020005906020CDE9000683E8B000694615
:100E40000F4800F0CFF9002205213F2000F04AFBB7
:100E50003F2000F039FB00220521402000F042FB3A
:100E6000402000F031FB07B0F0BD000000640040FE
:100E70000000002030380240000C024000680040B2
:100E8000000402407047000030B589B0054607AB4A
:100E90006A460021FFF769FD0E4CA54212D1009869
:100EA000A0F2012004280DD8009800EB400101EBCE
:100EB000C000094901EB8000A0F5B04007A92C381B
:100EC00002F04CF92068416941F00201416109B02A
:100ED00030BD0000A8000020244300207047704768
:100EE0007047000070B5044690F82000012804D037
:100EF000606A40F40020606218E0022084F820005C
:100F00002068016821F00101016000F05FFA0546E8
:100F10000EE000BF00F05AFA401B0A2808D9606AA8
:100F200040F400306062052084F82000012070BD8C
:100F300020684068C007EDD1606270BD704770479F
:100F40007047704770477047704790F83510022916
:100F500003D08021416501207047052180F83510BC
:100F60000068016821F00101016000207047000065
:100F70002DE9F84304464FF00009CDF8009063488E
:100F80004FF41651A56D0068B0FBF1F72E6894F888
:100F90005C10082000FA01F131420FD021680A6884
:100FA00052070BD50A6822F004020A6094F85C101C
:100FB0008840A860606D40F00100606594F85C10A6
:100FC0004FF0010808FA01F0304208D02168496961
:100FD000090604D5A860606D40F00200606594F8D1
:100FE0005C1004208840304208D0216809688907D5
:100FF00004D5A860606D40F00400606594F85C1052
:1010000010208840304218D021680968090714D59B
:10101000A86020680168490304D50068000308D56A
:10102000A16C07E00168C90503D4016821F008013B
:101030000160216C09B12046884794F85C1020209B
:101040008840304231D021680968C9062DD5A86092
:1010500094F8350005282068016806D0490347D573
:10106000006800031DD4616C1CE021F016010160D2
:101070002068416921F080014161206C08B9A06CB1
:1010800020B12068016821F00801016094F85C102B
:101090003F208840A86084F8349084F83580216D22
:1010A0001FE0E16B09B120468847606D00282BD016
:1010B000606DC00714D0052084F8350020680168F1
:1010C00021F0010101600098401C0090B84203D853
:1010D00020680068C007F6D184F8349084F8358021
:1010E000E16C002910D001B02046BDE8F04308476C
:1010F0000168C905D5D4016821F01001016084F8A8
:10110000349084F83580CCE7BDE8F88324000020D3
:101110002DE9F041044600F059F906465CB100257E
:1011200084F83450022084F835002068016821F0EA
:10113000010101600DE00120BDE8F08100F046F9F9
:10114000801B052805D920206065032084F8350020
:10115000F2E720680068C007F0D1226811682048D3
:101160000140D4E901031843D4E90336334318435B
:1011700063691843A3691843E3691843236A184352
:101180000843616A042903D1D4E90B1319430843C6
:10119000106020684069666A20F0070130460E43FF
:1011A000012704280CD1A06A0643E06A40B120461A
:1011B000FFF7B2FA20B14020606584F83570BAE7D5
:1011C000206846612046FFF793FA94F85C203F219F
:1011D00091408160656584F835700020ACE70000BF
:1011E0003F8010F02DE9F84F00224FF00108032551
:1011F0004FF00F0E0B6808FA02F42340A3426ED1A1
:101200004E68012E05D0022E03D0112E01D0122ED1
:1012100012D186684FEA420C05FA0CF7BE43CF683C
:1012200007FA0CF7374387604668A6430C79C4F386
:101230000014944034434460C668570005FA07FC24
:101240008C6826EA0C06BC403443C4604C68022C0F
:1012500001D0122C13D1D40800EB8404A346D4F897
:10126000209054074FEAD46A0EFA0AF629EA0609D2
:101270000E6906FA0AF646EA0906CBF82060046809
:101280000E7924EA0C0406F00306BE4026430660ED
:101290004C68E4006FD53B4C266846F480462660D7
:1012A000246822F0030604F480440094364C34444D
:1012B000A446D4F808489607360F0EFA06F7BC4342
:1012C000324FB84201D100272EE0314FB84201D150
:1012D000012729E02F4FB84202D1022724E04AE03B
:1012E0002D4FB84201D103271EE02C4FB84201D147
:1012F000042719E02A4FB84201D1052714E0294FED
:10130000B84201D106270FE0274FB84201D1072785
:101310000AE0264FB84201D1082705E0244FB84221
:1013200001D1092700E00A27B7402743CCF8087805
:10133000204E34684F689C43FF0300D51C43346043
:101340001C4E361D34684F689C43BF0300D51C43B8
:101350003460184E083634684F689C43FF0200D54D
:101360001C433460134E0C3634684F689C43BF02F4
:1013700000D51C433460521C102AFFF43BAFBDE87B
:10138000F88F000044380240003001400000024065
:101390000004024000080240000C0240001002401D
:1013A0000014024000180240001C024000200240CD
:1013B00000240240003C01400069084000D00120A8
:1013C00070470AB1816170470904FBE701488068F2
:1013D000704700001800002002488168027811441C
:1013E00081607047180000200B4810B5016841F477
:1013F00000710160016841F480610160016841F49D
:1014000080710160032000F08DF8002000F006F8E4
:1014100000F03EF8002010BD003C024010B501462F
:1014200088B00022192000F05DF8192000F04CF877
:1014300013480024016841F001010160006805A91A
:1014400000F001000690684600F050F900F07EF9C7
:101450000C494000B0FBF1F10C480B4A491E0260F8
:1014600040F2E732C0E90324C0E9011400F0D2FBE6
:1014700010B1012008B010BD044800F007FCF9E7E6
:101480004438024040420F00000001404C0300205D
:101490000C4882B0016841F480410160006800F4AA
:1014A000804000900748001F016841F080510160B2
:1014B0000068002200F0805000900F21901E02B0C2
:1014C00000F010B844380240002809DB00F01F0289
:1014D000012191404009800000F1E020C0F8001196
:1014E00070470000F0B40E4B1B680C46C3F3022398
:1014F000C3F10705042D00D90425191D072901D2C0
:10150000002300E0DB1E012606FA05F1491E2140FA
:1015100099409E40761E16403143F0BC01F095BDC7
:101520000CED00E0064900F0070208684FF6FF03E3
:10153000184040EA0220034A104308607047000048
:101540000CED00E00000FA052DE9F84317480168AA
:1015500041F0805101600068154F00F08050012675
:1015600000903E64FFF732FF05464FF47A78114C45
:1015700005E000BFFFF72AFF401B40450DD860681B
:10158000C003F7D57E64FFF721FF0546464607E016
:10159000FFF71CFF401BB04202D90320BDE8F883CF
:1015A00060688003F4D50020F8E70000403802406E
:1015B00000000E42007000402DE9F0470E46050085
:1015C00065D0DFF81481D8F80000F7B200F00F0002
:1015D000B04207D288F80070D8F8000000F00F0081
:1015E000B04254D128683D4C810712D5400703D53D
:1015F000206840F4E05020602878000703D5206878
:1016000040F4604020602068A96820F0F0000843A2
:1016100020602878C0072DD0304968680839012833
:1016200012D0022813D0032811D009688907002995
:101630002DDA216821F0030101432160FFF7C6FE86
:10164000814641F2883A0EE009688903EFE70968AC
:101650008901ECE7FFF7BAFEA0EB0901514502D979
:101660000320BDE8F0872068696800F00C00B0EB4B
:10167000810FEFD1D8F80010404601F00F01B142C0
:1016800007D90770006800F00F00B04201D00120B8
:10169000E7E72878400705D52068E96820F4E0509E
:1016A000084320602878000706D52068296920F4BF
:1016B000604040EAC100206000F058F82168084A04
:1016C000C1F30311515CC840064908600648006830
:1016D000FFF7A4FE0020C4E7003C024008380240A7
:1016E000C0480008240000201C0000200F220260D7
:1016F0000C4A136803F003034360136803F0F0031C
:101700008360136803F4E053C36012684FF4E0533E
:1017100003EAD20202610448006800F00F0008608A
:101720007047000008380240003C02400448054968
:1017300000680968044AC1F38221515CC8407047BF
:101740002400002008380240D04800080448054919
:1017500000680968044AC1F34231515CC8407047CF
:101760002400002008380240D0480008154810B571
:10177000006810F00C02144813D01449042A0FD04A
:10178000082A0ED10F4C241F2268236802F03F0262
:101790005B0207D52068C0F38810A0FB010106E0BA
:1017A000084610BD2168C1F38811A1FB0001002388
:1017B000FEF778FD2168C1F30141491C4900B0FBE7
:1017C000F1F010BD083802400024F400001BB700FF
:1017D0002DE9F84F040076D02078DFF838A3CE4DFD
:1017E000C00749D0DAF800105046C1F38101012941
:1017F00008D00068C0F3810002280AD1281D0068C3
:10180000400206D52868800336D560680028E2D0FB
:1018100032E06068B0F5803F10D0B0F5A02F2868A6
:1018200010D020F480302860286820F480202860C0
:101830006068A0B1FFF7CAFD06460CE0286840F4D6
:101840008030F4E740F480202860F7E7FFF7BEFD22
:10185000801B642873D828688003F7D50CE0FFF755
:10186000B5FD064605E000BFFFF7B0FD801B64280C
:10187000F0D828688003F7D42078DFF8A0828007AA
:101880004FF000093ED5DAF80010504611F00C0F69
:1018900009D00068C0F3810002280BD19D48001FC9
:1018A0000068400206D42868800715D5E068012842
:1018B00009D111E0E068B8B10120C8F80000FFF7D5
:1018C00085FD064605E020E1FFF780FD801B02282C
:1018D000C0D828688007F7D52868216920F0F8006B
:1018E00040EAC10028600DE0C8F80090FFF76EFDE7
:1018F000064604E0FFF76AFD801B02281FD828680F
:101900008007F7D42078000722D5824E8448616989
:101910006C3671B101210160FFF758FD074604E004
:10192000FFF754FDC01B022809D830688007F7D59F
:101930000EE0C0F80090FFF749FD074605E082E0A1
:10194000FFF744FDC01B02287DD830688007F7D41C
:101950002078400768D5DFF8BCB100270BF1380BC1
:10196000DBF80000C0000BD4DBF8001041F0805120
:10197000CBF80010DBF80000012700F08050009049
:10198000684E3068C00510D4306840F48070306014
:10199000FFF71CFD009005E0FFF718FD0099401AC5
:1019A000022850D83068C005F6D55A4EA06868366F
:1019B00001280FD00528306810D020F001003060D9
:1019C000306820F004003060A068B8B1FFF7FEFC7A
:1019D00000900FE0306840F00100F4E740F00400B0
:1019E0003060F7E7FFF7F2FC0099411A41F28830C6
:1019F000814266D830688007F4D50EE0FFF7E6FC38
:101A0000009007E0FFF7E2FC0099411A41F28830AC
:101A1000814256D830688007F4D42FB1DBF800102B
:101A200021F08051CBF80010A069D0B3DAF8002083
:101A30005146C2F38102022A4AD00228484607D002
:101A4000C8F8600000E03CE0FFF7C0FC04463BE063
:101A50004746C8F86000FFF7B9FC064605E000BF3E
:101A6000FFF7B4FC801B02282BD828688001F7D42C
:101A7000D4E907010843A16A2B4A490802EB014156
:101A8000626A41EA8211084394F82C1040EA01612D
:101A90002048001F016001203866FFF797FC0446CC
:101AA00005E034E0FFF792FC001B022809D8286803
:101AB0008001F7D52BE000BFFFF788FC001B022850
:101AC00002D90320BDE8F88F28688001F4D41EE015
:101AD0000128F7D00868E26900F48001914214D12E
:101AE000226A00F03F0191420FD147F6C071626A4D
:101AF0000140914209D1A26A00F44031914204D1DF
:101B0000E16A00F07060884201D00120DAE700202D
:101B1000D8E7000008380240003802400000474281
:101B2000800E4742007000400000FFFF7047704782
:101B300010B590F83C20012A22D0012280F83C20E8
:101B4000CA688C6822F4407222434C6822F4806296
:101B500022430C6822F4006222430C6922F4805272
:101B600022434C6922F400522243C969002322F423
:101B700080420A4301684A6480F83C30002010BD6E
:101B8000022010BD70B590F83C20012A32D001240B
:101B900080F83C40022280F83D2003685A689D6826
:101BA00022F070060A6832435A60134B02689A4268
:101BB00014D0B2F1804F11D0104B9A420ED0104B7E
:101BC0009A420BD00F4B9A4208D00F4B9A4205D045
:101BD0000E4B9A4202D00E4B9A4204D1496825F02E
:101BE00080031943916080F83D40002180F83C104B
:101BF000084670BD022070BD000001400004004096
:101C000000080040000C004000040140004001407A
:101C10000018004010B5040003D094F83D0010B146
:101C200007E0012010BD002084F83C00204600F0B1
:101C30000DF8022084F83D00211D206800F036FFD9
:101C4000012084F83D00002010BD000008B50068A8
:101C5000B0F1804F0CD00B49884208D10A48016886
:101C600041F002010160006800F00200009008BD30
:101C70000548001F016841F001010160006800F0A3
:101C80000100F3E700040140443802400168CA68DB
:101C900042F00102CA600068816801F0070106296C
:101CA00003D0016841F0010101600020704770B568
:101CB000044690F83C00012817D0012584F83C50D8
:101CC000022084F83D002068826822F0770222F426
:101CD0007F4282600868502830D00DDC20284DD02B
:101CE00005DC98B310283BD148E0022070BD3028B5
:101CF00044D0402834D139E0602828D0702806D05C
:101D0000B0F5805F2CD0B0F5005F29D10AE0CB6838
:101D1000D1E90121206800F03AFF2068816841F094
:101D2000770109E0CB68D1E90121206800F02FFF9D
:101D30002068816841F48041816011E0CA68496887
:101D4000206800F0F9FF5021206807E016E0CA681B
:101D50004968206801F001F86021206800F021FF47
:101D600084F83D50002084F83C0070BDCA68496882
:101D7000206800F0E1FF40212068EFE7226801467B
:101D80001046EBE7704770B50446006801694FF0F4
:101D90000005C943890715D4C168C943890711D40F
:101DA000E91E0161012020772068806980072046B4
:101DB00002D0FFF7E7FF04E000F0D8F8204600F07B
:101DC0005AF9257720680169C943490717D4C168C2
:101DD000C943490713D46FF0040101610220207741
:101DE0002068806910F4407F204602D0FFF7CAFFC8
:101DF00004E000F0BBF8204600F03DF925772068AC
:101E00000169C943090716D4C168C943090712D437
:101E10006FF008010161042020772068C069800705
:101E2000204602D0FFF7AEFF04E000F09FF8204606
:101E300000F021F9257720680169C943C90617D444
:101E4000C168C943C90613D46FF0100101610820AD
:101E500020772068C06910F4407F204602D0FFF749
:101E600091FF04E000F082F8204600F004F92577A5
:101E700020680169C943C90708D1C168C943C907B6
:101E800004D1891E0161204600F018F9206801691B
:101E9000C943090609D4C168C943090605D46FF0CE
:101EA000800101612046FFF741FE20680169C943B6
:101EB000490609D4C168C943490605D46FF04001F9
:101EC0000161204600F004F920680169C9438906D0
:101ED0000BD4C168C943890607D46FF020010161A2
:101EE0002046BDE87040FFF722BE70BD10B586B039
:101EF000044614216846FEF71FFA2368002117489C
:101F00000222B3F1804F17D0154CA34212D10368BF
:101F100043F480730360006800F4807005906020D3
:101F20000090CDE901210320CDE9031069460D4859
:101F3000FFF758F906B010BD036843F001030360D2
:101F4000006800F00100059022200090CDE90121F9
:101F50000120CDE9031069460348E9E73038024023
:101F6000000401400020024000000240704770B5AC
:101F7000044690F83C000D4601280DD0012684F857
:101F80003C60022084F83D0042B1042A18D0082A9F
:101F90002AD00C2A4DD139E0022070BD206800F013
:101FA00009FE2068816941F008018161206881692A
:101FB00021F004018161206881692A69114311E0DF
:101FC000206800F027FE2068816941F4006181618A
:101FD0002068816921F480618161206881692A69B2
:101FE00041EA0221816124E0206800F049FE206876
:101FF000C16941F00801C1612068C16921F0040193
:10200000C1612068C1692A69114311E0206800F0AC
:102010006BFE2068C16941F40061C1612068C1693B
:1020200021F48061C1612068C1692A6941EA022105
:10203000C16184F83D60002084F83C0070BD10B59B
:10204000040003D094F83D0010B107E0012010BD5A
:10205000002084F83C00204600F00CF8022084F8B0
:102060003D00211D206800F021FD012084F83D0085
:10207000002010BD7047704710B50446006801226B
:1020800000F078FD0B492068884202D00A49884256
:1020900003D1416C41F4004141642068816801F042
:1020A0000701062903D0016841F001010160002009
:1020B00010BD000000000140000401400068034919
:1020C000884201D1FFF788B9704700000000014045
:1020D0007047704770B5026804461068D16853694C
:1020E00010F00F0F52D003F0010501F490762E434B
:1020F0005FD0C20705D0CA0503D5E26B42F00102EA
:10210000E263420705D5DA0703D0E26B42F0020230
:10211000E263820705D5DA0703D0E26B42F00402DE
:10212000E263020707D501F020022A4303D0E26BE5
:1021300042F00802E263E26B002A33D0800604D545
:10214000880602D5204600F030FE20684069E16B29
:10215000C0F38010090700D428B3204600F017FE12
:102160002068416949061AD5416921F04001416161
:10217000606BA0B11B490165606BFEF7E6FE0028AD
:1021800010D0606B016DBDE870400847830610D524
:102190008B060ED52046BDE8704000F006BE2046F6
:1021A000FFF797FF70BD2046FFF793FF0020E06325
:1021B00070BD030606D50B0604D52046BDE8704069
:1021C00000F0D2BE4006F3D54806F1D5D1682046CE
:1021D00021F04001D160202184F8391000F09FF9EE
:1021E00070BD00007F2D000870B5040004D094F885
:1021F0003900002510B106E0012070BD84F8385088
:10220000204600F023F8242084F839002068C168B3
:1022100021F40051C160204600F012FE20680169DF
:1022200021F4904101612068416921F02A01416156
:102230002068C16841F40051C160E563202084F842
:10224000390084F83A00002070BD00002DE9F04FFD
:1022500087B0044614216846FEF76EF86448DFF83C
:102260008CC1236862491438022601270322002505
:102270004FF4806A4FF4807B63455ED10B6843F076
:1022800010030B60096801F010010591016841F02D
:1022900002010160016801F002010591016841F04D
:1022A000010101600068904600F001000590802067
:1022B0004FF007098DE8C10369464E48FEF792FFCB
:1022C00030028DE8C10369464B48FEF78BFF4C4E48
:1022D0004A484FF000693060C6E90195C6E9035AE3
:1022E0007561C6E9065B35625746D8463046756269
:1022F000FEF70EFF08B1FEF73AFA6663B463404E8C
:102300003E4860367830E6E802094020A1C63C48E5
:1023100046F814596030C6E9065835627562FEF712
:10232000F7FE08B1FEF723FA2663002205212520D7
:10233000B463FFF7D7F8252053E0DFF8C8C0634542
:1023400051D10B6843F020030B60096801F02001B4
:102350000591016841F0400101600068694600F0A4
:10236000400005904FF484408DE8C1000820CDE97D
:1023700003202548FEF736FF214E2048C036183886
:1023800030604FF02069C6E90195C6E9035A7561CE
:10239000C6E9065B35625746D84630467562FEF799
:1023A000B7FE08B1FEF7E3F96663B4631348174E4E
:1023B0006030E6E802094020A1C6144846F81459E6
:1023C000C6E9065835627562FEF7A2FE08B1FEF74F
:1023D000CEF92663002205214720B463FFF782F877
:1023E0004720FFF771F807B0BDE8F08F00100140FB
:1023F00044380240000402400000024040640240B1
:102400008C0400200014014000180240AC0500209C
:1024100090F83A30202B22D1F9B1F2B190F838304F
:10242000012B1CD081628285C2850021C1632222DA
:1024300080F83A2080F838100168CA6842F4807247
:10244000CA6001684A6942F001024A610068C168D5
:1024500041F02001C1600020704701207047022038
:10246000704770472DE9F843044690F839001F463D
:1024700016460D46202850D1B5B1AEB194F83800BB
:1024800001284AD0012084F838004FF00008C4F831
:102490003C80212084F83900FEF798FFA68481460D
:1024A000E68484F8388026E00120BDE8F883E08CDB
:1024B000401EE084A0684B46B0F5805F4FF00002FC
:1024C0004FF080012046009703D000F07EFDE8B970
:1024D0000DE000F07AFDC8B928882168C0F3080033
:1024E0004860206908B16D1C05E0AD1C03E021685F
:1024F00015F8010B4860E08C0028D8D14B4600222B
:1025000040212046009700F060FD08B10320CCE791
:10251000202084F839000020C7E70220C5E7704773
:10252000FEE700000F4810B50D490160052141602C
:1025300000214FF400328160C0E903125201426170
:102540000176012242768176C17601774177FEF7E6
:102550007EFB002803D0BDE81040FEF708B910BD8F
:1025600000640040A80000200F4810B50D4901602C
:102570000521416000214FF400328160C0E903125F
:10258000520142610176012242768176C17601775D
:102590004177FEF75CFB002803D0BDE81040FEF752
:1025A000E6B810BD00680040D0000020154808B50E
:1025B000016841F4800101600068002200F480009D
:1025C000009005213920FEF78DFF3920FEF77CFFB2
:1025D000002205213A20FEF785FF3A20FEF774FF1E
:1025E000002205214520FEF77DFF4520FEF76CFF08
:1025F000002205214620FEF775FFBDE80840462071
:10260000FEF762BF3038024010B5A4B01C221C494E
:102610006846FDF778FE0021684600F0C2FE194CBE
:1026200017491C2220611C3107A8FDF76CFE002110
:1026300007A800F0B6FE124920601C2238310EA80F
:10264000FDF761FE00210EA800F0ABFE0C496060B2
:102650001C22543115A8FDF756FE002115A800F0E4
:10266000A0FE0749A0601C2270311CA8FDF74BFE9C
:1026700000211CA800F095FEE06024B010BD000011
:102680002C48000804000020F0B587B014216846EB
:10269000FDF752FE39480024016841F00201016053
:1026A000016801F002010591016841F040010160FB
:1026B000016801F040010591016841F001010160EC
:1026C000016801F001010591016841F0100101600C
:1026D000016801F010010591016841F008010160F5
:1026E000016801F008010591016841F48071016001
:1026F000016801F480710591016841F08001016079
:10270000016801F080010591016841F00401016058
:1027100000681B4E00F0040041F63C450590012284
:1027200029463046FEF74DFE164F01221F2138463E
:10273000FEF747FE7020CDE9000469461248029476
:10274000FEF750FD8420CDE9000469460F4802944D
:10275000FEF748FD00950125CDE901546946304654
:102760000394FEF73FFD1F200090CDE90154694618
:1027700038460394FEF736FD07B0F0BD303802400E
:10278000001C0240000802400010024000200240ED
:1027900010B58EB000240794089409940A940B9401
:1027A0001C2168460C94FDF7C7FD24484FF080417A
:1027B000016040F22B11C0E9011440F2E731C0E999
:1027C00003148461FFF726FA08B1FDF7D0FF4FF438
:1027D0008050079007A91948FFF769FA08B1FDF77B
:1027E000C6FF1648FFF72BFC08B1FDF7C0FF0B949E
:1027F0000BA912480C94FFF7C5F908B1FDF7B7FF14
:10280000602000904FF4C870CDE9010400226946B1
:102810000A480494FFF7ABFB08B1FDF7A8FF0422B8
:10282000694606480194FFF7A2FB08B1FDF79FFF38
:102830000248FFF75BFB0EB010BD00008C030020C8
:1028400010B596B000240F94109411941294139420
:102850001C2168461494FDF76FFD202107A8FDF7A1
:102860006BFD2C482A490160B321C0E9011444F6EC
:102870001F61C0E9031444618461FFF7CBF908B11B
:10288000FDF775FF4FF480500F900FA92148FFF717
:102890000EFA08B1FDF76BFF1E48FFF7D0FB08B139
:1028A000FDF765FF139413A91A481494FFF76AF90A
:1028B00008B1FDF75CFF6020CDE9000402940394A9
:1028C000049405940022694612480694FFF74FFBD2
:1028D00008B1FDF74CFF042269460E48FFF747FB9D
:1028E00008B1FDF744FF0794089409944FF4005091
:1028F0000A94CDE90B4007A906480E94FFF718F992
:1029000008B1FDF734FF0348FFF7F0FA16B010BD29
:1029100000040140CC0300200C4810B50A490160B6
:102920004FF4E1314160002181600C22C160C0E9B7
:1029300004128161C161FFF757FC002803D0BDE894
:102940001040FDF714BF10BD001001400C04002022
:102950000C4810B50A4901604FF4E1314160002193
:1029600081600C22C160C0E904128161C161FFF77E
:102970003BFC002803D0BDE81040FDF7F8BE10BDB9
:10298000001401404C040020FEE7704730B4024CB4
:10299000446630BC00F012BEBD350008094C01226F
:1029A00008490948FFF734FD207800F083FB0A232B
:1029B000012206490448FFF755FD012000F0E5FC1F
:1029C000EDE70000880000204C0400208900002072
:1029D00010B5502080F31188BFF34F8FBFF36F8F76
:1029E00001F05EFE18B104494FF0805008600020ED
:1029F00080F3118810BD000004ED00E030B593B005
:102A000030216846FDF798FC14210CA8FDF794FCD2
:102A10001A480025016841F080510160006800F00B
:102A2000805011901648016841F4404101600068EF
:102A3000022400F440401190012000900004019015
:102A40008001CDE9064006200890B420CDE90904B4
:102A500004200B906846FEF7BBFEFEF775FD0CA93F
:102A60000F2081E831004FF4A0500F90E002109049
:102A700005210CA8FEF7A0FD13B030BD4038024080
:102A8000007000400548016841F47001016003498D
:102A90004FF00060803908607047000088ED00E06A
:102AA0000148FFF770B900004C030020F0B5026840
:102AB000254C264D264E274F274B4FF0804CA042E9
:102AC00009D0604507D0A84205D0B04203D0B84233
:102AD00001D0984204D122F0700E4A6842EA0E02F8
:102AE000A0421BD0604519D0A84217D0B04215D0E3
:102AF000B84213D0984211D0184DA8420ED0184DAC
:102B0000A8420BD0174DA84208D0174DA84205D0B7
:102B1000164DA84202D0164DA84203D122F44075AA
:102B2000CA682A434D6922F080022A4302608A68FB
:102B3000C2620A688262A04201D0984201D109694A
:102B4000016301214161F0BD00000140000400402B
:102B500000080040000C004000040140004001401B
:102B6000004401400048014000180040001C0040A3
:102B70000020004010B501F01F030121046A9940B4
:102B80008C430462016A9A401143016210BD10B582
:102B9000846842EA032224F47F440A432243826089
:102BA00010BD826822F070020A4342F00701816082
:102BB00070470000F0B5026A22F001020262036A67
:102BC00042688469124E24F073050C682C4323F08C
:102BD00002058B682B430D4DA84201D0B04205D1B0
:102BE00023F00807CB683B4323F00403A84201D03D
:102BF000B04205D14D6922F4407215438A692A43D7
:102C000042608461496841630362F0BD0000014095
:102C100000040140F0B5026A22F010020262026A6A
:102C2000436884690D6824F4E64444EA05248D6809
:102C300022F0200242EA05120F4D104EA84201D0A8
:102C4000B04206D1CF6822F0800242EA071222F099
:102C50004002A84201D0B04207D14D6923F440633D
:102C600043EA85038D6943EA8503436084614968CB
:102C700081630262F0BD00000000014000040140D9
:102C8000F0B5026A22F480720262026A4368C46983
:102C900022F4007224F073050C68124E2C438D68E8
:102CA00042EA05220E4DA84201D0B04206D1CF68BB
:102CB00022F4006242EA072222F48062A84201D094
:102CC000B04207D14D6923F4405343EA05138D699F
:102CD00043EA05134360C4614968C1630262F0BD01
:102CE000000001400004014030B5026A22F4805225
:102CF0000262046A4268C3690D6823F4E64343EA4A
:102D000005238D6824F4005444EA0534084DA84294
:102D100002D0084DA84204D14D6922F4804242EA13
:102D200085124260C36149680164046230BD0000DD
:102D3000000001400004014010B5036A046A24F059
:102D400001040462846924F0F00444EA021423F0CC
:102D50000A020A438461026210BD10B5036A23F0BF
:102D6000100303628369046A23F4704343EA023266
:102D700024F0A00343EA01118261016210BD10B585
:102D8000806B0021C185C184FFF7A3F910BD0168E4
:102D9000CA6822F49072CA6001684A6922F001028E
:102DA0004A61202180F83A10704710B590F83A1027
:102DB000222901D0022010BD8168B1F5805F11D0B9
:102DC0000169002901681FD0496801F07F03816A09
:102DD0004A1C82620B70C18D491E0904090CC18511
:102DE00018D02BE00269816A002A0268526805D077
:102DF000D2B20A80816A491C8162ECE7C2F3080200
:102E00000A80816A891CF7E74A68816A4B1C8362E1
:102E10000A70E0E70168CA6822F02002CA6001680F
:102E2000CA6822F48072CA6001684A6922F001020D
:102E30004A61202180F83A10FFF713FB002010BDF3
:102E40002DE9F041044600680169E26821F440512F
:102E5000114301612169A068E26908436169114376
:102E600008432168CA6849F20C639A430243CA6066
:102E700020684169A26921F4407111434161E06910
:102E8000192764253226B0F5004F354A35492068A8
:102E90004FF0000806D0884201D0904236D1FEF7AC
:102EA00055FC35E0884201D0904202D1FEF74EFC3D
:102EB00001E0FEF73BFC61684A18A0FB070148EB04
:102EC0000803FDF7EFF90146B0FBF5F00201B1FB95
:102ED000F5F06FF01803584301EB800006EBC000DB
:102EE000B0FBF5F000F0F80002EB4002B1FBF5F0AA
:102EF000584301EB800006EBC000B0FBF5F000F09A
:102F00000700216810448860BDE8F081FEF70EFCE0
:102F100061688B0F8A00A0FB0701FDF7C3F901462A
:102F2000B0FBF5F06FF01802504301EB800006EBA8
:102F30000010B0FBF5F000F0F002B1FBF5F002EB91
:102F40000012B1FBF5F06FF01803584301EB80005D
:102F500006EB0010B0FBF5F000F00F00D1E7000029
:102F6000001401400010014090F83910212901D0CF
:102F7000022070478168B1F5805F016A0BD04A1C5E
:102F80000262026809785160C18C491E0904090C6B
:102F9000C1840ED017E009880268C1F308015160AE
:102FA00001690029016A02D0491C0162ECE7891C11
:102FB000FBE70168CA6822F08002CA600068C16845
:102FC00041F04001C160002070472DE9F041984672
:102FD00017460E460446069D1DE0681C1BD02DB109
:102FE000FEF7F4F9A0EB0800A84214D92068C168E4
:102FF00021F4D071C1602068416921F00101416173
:10300000202084F8390084F83A00002084F8380041
:103010000320BDE8F0812068006836EA000004D093
:103020000020B842D9D00020F3E70120F9E70000E2
:103030000148FFF74FB800000C0400200148FFF7DB
:1030400049B800004C040020FEE70907090E0028DB
:1030500004DB00F1E02080F80014704700F00F005E
:1030600000F1E02080F8141D704702E008C8121F2C
:1030700008C1002AFAD170477047002001E001C161
:10308000121F002AFBD17047D0ED000AF4EEC00AEF
:10309000F1EE10FA01DD80ED000AD0ED000AB1EE8C
:1030A000400AF4EEC00AF1EE10FA01D280ED000AF7
:1030B0007047000070B50D4A00F001010023116057
:1030C00000F002014908516000F004018908916094
:1030D00019460126CC1C06FA04F50540491C03EBF1
:1030E000D5030429F6DBD36070BD0000E84600205C
:1030F000F0B50025DFF860C02C460127E61C00EA89
:103100000C0EBEF1010F16D007FA06F635EA0605D9
:1031100000EBD0704010641C042CEFDB012911D0AF
:1031200025F00400012A10D020F00200012B0FD05E
:1031300020F00100F0BD07FA06FE4EEA050E0EF083
:10314000FF05E5E745F00400ECE740F00200EDE79D
:1031500040F00100F0BD00000100008010B50489BE
:1031600044810A8852BA02814B885BBA438003804B
:103170008B885BBA838089798171131B0169B3F5F0
:10318000805F01DD491E03E013F5805F01DA491C11
:10319000016102EB41318289891A416110BD0189C7
:1031A000818170471A4D1B4C1B4F4FF001084FF4A3
:1031B000006640F6B839012216491848FFF728F989
:1031C0002078FFF777FFE8680228F4D1A868012883
:1031D000F1D1012231463846FEF7F3F8484600F0B7
:1031E000D4F8002231463846FEF7EBF80023424679
:1031F00019461846C4F80880FFF77AFF0549607041
:103200000A230122491C0548FFF72CF9D3E70000E7
:10321000E846002088000020001C02404C040020EA
:10322000FEE7000070B52DED028B00F0E3FF9FED8F
:10323000338A40F6B835B1EE040AB0EE481AF0EE23
:10324000480A00232A4603212D48FFF79FFBDFEDA4
:103250002D8A4FF47A74B0EE481AF0EE680AB2EE96
:10326000040A23462A4603212748FFF78FFB2448F8
:10327000B0EE481AF0EE480A9FED240A00232A46D1
:1032800003216830FFF782FB1F48B0EE481AF0EECA
:10329000680AB2EE040A23462A4603216838FFF77B
:1032A00075FB6D00B0EE481AF0EE480AB2EE040A63
:1032B00000232A4603211648FFF768FB1448B0EEA6
:1032C000481AF0EE680AB2EE040A23462A460321A1
:1032D0006830FFF75BFB0F4D002400BF04EB440098
:1032E00000EBC40005EB80000B49FFF758FF641C9E
:1032F000042CF3DBBDEC028B70BD0000000000006D
:10330000004400209A99193EA0450020CDCC4C3DA8
:103310000846002024430020A800002070B5094D75
:10332000002480212846FEF747F8012800D1022416
:1033300004212846FEF740F8012801D144F0010499
:10334000204670BD00200240FEF74EF8FFF756FB06
:10335000FFF79AF9FFF7E6F8FFF706F9FFF7DCFA4F
:10336000FFF7F6FAFFF714FAFFF720F9FFF768FA0C
:10337000FFF758FFFFF748F900F00EF8FEE70146A7
:103380000020842900D0C81C704710B500B9012066
:1033900001F022F8002010BD10B501F043F8002024
:1033A00010BD7FB50D4604464169B0F9080081B1F2
:1033B000A16971B1FFF7E3FFD4E905128DE80700B9
:1033C000D4E900102B46226901F03FF9039004B0C4
:1033D00070BDFFF7D4FF03A9CDE90001208A2B4679
:1033E00082B2D4E9001001F003F9012801D00020D5
:1033F000EDE70398EBE7000000B530EEC01A80ED72
:10340000080AC0ED050A80ED0B1AD0ED141A01462A
:103410009FED692A30EEC00AF5EEC01AB1EE400AFF
:10342000F1EE10FA0ED0B5EEC01AF1EE10FA02DD90
:10343000F0EE410A01E0F0EE400AF4EEE10AF1EEAE
:1034400010FA12DCD1ED150AF5EEC00AF1EE10FA11
:103450000ED0B5EEC01AF1EE10FA01DDB0EE410A61
:10346000B4EEE00AF1EE10FA02D2B0EE420A00BD6C
:10347000886D01F13402032802D0042838D07AE0A4
:1034800091ED000A104620EE010A81ED0C0A91ED43
:103490000D0AD1ED010A00EE810A81ED0D0A91EDD0
:1034A0000A0AD1ED020A31EE400A20EE200A81ED2F
:1034B0000E0A91ED180AB8EE400AFFF7E5FD91ED0E
:1034C0000C0AD1ED0D0A01F13C0030EE200AD1EDDD
:1034D0000E0A30EE200A81ED0F0A91ED170AB8EEC0
:1034E000400AFFF7D1FD91ED0F0A81ED100A42E08D
:1034F00091ED0A0AD1ED001A104671EE400A60EE15
:10350000A10AC1ED0C0AD1ED010A60EE810AC1EDFC
:103510000D0AF0EE000A00EE601A91ED090AD1EDF5
:10352000020A31EE000A20EE200A81ED0E0A91ED2A
:10353000180AB8EE400AFFF7A7FD91ED0C0AD1ED8D
:103540000D0A01F1480030EE200AD1ED0E0A30EEEE
:10355000200A81ED110AD1ED130A30EE800A81EDC7
:10356000120A91ED170AB8EE400AFFF78DFD91EDB2
:10357000120A81ED130A91ED0A0A81ED090A91ED13
:103580000B0A81ED0A0A91ED070A81ED060A91ED19
:10359000080A81ED070A91ED040A81ED030A91ED15
:1035A000050A81ED040A886D032802D091ED120A04
:1035B00000BD91ED0F0A00BD0000000000F1580CA5
:1035C0008CE80E0080EC030A704700002DE9F04102
:1035D000184C0F46054666692068001D00F038FE4D
:1035E00038B9206890F82C1001208840A1698143E7
:1035F000A161681C07D137B12168BDE8F0410E48D0
:10360000091D00F069BE20683544B5424560216857
:1036100005D2A068BDE8F041091D00F045BE606814
:10362000091D00F041FE206B854200D22563BDE8F4
:10363000F081000028000020E80600202DE9F0417C
:10364000054600F055FE2E4C2069401C2061206884
:103650002C4F10B1E06940B32DE0256020690128AE
:1036600029D1002606EB860007EB800000F00EFE55
:10367000761C072EF6D323488C3000F007FE214835
:10368000A03000F003FE1F48B43000F0FFFD1D48DD
:10369000C83000F0FBFD1B48DC3000F0F7FD194896
:1036A0008C3060601430A06005E02068E96AC06A70
:1036B000884200D82560E06A401CE062E96A012087
:1036C000A26988401043A06101EB810007EB8000F4
:1036D000291D00F001FE00F02BFEE06900280CD04F
:1036E0002068E96AC06A884207D207494FF08050D3
:1036F0000860BFF34F8FBFF36F8FBDE8F08100000C
:10370000280000200C06002004ED00E010B504465F
:1037100090F8510058B101280CD002280FD0502049
:1037200080F31188BFF34F8FBFF36F8FFEE7206BDD
:1037300000F012FE2046BDE8104000F00DBE10BDA6
:1037400010484FF47051420706D0C01D0D4920F0BB
:103750000700411AC1F570510B4A00230144C2E928
:1037600000030839103A21F0070111604B600B602B
:103770000B1AC0E9001393604FF000405360D06013
:1037800070470000FC06002074000020144E154C09
:10379000A6F1C8074FF08058DFF84C9012E000BF48
:1037A00000F0A6FDF068C568281D00F051FD2069F5
:1037B000401E2061E068401EE06000F0B9FD284630
:1037C000FFF7A4FFE0680028EAD138680128F9D99A
:1037D000C9F80080BFF34F8FBFF36F8FF2E700008F
:1037E000D40600202800002004ED00E02DE9F04779
:1037F0009A46DDE9098481466FF00303206B03EBF1
:1038000082021044089D20F00706700707D0502060
:1038100080F31188BFF34F8FBFF36F8FFEE723183C
:103820000A5C83F834200A5C12B1401C1028F6D3DD
:10383000002784F84370072D00D30625E562C4E90C
:103840001157201D00F02DFD04F1180000F029FD96
:103850002461C5F107006462A061E76484F85070D8
:1038600052464946304600F0BFF82060B8F1000FDC
:1038700001D0C8F80040BDE8F087000030B511491C
:1038800000E011460A688242FBD34B685C18844210
:1038900003D1406818444860084643681C189442A5
:1038A00009D1084C103C2468A24209D052681A443D
:1038B00042600A6812680260814200D0086030BD30
:1038C0000460F9E77400002006484168096829B1DE
:1038D0004168C968C9684968016370474FF0FF31A2
:1038E000FAE700002800002008484068401C4FF01C
:1038F000500080F3118804D0BFF34F8FBFF36F8F58
:10390000FEE7BFF34F8FBFF36F8FFEE77C00002011
:103910002DE9F0410546002700F0BAFD314E306830
:1039200008B9FFF70DFFF06805424BD1C5B3083564
:1039300068070ED005F00700C0F1080005446807CD
:1039400007D0502080F31188BFF34F8FBFF36F8FE4
:10395000FEE72DB37068854234D822481030014606
:103960000C6801E020460C466168A94202D2216839
:103970000029F7D131688C4224D0076821680160A2
:1039800060680837411B10290FD96019420708D019
:10399000502080F31188BFF34F8FBFF36F8FFEE786
:1039A00010E041606560FFF769FF61687068401A68
:1039B0007060B268904200D2B060F06801430020AD
:1039C000C4E9000100F0D0FE780707D0502080F352
:1039D0001188BFF34F8FBFF36F8FFEE73846BDE806
:1039E000F08100006400002010B5031F4FF08074C8
:1039F0001C601B1F21F001011960191F044B0B6093
:103A000014390A60091F6FF0020244380A6010BDC1
:103A1000E9380008294E2A4D2A4C012228492A4813
:103A2000FEF7F6FC2878FFF745FBF068072817D06B
:103A3000092815D000212348FEF71EFB216840F617
:103A40006A10486304211F48FEF716FB21684FF4F3
:103A5000166088630020E8600120FFF796FCDCE731
:103A6000E8680028F8D104211648FEF705FB216814
:103A700040F2DC50886300211248FEF7FDFA21680D
:103A800040F2A46048634FF4FA673846FFF77DFCC4
:103A900004210C48FEF7F0FA2168B8108863002171
:103AA0000848FEF7E9FA216840F24C4048630120DB
:103AB000E8603846FFF769FCCEE70000E8460020E2
:103AC00088000020CC0300204C04002030B589B0D1
:103AD000DDE90C4502950025049505950825069518
:103AE0000D0A8DF800508DF80110110A8DF80210A2
:103AF000190A8DF804108DF80530210A8DF806108A
:103B00008DF803208DF8074008AB6A4602A9FCF740
:103B100041FE09B030BDD0E90112012A04DDC368BD
:103B2000A2F10102194403E003D101684FF0000241
:103B3000826041600846704701460020896800297C
:103B400000D101207047436832B182600160C91A18
:103B500091FBF2F1C160704700228260C260416057
:103B6000704700002DE9F14F2DED0A8B84B00E98BF
:103B7000FCF7CEFC9FEDBE9B53EC192BFCF7E7FB4B
:103B800053EC192BFCF7E3FB9FEDBBAB53EC1A2B6B
:103B9000FCF7DDFB9FEDBABB53EC1B2BFCF749FC9C
:103BA0009FEDB9CB53EC1C2BFCF7D1FBFCF7C1FC10
:103BB000B74FB84C00267861B74D4FF47A7A04F1CC
:103BC000680004F59C7BB0469FEDB48A4FF4007901
:103BD0000290B348FFF7B0FF20B10A22B0487969DC
:103BE000FFF7B1FFAE48FFF796FF3861B5F9000067
:103BF000F0EE480A00EE100AA648B8EEC00AFFF739
:103C0000FBFB95ED100AD7ED040A0298B8EEC00A46
:103C1000F8EEE00AFFF7F0FBB5F92C00D4ED290A25
:103C200000EE100A5846B8EEC00AFFF7E5FBCDE9F2
:103C3000008994ED5D0A0023BDEEC00A10EE100A63
:103C400094ED0F0A02B2BDEEC00A10EE100A01B2E6
:103C50009448FFF73BFF0120FFF797FB761C564582
:103C6000B7DB4FF4805A002251468F48FDF7A9FB7D
:103C70005FF00006B5F90000F0EE480A00EE100A09
:103C80008448B8EEC00AFFF7B7FB95ED100AD7EDF0
:103C9000050A0298B8EEC00AF8EEE00AFFF7ACFB9E
:103CA000B5F92C00D4ED290A00EE100A5846B8EEFA
:103CB000C00AFFF7A1FBCDE9008994ED5D0A00235E
:103CC000BDEEC00A10EE100A94ED0F0A02B2BDEE6E
:103CD000C00A10EE100A01B27248FFF7F7FE012089
:103CE000FFF753FB761CC82EC4DB012251466E48F9
:103CF000FDF767FB002201216C48FDF762FBBA4625
:103D000000264F46B5F90000F0EE480A00EE100A12
:103D10006048B8EEC00AFFF76FFB95ED100ADAEDC8
:103D2000050A0298B8EEC00AF8EEE00AFFF764FB55
:103D3000B5F92C00D4ED290A00EE100A5846B8EE69
:103D4000C00AFFF759FBCDE9008794ED5D0A002317
:103D5000BDEEC00A10EE100A94ED0F0A02B2BDEEDD
:103D6000C00A10EE100A01B24E48FFF7AFFE012064
:103D7000FFF70BFB761CC82EC4DB0E984042FCF705
:103D8000C7FB53EC192BFCF7E2FA53EC192BFCF7A9
:103D9000DEFA53EC1A2BFCF7DAFA53EC1B2BFCF788
:103DA00048FB53EC1C2BFCF7D2FAFCF7C2FBC346D2
:103DB000D046CAF81400A2463D4C002604F1680023
:103DC000B94602903648FFF7B7FE28B10A223448B8
:103DD000D8F81410FFF7B7FE3148FFF79CFEC8F87B
:103DE0001000B5F90000474600EE100AF0EE480A50
:103DF0002848B8EEC00AFFF7FFFA95ED100AD7ED94
:103E0000040A2B48B8EEC00AF8EEE00AFFF7F4FA0D
:103E1000B5F92C00D4ED0F0A00EE100A0298B8EEA6
:103E2000C00AFFF7E9FACDE900B994ED290A0023A9
:103E3000BDEEC00A10EE100A9AED0F0A02B2BDEEF6
:103E4000C00A10EE100A01B21648FFF73FFE01202B
:103E5000FFF79BFA761CB6F5966FB3DB04B0012230
:103E6000BDEC0A8B1146BDE8F84F1048FDF7A9BA22
:103E7000A6A5A5A5A5A50D40BAE8A28B2EBA14400B
:103E80000000000000807640000000000000C040FC
:103E9000880000200044002024430020000000008F
:103EA000D8460020A8000020001C02400008024064
:103EB000084600202DED028B84B09FEDC38AC34DD0
:103EC000DFF80CB3DFF80C934FF0000A0122C14970
:103ED000C148FEF79DFA4C4699F80000FFF7EAF852
:103EE000BE48C168042903D0052901D0062902D1A2
:103EF000806801287ED00123524619460420C4F868
:103F000008A0FFF7F5F8B34960700A230122491CA5
:103F1000B148FEF7A7FA01221146B148FDF751FA60
:103F20006420FFF732FAD1E7FFF7F8F9A1466060A5
:103F300000287CD1A74854461830F0EE480AC0F853
:103F400000A0B5F9000000EE100AA148B8EEC00AC2
:103F5000FFF752FA4FF40076CDE900469BED0F0AC9
:103F600000235F46BDEEC00A1A4610EE100A01B2E9
:103F70009C48FFF7ABFD6FF0B3042046FFF7F2FD5E
:103F8000002204219648FDF71CFA2046FFF7EAFDBF
:103F9000B84600245746002208219148FDF711FA3F
:103FA000B5F90000F0EE480A00EE100A8848B8EEB5
:103FB000C00AFFF721FACDE9007698ED0F0A002339
:103FC0001A46BDEEC00A10EE100A01B28548FFF78E
:103FD0007DFD0120FFF7D9F9641CC82CDBDB6FF0F5
:103FE000B300FFF7BFFD7E4C012208212046FDF7FC
:103FF000E8F900E0DCE0002210212046FDF7E1F9BD
:10400000C34600244FEA0608B5F90000F0EE480A5E
:1040100000EE100A6E48B8EEC00AFFF7EDF9CDE9E0
:1040200000789BED0F0A5E46BDEEC00A00E071E02D
:1040300010EE100A00231A4601B26A48FFF746FD47
:104040000120FFF7A2F9641CC82CDDDB6FF0B30080
:10405000FFF788FD624C012210212046FDF7B1F9DF
:104060006FF0B300FFF77EFD012204212046FDF72B
:10407000A8F906F5D0700024CDF8080095ED050AE2
:10408000F0EE480A5248B8EEC00AFFF7B5F9B5F9A4
:104090000000D6ED0F0A00EE100A0298B8EEC00A32
:1040A000FFF7AAF9CDE9007896ED770A00231A46C2
:1040B000BDEEC00A10EE100A01B24A48FFF706FD35
:1040C0000120FFF762F9641CB4F57A7FD6DB012288
:1040D00000234C4619460320C9F80820FFF708F8CA
:1040E0003C4960700A230122491C3B48FEF7BAF99B
:1040F0003B4C012202212046FDF763F94FF47A7010
:10410000FFF743F9002202212046FDF75AF901206A
:10411000FFF73BF9D9F804004C46012822D12D487D
:104120004FF47A61183056460160C4F814A0B5F90E
:104130000000DFED2D0A00EE100A2548B8EEC00A97
:10414000FFF75AF94FF40070CDE900609BED0F0ABC
:1041500000231A46BDEEC00A10EE100A01B2214833
:10416000FFF7B4FC6068022823D11A481F491830B1
:1041700056460160C4F814A0B5F90000DFED1C0A32
:1041800000EE100A1248B8EEC00AFFF735F94FF4F6
:104190000070CDE900609BED0F0A00231A46BDEECA
:1041A000C00A10EE100A01B20E48FFF78FFC00E0C3
:1041B000A1464C46D9F8040000287FF4B5AE03218F
:1041C000C9F80410A7E60000000000002443002006
:1041D00000440020880000204C040020E846002015
:1041E00000080240A800002000007A4560F0FFFFB0
:1041F00000007AC570B5134C00250120656120626E
:10420000C4E9065025606560A560E56021460E485A
:104210002561FCF723FB0C48FCF764FE02210A48E9
:10422000FCF7A6FA0E206561606221460748FCF79C
:1042300015FB0648FCF756FEBDE870400221034816
:10424000FCF796BAFC420020A8000020D000002015
:10425000D0E9013201699A60D0E901235A604A68C5
:10426000824201D182684A60002202610868401ED1
:104270000860086870470000034B036003F15400B6
:104280000860802010607047F800002000F10801ED
:104290004FF0FF32C0E90112C160016100210160ED
:1042A000704700210161704730B50B685A1C02D07D
:1042B00000F1080202E0026904E022465468256821
:1042C0009D42FAD953684B6099608A6051600861D9
:1042D0000168491C016030BD42684A6093688B6088
:1042E00093685960916008610168491C01607047DA
:1042F000502080F31188BFF34F8FBFF36F8F0A49AF
:104300004868401C486001280CD10848006810F03B
:10431000FF0F07D0502080F31188BFF34F8FBFF3FA
:104320006F8FFEE7704700007C00002004ED00E086
:104330000849486828B1401E486001D180F31188BF
:104340007047502080F31188BFF34F8FBFF36F8FFA
:10435000FEE700007C00002070B5002827D0144D37
:10436000A0F108046168E868014207D1502080F399
:104370001188BFF34F8FBFF36F8FFEE722683AB10A
:10438000502080F31188BFF34F8FBFF36F8FFEE78C
:104390008143616000F07CF8606869680844686087
:1043A0002046FFF76BFABDE8704000F0DDB970BD44
:1043B000640000204FF0E020002101618161054987
:1043C0004FF47A720968B1FBF2F1491E416107218D
:1043D000016170472400002010B5020014D00F487E
:1043E000806B38B1502080F31188BFF34F8FBFF33B
:1043F0006F8FFEE700F04CF800211046FFF7E6F85B
:1044000000F0B2F9002807D105494FF0805008604C
:10441000BFF34F8FBFF36F8F10BD00002800002047
:1044200004ED00E010B586B00024039405AA04A9A9
:1044300003A80494FFF720FFDDE903010094CDE910
:10444000011000230EA11048059A00F0FEF80F4954
:104450000028486311D0502080F31188BFF34F8F9C
:10446000BFF36F8F4FF0FF3008630120C8614C61CC
:1044700006B0BDE8104000F041B806B010BD000025
:1044800049444C45000000008D37000828000020FA
:104490000248816B491C816370470000280000209E
:1044A0001448816B11B101214162704700214162C2
:1044B0008169B1FA81F1C1F11F0101EB81020E495D
:1044C00051F822306BB101EB820101F108034A6817
:1044D00052684A609A4201D152684A60D1680160CC
:1044E0007047502080F31188BFF34F8FBFF36F8F59
:1044F000FEE70000280000200C0600201CB537480D
:104500000168374A914207D1502080F31188BFF3E8
:104510004F8FBFF36F8FFEE700683149491E884215
:1045200007D1502080F31188BFF34F8FBFF36F8FF7
:10453000FEE72C4908780190FF20087008788DF874
:1045400000009DF800009DF8002000F0F00090426F
:1045500007D0502080F31188BFF34F8FBFF36F8FC8
:10456000FEE79DF80000204B00F050001870072077
:10457000986005E09DF8002052008DF80020401E54
:104580009DF800201206F5D49860032807D050202B
:1045900080F31188BFF34F8FBFF36F8FFEE74FF4A7
:1045A00040709860019808700C482030016841F410
:1045B00070010160016841F070410160FFF7FAFE8F
:1045C00000205860FBF720FE0848016841F0404198
:1045D0000160FBF705FE00201CBD000000ED00E0BF
:1045E00071C20F4100E400E07C00002034EF00E0E5
:1045F0002DE9FF5F8346DDE90E87994616468A4618
:104600009000FFF785F905001CD05420FFF780F9D2
:10461000040014D00020256384F85100CDE9024045
:10462000CDE900874B46324651465846FFF7DEF843
:104630002046FFF703F8012004B0BDE8F09F2846AC
:10464000FFF78AFE4FF0FF30F6E7F0B585B0DDE901
:104650000B640A9DA6B1DCB154270097266302269D
:1046600084F85160002604AFCDE90246CDE9005739
:10467000FFF7BCF82046FEF7E1FF049805B0F0BD57
:10468000502080F31188BFF34F8FBFF36F8FFEE789
:10469000502080F31188BFF34F8FBFF36F8FFEE779
:1046A0002DE9F0412E4C0027A06B40B1206A401C40
:1046B0002062606A00B101273846BDE8F081666972
:1046C000761C666113D16068006838B1502080F3B1
:1046D0001188BFF34F8FBFF36F8FFEE76068A1684B
:1046E0006160A060A06A401CA062FFF7EDF8206B3B
:1046F000DFF87080864209D36068006880B1606826
:10470000C068C568686886420DD220632068C06AA8
:1047100000EB800158F821000128CAD90127C8E719
:104720004FF0FF30F1E7281DFFF792FDA86A18B19E
:1047300005F11800FFF78CFDE86A0121A2698140AC
:104740001143A16100EB800108EB8100291DFFF7F7
:10475000C3FDE86A2168C96A8842CDD30127CBE747
:10476000280000200C0600202DE9F0472C4D0024E5
:104770002746A86B38B1FFF7BBFDA86B401EA863A6
:10478000A86B40B146E0502080F31188BFF34F8FF3
:10479000BFF36F8FFEE72969224E0120D1B3A6F146
:1047A000B40980463068E8B1F068C46804F11800C4
:1047B000FFF74EFD201DFFF74BFDE06AAA6908FADE
:1047C00000F11143A96100EB800109EB8100211D7B
:1047D000FFF782FDE06A2968C96A8842E2D3C5F81A
:1047E0002480DFE70CB1FFF76FF82C6A44B146462E
:1047F000FFF756FF00B16E62641EF9D100202862F7
:10480000686A38B10849012738070860BFF34F8F3D
:10481000BFF36F8FFFF78CFD3846BDE8F0870000CF
:1048200028000020C006002004ED00E01049000828
:104830009D2900080000000000000000800000002A
:104840000000000000000000D8480008B53E000845
:1048500000000000000000008000000000000000D8
:104860000000000004490008213200080000000098
:1048700000000000800000000000000000000000B8
:10488000E8480008A5310008000000000000000012
:10489000800000000000000000000000F848000850
:1048A000153A000800000000000000008000000031
:1048B00000000000000000000006101600061016A0
:1048C00000000000000000000102030406070809C0
:1048D000000000000102030474616B6542756C6C9A
:1048E00074655461736B00006769766542756C6C22
:1048F00074655461736B0000726573637565546110
:10490000736B0000686F6C6465725461736B0000B8
:1049100064656661756C745461736B003C49000892
:1049200000000020A80000006A300008E4490008E8
:10493000A8000020504A00007A3000080000000063
:104940000000000000000000000000000000000067
:104950000000000001000000100000000000000046
:104960000024F4000000000000000000000000002F
:104970000000000000000000000000000000000037
:104980000000000000000000000000000000000027
:104990000000000000000000000000000000000017
:1049A0000000000000000000000000000000000007
:1049B000000000000000000000000000AAAAAAAA4F
:1049C00000000000000000000300000000000000E4
:1049D00000000000000000000000000000000000D7
:0449E00000000000D3
:04000005080001AD41
:00000001FF
