:020000040800F2
:10000000D84B002081020008232900089924000809
:100010002129000819060008DD2F00080000000053
:10002000000000000000000000000000C101000806
:10003000FD060008000000001D02000869290008F4
:100040009B0200089B0200089B0200089B0200081C
:100050009B0200089B0200089B0200089B0200080C
:100060009B0200089B0200089B0200089B020008FC
:100070009B0200089B0200089B0200089B020008EC
:100080009B0200089B0200089B020008290600084A
:100090001D0600089B0200089B0200089B02000846
:1000A0009B020008392A00089B0200089B020008F6
:1000B0009B0200089B0200089B0200089B020008AC
:1000C0009B0200089B0200089B0200089B0200089C
:1000D0009B020008AD2F0008C52F00089B020008F6
:1000E0009B0200089B0200089B0200089B0200087C
:1000F0009B0200089B0200089B0200089B0200086C
:100100009B0200089B0200089B0200089B0200085B
:100110009B0200089B0200089B0200089B0200084B
:100120009B02000835060008410600089B020008F3
:100130009B0200089B0200089B0200089B0200082B
:100140009B0200089B0200089B0200089B0200081B
:100150009B0200084D0600089B020008D12F0008F2
:100160009B0200089B0200089B0200089B020008FB
:100170009B0200089B0200089B0200080000000090
:100180009B0200089B0200089B0200089B020008DB
:100190009B0200089B0200089B0200089B020008CB
:1001A00000000000000000009B020008DFF80CD0F7
:1001B00000F020FA00480047E5340008D84B002042
:1001C0002C4B19680868B0E8F04F80F30988BFF33A
:1001D0006F8F4FF0000080F311887047000000001F
:1001E00008480068006880F308884FF0000080F33A
:1001F000148862B661B6BFF34F8FBFF36F8F00DF15
:1002000000BF00BF08ED00E0DFF80C00016841F41A
:1002100070010160704700BF88ED00E0EFF30980D6
:10022000BFF36F8F134B1A681EF0100F08BF20ED3D
:10023000108A20E9F04F106009B44FF0500080F3AD
:100240001188BFF34F8FBFF36F8F04F0ABFA4FF0FD
:10025000000080F3118809BC19680868B0E8F04F05
:100260001EF0100F08BFB0EC108A80F30988BFF3AE
:100270006F8F70472C000020EFF30580704700005F
:100280000648804706480047FEE7FEE7FEE7FEE730
:10029000FEE7FEE7FEE7FEE7FEE7FEE71D2A0008B1
:1002A000AD0100082DE9F05F0546002092469B460F
:1002B00088460646814640241BE02846414647467C
:1002C000224600F0F2F853465A46C01A914110D324
:1002D00011461846224600F0D9F82D1A67EB01089E
:1002E0004F4622460120002100F0D0F817EB00090C
:1002F0004E41201EA4F10104DFDC484631462A4667
:100300004346BDE8F09F40EA01039B0703D009E0A4
:1003100008C9121F08C0042AFAD203E011F8013BF1
:1003200000F8013B521EF9D27047D2B201E000F84A
:10033000012B491EFBD270470022F6E710B5134689
:100340000A4604461946FFF7F0FF204610BD2DE986
:10035000FE4F81EA030404F0004421F000410094C0
:100360004FF0000B23F0004350EA01045ED052EA44
:1003700003045BD0C3F30A54C1F30A552C44A4F21E
:10038000F3340194A0FB0254C1F3130141F4801132
:10039000C3F3130343F4801301FB024400FB034E39
:1003A000840A970A44EA815447EA8357A4FB076802
:1003B00002958D0A05FB07854FEA932C04FB0C542C
:1003C0002705029D4FEA065847EA1637B5EB0805A0
:1003D0006EEB070C870E920E47EA811742EA8312F2
:1003E000A7FB0201B6EB0B0164EB00042B0D43EA03
:1003F0000C335E1844EB1C50DA465146E7FB020111
:10040000C5F313044FEA0B3343EA14534FEA0432A3
:10041000019C43EA0603A4F10C040294009CCDE97C
:1004200000B400F098F803B0BDE8F08F002001465A
:10043000F9E70EB5C10F80EAE0700844CA07002151
:1004400040F233438DE80E000A460B4600F083F875
:1004500003B000BD01F0004330B421F0004150EA88
:10046000010206D00A0DA2F56072C1F31301002A41
:1004700002DC30BC00207047440F44EAC104C100D4
:10048000E01830BC00EBC25000F01FB8202A04DB9B
:10049000203A00FA02F1002070479140C2F1200397
:1004A00020FA03F3194390407047202A04DB203AD6
:1004B00021FA02F00021704721FA02F3D040C2F184
:1004C000200291400843194670470029A8BF704791
:1004D000401C490008BF20F00100704710B4B0FA7A
:1004E00080FC00FA0CF050EA010404BF10BC704715
:1004F00049B1CCF1200421FA04F411FA0CF118BF2F
:10050000012121430843A3EB0C01CB1D4FEA0061FD
:100510004FEA102042BF002010BC704700EBC350D0
:1005200010440029A4BF10BC7047401C490008BFFC
:1005300020F0010010BC704710B5141E73F10004C8
:1005400008DA401C41F1000192185B411A4301D1C5
:1005500020F0010010BD2DE9F04D92469B4611B1EF
:10056000B1FA81F202E0B0FA80F220329046FFF751
:100570008DFF04460F4640EA0A0041EA0B0153464C
:100580005A46084313D0114653EA010019D0C8F166
:1005900040025046FFF789FF05460E465046594631
:1005A0004246FFF773FF084305D0012004E02046D0
:1005B0003946BDE8F08D0020054346EAE0762C433D
:1005C00037430A986305E40AA0EB08000022FD0AFD
:1005D00044EA47540A3002D500200146E9E7010504
:1005E00010196941DDE9084500196941BDE8F04D80
:1005F000A2E70000064C074D06E0E06840F001036A
:1006000094E8070098471034AC42F6D3FFF7D2FDC8
:100610003C4C00085C4C0008FEE70000014800F07C
:10062000E0B90000B4000020014800F0DAB9000091
:10063000B4000020014800F055BC0000380500203F
:10064000014800F04FBC0000D8040020014800F031
:1006500049BC00009805002001681823CAB2103A6E
:10066000B2FBF3F2054B6FF30901032A9B5CC365F0
:1006700000D9091D8165084670470000D84B000865
:1006800010B5014600208B698A6A4FF0C07453B1DF
:10069000B3F5005F15D072B1012A0CD0022A0AD03E
:1006A000032A09D104E01AB1012A06D0022A03D193
:1006B000C96AC90100D5012010BDC96AA142FAD09A
:1006C00010BD002AF7D0012AF2D0022AF3D0032A63
:1006D000F3D010BD30B50468256825F48025256069
:1006E000046863608368402B036803D099600068E6
:1006F000C26030BD9A600068C16030BD704770470D
:1007000090F82020012A07D0022A05D0416A41F43E
:100710008021416201207047006842690A434261BA
:1007200000207047F0B590F820500468A468012DAF
:1007300005D0022D03D0416A41F4802153E014F02A
:10074000406F01D1E5004BD5C4F30164022C03D9FD
:10075000416A41F4000146E00125A5401D608D6815
:100760004FF4C0739DB1CE6835434E6845EAC60567
:10077000066803EB0417F5514FF4C275076805EBE3
:1007800004150E697E51097D012905D009E00E8806
:10079000CD6845EA4655EBE701684E5946F4807648
:1007A0004E511179D2F805504FF4C67641EA05252D
:1007B000016806EB04168D511178D2F801204FF430
:1007C000C47541EA0221026805EB04155151006825
:1007D00003EB0411425842F0010242500020F0BDE8
:1007E000416A41F4001141620120F0BD10B590F85A
:1007F0002020012A07D0022A05D0416A41F4802135
:100800004162012010BD3B48D0F8002242F00102B5
:10081000C0F80022D0F8002222F47C52C0F8002256
:10082000D0F800224B6A42EA0322C0F800220A7D77
:1008300002F01F0301229A40D0F81C329343C0F803
:100840001C32CB69B3B9D0F80C329343C0F80C32E8
:100850008C894B6864F31F434C6900EBC404C4F8F3
:1008600040320C890B6864F31F434C6900EBC404ED
:10087000C4F84432CB69012B16D1D0F80C321343A3
:10088000C0F80C320C884B6864F31F434C6900EBD2
:10089000C404C4F840320C89CB6864F31F434C692C
:1008A00000EBC404C4F844328B69002BD0F8043246
:1008B0000ED01343C0F804320B69002BD0F8143269
:1008C00008D01343C0F81432096A012904D008E0A3
:1008D0009343EFE79343F5E7D0F81C121143C0F8B8
:1008E0001C12D0F8001221F00101C0F80012002003
:1008F00010BD000000640040704730B590F8204003
:10090000012C05D0022C03D0416A41F480215DE026
:100910000468002955D02469A40754D04FF4D87432
:10092000056804EB01142D5915F004059560056860
:100930002D594ED0ED08556005682C5904F002047D
:10094000D4604FF4DA74056804EB01142D5905F0F6
:100950000F05156105682D59C5F3072595610568D3
:100960002C59240C54614FF4DC72046802EB011220
:10097000A4581C700468A458240A5C700468A45825
:10098000240C9C700468A258120EDA704FF4DE72C8
:10099000046802EB0112A4581C710468A458240ACC
:1009A0005C710468A458240C9C710468A258120E4F
:1009B000DA71006881B1016941F020010161002014
:1009C00030BDE468A8E7416A41F4001141620120AA
:1009D00030BD6D0D1560AFE7C16841F02001C16009
:1009E000EDE72DE9F05F0546006800244669D0F880
:1009F00004908768D0F80CB0D0F810A0D0F8188018
:100A0000F10748D0F90714D001218160B80703D558
:100A1000284600F04EFA0CE0780702D54FF4006447
:100A200007E0380702D54FF4805402E0284600F072
:100A30003FFAF80516D529684FF480708860B8052C
:100A400003D5284600F037FA0CE0780502D544F4C7
:100A5000005407E0380502D544F4804402E02846FB
:100A600000F028FAF80316D529684FF48030886022
:100A7000B80303D5284600F020FA0CE0780302D52D
:100A800044F4004407E0380302D544F4803402E023
:100A9000284600F011FA300707D55FEACB6004D58D
:100AA0002968102044F40074C86070074FF00807EC
:100AB00007D55FEA0B7004D52868C760284600F0A8
:100AC0009BF9B00706D52868C068800702D0284681
:100AD00000F094F9700607D55FEACA6004D529686A
:100AE000102044F480640861B00607D55FEA0A70FC
:100AF00004D528680761284600F0AAF9F00606D553
:100B000028680069800702D0284600F0A2F9B003E7
:100B100008D55FEAC96005D52968102048602846D5
:100B200000F098F9F00307D55FEA097004D528684A
:100B30004760284600F0C2F9300446D55FEA4970A4
:100B400040D5F00504D55FEAC87001D044F0010437
:100B5000B00504D55FEA887001D544F00204700541
:100B600004D55FEA487001D544F00404300529D566
:100B700018F0700F26D008F07000402815D006DC61
:100B8000102809D020280AD0302816D10AE0502891
:100B90000ED0602811D10EE044F008040DE044F0BE
:100BA00010040AE044F0200407E044F0400404E0AC
:100BB00044F0800401E044F480742868816921F0E5
:100BC00070018161296804204860002C05D0686AA2
:100BD000204368622846FFF78FFEBDE8F09F70B59E
:100BE000040003D094F8200010B104E0012070BD8F
:100BF000204600F081F82068016821F002010160C0
:100C000000F0C2FB0546052604E000F0BDFB401BDA
:100C10000A2811D8206840688007F6D42068016847
:100C200041F00101016000F0AFFB05460BE000F070
:100C3000ABFB401B0A2806D9606A40F400306062B2
:100C400084F82060D2E720684068C007EFD0207E9B
:100C50000128206801683DD021F080010160607E9C
:100C600001282068016838D021F040010160A07E91
:100C700001282068016833D021F020010160E07E66
:100C80000128206801682ED041F010010160207F0A
:100C900001282068016829D021F008010160607FE7
:100CA00001282068016824D021F004010160D4E902
:100CB00002010843D4E90412114308436168491E44
:100CC00008432168C86100206062012084F8200088
:100CD000002070BD41F08001C0E741F04001C5E750
:100CE00041F02001CAE721F01001CFE741F00801EF
:100CF000D4E741F00401D9E7F0B587B004461421E8
:100D00006846FFF719FB374B3748DFF8D4E019681E
:100D1000D4F800C0344A03250226092710300024E5
:100D2000491CF4452DD11960012907D1016841F012
:100D300000710160006800F000700590106840F0DC
:100D4000080010601068CDE9005600F00800CDE9F9
:100D5000047069462548CDE9024500F021FA0022D9
:100D60000521132000F09CFB132000F08BFB0022D8
:100D70000521142000F094FB142000F083FB07B041
:100D8000F0BDDFF86CE0F445F9D1D0F800C04CF0CC
:100D9000806CC0F800C0D0F800C001290CF0806C55
:100DA000CDF814C0196007D1016841F000710160ED
:100DB000006800F000700590106840F002001060BC
:100DC000106802AB00F0020005904FF44050CDE9EE
:100DD000000683E8B0006946064800F0E1F9CEE776
:100DE000006400400000002030380240000C024047
:100DF00000680040000402407047000030B589B030
:100E0000054607AB6A460021FFF777FD0E4CA54269
:100E100012D10098A0F2012005280DD8009800EB0F
:100E2000400101EBC000094901EB8000A0F5B04092
:100E300007A92C3802F0DCF92068416941F0020171
:100E4000416109B030BD0000B400002050460020D0
:100E5000704770477047000070B5044690F8200056
:100E6000012804D0606A40F40020606218E002208B
:100E700084F820002068016821F00101016000F081
:100E800083FA05460EE000BF00F07EFA401B0A28F8
:100E900008D9606A40F400306062052084F82000C0
:100EA000012070BD20684068C007EDD1606270BD50
:100EB000704770477047704770477047704790F8A9
:100EC0003510022903D0802141650120704705219A
:100ED00080F835100068016821F0010101600020F0
:100EE000704700002DE9F84304464FF00009CDF8A3
:100EF000009063484FF41651A56D0068B0FBF1F700
:100F00002E6894F85C10082000FA01F131420FD0ED
:100F100021680A6852070BD50A6822F004020A60A9
:100F200094F85C108840A860606D40F00100606536
:100F300094F85C104FF0010808FA01F0304208D034
:100F400021684969090604D5A860606D40F0020077
:100F5000606594F85C1004208840304208D0216815
:100F60000968890704D5A860606D40F004006065D9
:100F700094F85C1010208840304218D0216809682D
:100F8000090714D5A86020680168490304D50068E2
:100F9000000308D5A16C07E00168C90503D4016806
:100FA00021F008010160216C09B12046884794F8BE
:100FB0005C1020208840304231D021680968C90681
:100FC0002DD5A86094F8350005282068016806D062
:100FD000490347D5006800031DD4616C1CE021F073
:100FE000160101602068416921F080014161206C97
:100FF00008B9A06C20B12068016821F008010160E7
:1010000094F85C103F208840A86084F8349084F8FD
:101010003580216D1FE0E16B09B120468847606D86
:1010200000282BD0606DC00714D0052084F835004F
:101030002068016821F0010101600098401C0090C7
:10104000B84203D820680068C007F6D184F834900D
:1010500084F83580E16C002910D001B02046BDE84D
:10106000F04308470168C905D5D4016821F0100193
:10107000016084F8349084F83580CCE7BDE8F883CB
:10108000280000202DE9F041044600F07DF90646D5
:101090005CB1002584F83450022084F835002068C3
:1010A000016821F0010101600DE00120BDE8F0813F
:1010B00000F06AF9801B052805D92020606503200F
:1010C00084F83500F2E720680068C007F0D1226894
:1010D000116820480140D4E901031843D4E90336DC
:1010E0003343184363691843A3691843E3691843FA
:1010F000236A18430843616A042903D1D4E90B1316
:1011000019430843106020684069666A20F00701AF
:1011100030460E43012704280CD1A06A0643E06A3A
:1011200040B12046FFF7ACFA20B14020606584F85A
:101130003570BAE7206846612046FFF78DFA94F8CB
:101140005C203F2191408160656584F83570002006
:10115000ACE700003F8010F070B5044690F8340012
:10116000002501280CD0012084F8340094F8356063
:101170000020012E06D084F834000225284670BDD8
:10118000022070BD022684F8356060652046FFF7B6
:10119000A1FA2068016841F001010160EEE700005A
:1011A0002DE9F84F00224FF0010803254FF00F0EF4
:1011B0000B6808FA02F42340A3426ED14E68012E58
:1011C00005D0022E03D0112E01D0122E12D1866826
:1011D0004FEA420C05FA0CF7BE43CF6807FA0CF74A
:1011E000374387604668A6430C79C4F300149440E3
:1011F00034434460C668570005FA07FC8C6826EA49
:101200000C06BC403443C4604C68022C01D0122C44
:1012100013D1D40800EB8404A346D4F820905407DB
:101220004FEAD46A0EFA0AF629EA06090E6906FAA6
:101230000AF646EA0906CBF8206004680E7924EA2B
:101240000C0406F00306BE40264306604C68E4002A
:101250006FD53B4C266846F480462660246822F011
:10126000030604F480440094364C3444A446D4F875
:1012700008489607360F0EFA06F7BC43324FB842BD
:1012800001D100272EE0314FB84201D1012729E0DA
:101290002F4FB84202D1022724E04AE02D4FB84236
:1012A00001D103271EE02C4FB84201D1042719E0D9
:1012B0002A4FB84201D1052714E0294FB84201D185
:1012C00006270FE0274FB84201D107270AE0264F33
:1012D000B84201D1082705E0244FB84201D10927BF
:1012E00000E00A27B7402743CCF80878204E34683E
:1012F0004F689C43FF0300D51C4334601C4E361DD1
:1013000034684F689C43BF0300D51C433460184EBB
:10131000083634684F689C43FF0200D51C43346094
:10132000134E0C3634684F689C43BF0200D51C43F3
:101330003460521C102AFFF43BAFBDE8F88F000068
:1013400044380240003001400000024000040240E6
:1013500000080240000C024000100240001402404D
:1013600000180240001C02400020024000240240FD
:10137000003C01400069084000D0012070470AB1DC
:10138000816170470904FBE70148806870470000ED
:101390001C00002002488168027811448160704777
:1013A0001C0000200B4810B5016841F40071016079
:1013B000016841F480610160016841F4807101605D
:1013C000032000F08DF8002000F006F800F03EF851
:1013D000002010BD003C024010B5014688B000223C
:1013E000192000F05DF8192000F04CF81348002493
:1013F000016841F001010160006805A900F00100E9
:101400000690684600F050F900F07EF90C49400063
:10141000B0FBF1F10C480B4A491E026040F2E73282
:10142000C0E90324C0E9011400F0D2FB10B101208F
:1014300008B010BD044800F007FCF9E7443802404A
:1014400040420F0000000140580300200C4882B0C9
:10145000016841F480410160006800F48040009020
:101460000748001F016841F08051016000680022B8
:1014700000F0805000900F21901E02B000F010B8D4
:1014800044380240002809DB00F01F02012191408E
:101490004009800000F1E020C0F800117047000012
:1014A000F0B40E4B1B680C46C3F30223C3F10705CF
:1014B000042D00D90425191D072901D2002300E0BD
:1014C000DB1E012606FA05F1491E214099409E4087
:1014D000761E16403143F0BC01F081BD0CED00E0FA
:1014E000064900F0070208684FF6FF03184040EA7B
:1014F0000220034A10430860704700000CED00E032
:101500000000FA052DE9F8431748016841F08051C1
:1015100001600068154F00F08050012600903E6485
:10152000FFF732FF05464FF47A78114C05E000BF13
:10153000FFF72AFF401B40450DD86068C003F7D570
:101540007E64FFF721FF0546464607E0FFF71CFFD4
:10155000401BB04202D90320BDE8F88360688003D5
:10156000F4D50020F8E700004038024000000E42A9
:10157000007000402DE9F0470E46050065D0DFF809
:101580001481D8F80000F7B200F00F00B04207D283
:1015900088F80070D8F8000000F00F00B04254D175
:1015A00028683D4C810712D5400703D5206840F4D8
:1015B000E05020602878000703D5206840F46040A0
:1015C00020602068A96820F0F00008432060287897
:1015D000C0072DD0304968680839012812D0022888
:1015E00013D0032811D00968890700292DDA216852
:1015F00021F0030101432160FFF7C6FE814641F25D
:10160000883A0EE009688903EFE709688901ECE789
:10161000FFF7BAFEA0EB0901514502D90320BDE84E
:10162000F0872068696800F00C00B0EB810FEFD103
:10163000D8F80010404601F00F01B14207D90770F9
:10164000006800F00F00B04201D00120E7E72878E1
:10165000400705D52068E96820F4E0500843206081
:101660002878000706D52068296920F4604040EA00
:10167000C100206000F058F82168084AC1F3031146
:10168000515CC8400649086006480068FFF7A4FEA0
:101690000020C4E7003C024008380240E04B00084C
:1016A00028000020200000200F2202600C4A13684E
:1016B00003F003034360136803F0F00383601368CF
:1016C00003F4E053C36012684FF4E05303EAD2021C
:1016D00002610448006800F00F00086070470000D5
:1016E00008380240003C0240044805490068096887
:1016F000044AC1F38221515CC84070472800002091
:1017000008380240F04B00080448054900680968A1
:10171000044AC1F34231515CC840704728000020A0
:1017200008380240F04B0008154810B5006810F06A
:101730000C02144813D01449042A0FD0082A0ED1E1
:101740000F4C241F2268236802F03F025B0207D57A
:101750002068C0F38810A0FB010106E0084610BD18
:101760002168C1F38811A1FB00010023FEF79AFD57
:101770002168C1F30141491C4900B0FBF1F010BDE3
:10178000083802400024F400001BB7002DE9F84F90
:10179000040076D02078DFF838A3CE4DC00749D0BA
:1017A000DAF800105046C1F38101012908D0006821
:1017B000C0F3810002280AD1281D0068400206D526
:1017C0002868800336D560680028E2D032E060687F
:1017D000B0F5803F10D0B0F5A02F286810D020F4CD
:1017E00080302860286820F4802028606068A0B1DC
:1017F000FFF7CAFD06460CE0286840F48030F4E7A5
:1018000040F480202860F7E7FFF7BEFD801B6428C6
:1018100073D828688003F7D50CE0FFF7B5FD0646BE
:1018200005E000BFFFF7B0FD801B6428F0D82868F2
:101830008003F7D42078DFF8A08280074FF00009FA
:101840003ED5DAF80010504611F00C0F09D00068B0
:10185000C0F3810002280BD19D48001F00684002A0
:1018600006D42868800715D5E068012809D111E061
:10187000E068B8B10120C8F80000FFF785FD064612
:1018800005E020E1FFF780FD801B0228C0D8286812
:101890008007F7D52868216920F0F80040EAC100E8
:1018A00028600DE0C8F80090FFF76EFD064604E0E2
:1018B000FFF76AFD801B02281FD828688007F7D42D
:1018C0002078000722D5824E844861696C3671B158
:1018D00001210160FFF758FD074604E0FFF754FDC2
:1018E000C01B022809D830688007F7D50EE0C0F881
:1018F0000090FFF749FD074605E082E0FFF744FD51
:10190000C01B02287DD830688007F7D420784007B4
:1019100068D5DFF8BCB100270BF1380BDBF800000D
:10192000C0000BD4DBF8001041F08051CBF8001060
:10193000DBF80000012700F080500090684E30680E
:10194000C00510D4306840F480703060FFF71CFD93
:10195000009005E0FFF718FD0099401A022850D8C2
:101960003068C005F6D55A4EA068683601280FD0F9
:101970000528306810D020F001003060306820F079
:1019800004003060A068B8B1FFF7FEFC00900FE0E3
:10199000306840F00100F4E740F004003060F7E701
:1019A000FFF7F2FC0099411A41F28830814266D873
:1019B00030688007F4D50EE0FFF7E6FC009007E002
:1019C000FFF7E2FC0099411A41F28830814256D873
:1019D00030688007F4D42FB1DBF8001021F080517B
:1019E000CBF80010A069D0B3DAF800205146C2F35A
:1019F0008102022A4AD00228484607D0C8F860006F
:101A000000E03CE0FFF7C0FC04463BE04746C8F876
:101A10006000FFF7B9FC064605E000BFFFF7B4FC25
:101A2000801B02282BD828688001F7D4D4E907014D
:101A30000843A16A2B4A490802EB0141626A41EA64
:101A40008211084394F82C1040EA01612048001FDD
:101A5000016001203866FFF797FC044605E034E09A
:101A6000FFF792FC001B022809D828688001F7D5EF
:101A70002BE000BFFFF788FC001B022802D90320DF
:101A8000BDE8F88F28688001F4D41EE00128F7D063
:101A90000868E26900F48001914214D1226A00F0E2
:101AA0003F0191420FD147F6C071626A01409142F5
:101AB00009D1A26A00F44031914204D1E16A00F0F8
:101AC0007060884201D00120DAE70020D8E70000EA
:101AD000083802400038024000004742800E47426A
:101AE000007000400000FFFF7047704710B590F88D
:101AF0003C20012A22D0012280F83C20CA688C6850
:101B000022F4407222434C6822F4806222430C6823
:101B100022F4006222430C6922F4805222434C6971
:101B200022F400522243C969002322F480420A436E
:101B300001684A6480F83C30002010BD022010BDCE
:101B400070B590F83C20012A32D0012480F83C4046
:101B5000022280F83D2003685A689D6822F07006D2
:101B60000A6832435A60134B02689A4214D0B2F1A9
:101B7000804F11D0104B9A420ED0104B9A420BD08E
:101B80000F4B9A4208D00F4B9A4205D00E4B9A4207
:101B900002D00E4B9A4204D1496825F080031943C4
:101BA000916080F83D40002180F83C10084670BDEF
:101BB000022070BD00000140000400400008004009
:101BC000000C0040000401400040014000180040AB
:101BD00010B5040003D094F83D0010B107E00120D7
:101BE00010BD002084F83C00204600F00DF80220D3
:101BF00084F83D00211D206800F024FF012084F8B6
:101C00003D00002010BD000008B50068B0F1804F15
:101C10000CD00B49884208D10A48016841F0020102
:101C20000160006800F00200009008BD0548001F38
:101C3000016841F001010160006800F00100F3E774
:101C400000040140443802400168CA6842F00102C1
:101C5000CA600068816801F00701062903D00168A5
:101C600041F0010101600020704770B5044690F812
:101C70003C00012817D0012584F83C50022084F84C
:101C80003D002068826822F0770222F47F42826061
:101C90000868502830D00DDC20284DD005DC98B3E2
:101CA00010283BD148E0022070BD302844D04028A5
:101CB00034D139E0602828D0702806D0B0F5805F94
:101CC0002CD0B0F5005F29D10AE0CB68D1E9012121
:101CD000206800F01BFF2068816841F0770109E06F
:101CE000CB68D1E90121206800F010FF20688168ED
:101CF00041F48041816011E0CA684968206800F0C1
:101D0000D9FF5021206807E016E0CA6849682068BA
:101D100000F0E1FF6021206800F002FF84F83D50F0
:101D2000002084F83C0070BDCA684968206800F053
:101D3000C1FF40212068EFE7226801461046EBE72B
:101D4000704770B50446006801694FF00005C9434B
:101D5000890715D4C168C943890711D4E91E0161F7
:101D600001202077206880698007204602D0FFF795
:101D7000E7FF04E000F0DAF8204600F05CF9257790
:101D800020680169C943490717D4C168C943490795
:101D900013D46FF00401016102202077206880696C
:101DA00010F4407F204602D0FFF7CAFF04E000F0A5
:101DB000BDF8204600F03FF9257720680169C94346
:101DC000090716D4C168C943090712D46FF0080186
:101DD0000161042020772068C0698007204602D076
:101DE000FFF7AEFF04E000F0A1F8204600F023F971
:101DF000257720680169C943C90617D4C168C9435A
:101E0000C90613D46FF01001016108202077206803
:101E1000C06910F4407F204602D0FFF791FF04E034
:101E200000F084F8204600F006F925772068016963
:101E3000C943C90708D1C168C943C90704D1891E6C
:101E40000161204600F0F8F820680169C9430906DD
:101E500009D4C168C943090605D46FF08001016146
:101E60002046FFF741FE20680169C943490609D4AD
:101E7000C168C943490605D46FF04001016120469D
:101E800000F0E4F820680169C94389060BD4C168F1
:101E9000C943890607D46FF0200101612046BDE8DF
:101EA0007040FFF722BE70BD10B586B00446142105
:101EB0006846FEF741FA2368002118480222B3F170
:101EC000804F17D0164CA34212D1036843F480739D
:101ED0000360006800F48070059060200090CDE9F8
:101EE00001210320CDE9031069460E48FFF758F998
:101EF00006B010BD036843F001030360006800F002
:101F00000100059048F202000090CDE90121012076
:101F1000CDE9031069460448E8E700003038024084
:101F2000000401400020024000000240704770B5EC
:101F3000044690F83C000D4601280DD0012684F897
:101F40003C60022084F83D0042B1042A18D0082ADF
:101F50002AD00C2A4DD139E0022070BD206800F053
:101F6000E7FD2068816941F008018161206881698D
:101F700021F004018161206881692A69114311E01F
:101F8000206800F005FE2068816941F400618161EC
:101F90002068816921F480618161206881692A69F2
:101FA00041EA0221816124E0206800F027FE2068D8
:101FB000C16941F00801C1612068C16921F00401D3
:101FC000C1612068C1692A69114311E0206800F0ED
:101FD00049FE2068C16941F40061C1612068C1699E
:101FE00021F48061C1612068C1692A6941EA022146
:101FF000C16184F83D60002084F83C0070BD10B5DC
:10200000040003D094F83D0010B107E0012010BD9A
:10201000002084F83C00204600F00CF8022084F8F0
:102020003D00211D206800F00DFD012084F83D00D9
:10203000002010BD7047704700680349884201D1F5
:10204000FFF7A8B9704700000000014070477047D3
:1020500070B5026804461068D168536910F00F0F1C
:1020600052D003F0010501F490762E435FD0C207F1
:1020700005D0CA0503D5E26B42F00102E2634207D4
:1020800005D5DA0703D0E26B42F00202E263820771
:1020900005D5DA0703D0E26B42F00402E2630207DF
:1020A00007D501F020022A4303D0E26B42F0080278
:1020B000E263E26B002A33D0800604D5880602D59D
:1020C000204600F030FE20684069E16BC0F38010CC
:1020D000090700D428B3204600F017FE20684169A4
:1020E00049061AD5416921F040014161606BA0B1F8
:1020F0001B490165606BFEF7E2FE002810D0606BA3
:10210000016DBDE870400847830610D58B060ED5DB
:102110002046BDE8704000F006BE2046FFF797FF5E
:1021200070BD2046FFF793FF0020E06370BD0306FB
:1021300006D50B0604D52046BDE8704000F0D2BE9F
:102140004006F3D54806F1D5D168204621F040017C
:10215000D160202184F8391000F09DF970BD000095
:10216000FB2C000870B5040004D094F83900002559
:1021700010B106E0012070BD84F83850204600F010
:1021800023F8242084F839002068C16821F4005124
:10219000C160204600F012FE2068016921F49041E0
:1021A00001612068416921F02A0141612068C1680C
:1021B00041F40051C160E563202084F8390084F8BF
:1021C0003A00002070BD00002DE9F04F87B00646B0
:1021D00014216846FEF7B0F86348DFF88881D6F826
:1021E00000C0614914380222012303250727002477
:1021F0004FF4806A4FF4807BC44535D1D1F800C0DC
:102200004CF0100CC1F800C0096801F010010591F4
:10221000016841F0020101600068694600F00200B7
:102220000590C0208DE8AD005048FEF7B9FF514D34
:102230004F4828604FF00060C5E90104C5E9034A32
:102240006C61C5E9064B2C6228466C62FEF71AFFEA
:1022500008B1FEF754FA7563002205212520AE630C
:10226000FFF71EF9252022E0DFF80C81C44523D1B9
:102270003D49091F0C6844F400340C60096801F4FE
:1022800000310591016841F008010160006869466C
:1022900000F00800059060208DE8AD003748FEF79B
:1022A0007FFF002205212620FFF7FAF82620FFF7FE
:1022B000E9F807B0BDE8F08F314FBC45F9D10F68A0
:1022C00047F020070F60096801F0200105910168BF
:1022D00041F0400101600068694600F0400005904F
:1022E0004FF484408DE82D00082004902548FEF727
:1022F00057FF204D1E486035183828604FF0206980
:10230000C5E90194C5E9034A6C61C5E9064B2C6235
:10231000D0465F4628466C62FEF7B4FE08B1FEF771
:10232000EEF97563AE63134D1148C0356030E5E8D2
:1023300002094020A5E811010E4845F81449C030B3
:10234000C5E906472C626C62FEF79CFE08B1FEF7F9
:10235000D6F93563002205214720AE63FFF7A0F8C8
:102360004720A4E700100140443802400004024026
:1023700040640240D804002000440040000C0240A9
:10238000001401400018024090F83A30202B22D16E
:10239000F9B1F2B190F83830012B1CD081628285FE
:1023A000C2850021C163222280F83A2080F83810CB
:1023B0000168CA6842F48072CA6001684A6942F0E2
:1023C00001024A610068C16841F02001C16000203B
:1023D0007047012070470220704770472DE9F8438D
:1023E000044690F839001F4616460D46202850D165
:1023F000B5B1AEB194F8380001284AD0012084F874
:1024000038004FF00008C4F83C80212084F83900DF
:10241000FEF7BAFFA6848146E68484F8388026E079
:102420000120BDE8F883E08C401EE084A0684B46A4
:10243000B0F5805F4FF000024FF08001204600971A
:1024400003D000F080FDE8B90DE000F07CFDC8B9D4
:1024500028882168C0F308004860206908B16D1C15
:1024600005E0AD1C03E0216815F8010B4860E08C25
:102470000028D8D14B46002240212046009700F08A
:1024800062FD08B10320CCE7202084F83900002049
:10249000C7E70220C5E77047FEE700000F4810B508
:1024A0000D4901600521416000214FF40032816037
:1024B000C0E903125201426101760122427681761F
:1024C000C17601774177FEF78AFB002803D0BDE88B
:1024D0001040FEF714B910BD00640040B4000020A5
:1024E0000F4810B50D4901600521416000214FF4EE
:1024F00000328160C0E9031252014261017601227B
:1025000042768176C17601774177FEF768FB002835
:1025100003D0BDE81040FEF7F2B810BD00680040DF
:10252000DC000020114808B5016841F48001016019
:102530000068002200F48000009005213920FEF799
:10254000AFFF3920FEF79EFF002205213A20FEF75B
:10255000A7FF3A20FEF796FF002205214520FEF74F
:102560009FFFBDE808404520FEF78CBF3038024091
:1025700010B5AAB01C2221496846FDF7C4FE00210F
:10258000684601F081F91E4C1C491C2260611C3117
:1025900007A8FDF7B8FE002107A801F075F9174953
:1025A00020601C2238310EA8FDF7ADFE00210EA8D8
:1025B00001F06AF9114960601C22543115A8FDF739
:1025C000A2FE002115A801F05FF90C49A0601C22B1
:1025D00070311CA8FDF797FE00211CA801F054F9EA
:1025E0000649E0601C228C3123A8FDF78CFE0021F7
:1025F00023A801F049F920612AB010BD304B000832
:10260000040000202DE9F04186B014216846FDF752
:1026100093FE33480024016841F0400101600168E5
:1026200001F040010591016841F00101016001687C
:1026300001F001010591016841F0020101600168AA
:1026400001F002010591016841F008010160016893
:1026500001F008010591016841F480710160016891
:1026600001F480710591016841F080010160016809
:1026700001F080010591016841F0200101600068CE
:10268000184F00F02000059001223C213846FEF74B
:1026900076FEDFF854804FF48046002231464046F3
:1026A000FEF76DFE3C2000900125CDE901546946FE
:1026B00038460394FEF774FDA802CDE9000469468C
:1026C0000A480294FEF76CFD0096CDE90154694674
:1026D00040460394FEF764FD06B0BDE8F0810000BB
:1026E00030380240001C024000140240000C02403E
:1026F00010B58EB000240794089409940A940B94A2
:102700001C2168460C94FDF717FE23484FF08041CA
:102710000160B321C0E9011440F2CF71C0E9031494
:102720008461FFF755FA08B1FDF7E9FF4FF48050D7
:10273000079007A91848FFF798FA08B1FDF7DFFFDF
:102740001548FFF75CFC08B1FDF7D9FF0B940BA906
:1027500011480C94FFF7F4F908B1FDF7D0FF6020A1
:10276000CDE900040294002269460B480494FFF767
:10277000DEFB08B1FDF7C3FF4FF4C87001900422DF
:1027800069460548FFF7D3FB08B1FDF7B8FF0248DB
:10279000FFF78AFB0EB010BD9803002010B596B06D
:1027A00000240F9410941194129413941C216846E1
:1027B0001494FDF7C1FD202107A8FDF7BDFD2C48AD
:1027C0002A490160B321C0E9011444F61F61C0E940
:1027D000031444618461FFF7FBF908B1FDF78FFF33
:1027E0004FF480500F900FA92148FFF73EFA08B12F
:1027F000FDF785FF1E48FFF702FC08B1FDF77FFFDC
:10280000139413A91A481494FFF79AF908B1FDF725
:1028100076FF6020CDE900040294039404940594AB
:102820000022694612480694FFF781FB08B1FDF7C4
:1028300066FF042269460E48FFF779FB08B1FDF7F1
:102840005EFF0794089409944FF400500A94CDE970
:102850000B4007A906480E94FFF748F908B1FDF7A9
:102860004EFF0348FFF720FB16B010BD00040140E7
:10287000D80300200C4810B50A4901600B4941609B
:10288000002181600C22C160C0E904128161C16134
:10289000FFF768FC002803D0BDE81040FDF72FBF0C
:1028A00010BD00000010014018040020A0860100A7
:1028B0000C4810B50A4901604FF4E1314160002134
:1028C00081600C22C160C0E904128161C161FFF71F
:1028D00049FC002803D0BDE81040FDF710BF10BD33
:1028E00000440040580400200C4810B50A4901601B
:1028F0004FF4E1314160002181600C22C160C0E9E8
:1029000004128161C161FFF72DFC002803D0BDE8EE
:102910001040FDF7F4BE10BD0014014098040020E3
:10292000FEE7704730B4024C446630BC01F08AB90F
:10293000453C0008094C012208490948FFF724FDDD
:10294000207800F0A5FB0A23012206490448FFF77E
:1029500045FD012000F08CFFEDE700008C00002019
:10296000980400208D00002010B5502080F31188BD
:10297000BFF34F8FBFF36F8F02F014F818B1044903
:102980004FF080500860002080F3118810BD0000D7
:1029900004ED00E030B593B030216846FDF7CCFC83
:1029A00014210CA8FDF7C8FC1A480025016841F065
:1029B00080510160006800F0805011901648016855
:1029C00041F4404101600068022400F4404011904D
:1029D00001200090000401908001CDE9064006200E
:1029E0000890B420CDE9090404200B906846FEF756
:1029F000CDFEFEF787FD0CA90F2081E831004FF4D2
:102A0000A0500F90E002109005210CA8FEF7B2FD37
:102A100013B030BD403802400070004005480168E6
:102A200041F47001016003494FF000608039086093
:102A30007047000088ED00E00148FFF782B9000010
:102A400058030020F0B50268254C264D264E274F2E
:102A5000274B4FF0804CA04209D0604507D0A842D8
:102A600005D0B04203D0B84201D0984204D122F040
:102A7000700E4A6842EA0E02A0421BD0604519D08F
:102A8000A84217D0B04215D0B84213D0984211D006
:102A9000184DA8420ED0184DA8420BD0174DA84291
:102AA00008D0174DA84205D0164DA84202D0164DA9
:102AB000A84203D122F44075CA682A434D6922F026
:102AC00080022A4302608A68C2620A688262A04267
:102AD00001D0984201D10969016301214161F0BD32
:102AE000000001400004004000080040000C0040CD
:102AF0000004014000400140004401400048014002
:102B000000180040001C00400020004010B5846800
:102B100042EA032224F47F440A432243826010BD28
:102B2000826822F070020A4342F007018160704718
:102B3000F0B5026A22F001020262036A4268846907
:102B4000124E24F073050C682C4323F002058B68A9
:102B50002B430D4DA84201D0B04205D123F0080708
:102B6000CB683B4323F00403A84201D0B04205D117
:102B70004D6922F4407215438A692A434260846198
:102B8000496841630362F0BD000001400004014058
:102B9000F0B5026A22F010020262026A4368846998
:102BA0000D6824F4E64444EA05248D6822F02002EE
:102BB00042EA05120F4D104EA84201D0B04206D194
:102BC000CF6822F0800242EA071222F04002A842B7
:102BD00001D0B04207D14D6923F4406343EA850335
:102BE0008D6943EA850343608461496881630262B9
:102BF000F0BD00000000014000040140F0B5026A91
:102C000022F480720262026A4368C46922F400728C
:102C100024F073050C68124E2C438D6842EA05229D
:102C20000E4DA84201D0B04206D1CF6822F4006216
:102C300042EA072222F48062A84201D0B04207D1C2
:102C40004D6923F4405343EA05138D6943EA0513A4
:102C50004360C4614968C1630262F0BD0000014085
:102C60000004014030B5026A22F480520262046A14
:102C70004268C3690D6823F4E64343EA05238D687F
:102C800024F4005444EA0534084DA84202D0084D0B
:102C9000A84204D14D6922F4804242EA8512426082
:102CA000C36149680164046230BD00000000014056
:102CB0000004014010B5036A046A24F001040462B0
:102CC000846924F0F00444EA021423F00A020A435F
:102CD0008461026210BD10B5036A23F01003036221
:102CE0008369046A23F4704343EA023224F0A003A8
:102CF00043EA01118261016210BD10B5806B0021B1
:102D0000C185C184FFF7A3F910BD0168CA6822F428
:102D10009072CA6001684A6922F001024A6120216A
:102D200080F83A10704710B590F83A10222901D077
:102D3000022010BD8168B1F5805F11D001690029C2
:102D400001681FD0496801F07F03816A4A1C8262D2
:102D50000B70C18D491E0904090CC18518D02BE0E8
:102D60000269816A002A0268526805D0D2B20A80DC
:102D7000816A491C8162ECE7C2F308020A80816A19
:102D8000891CF7E74A68816A4B1C83620A70E0E796
:102D90000168CA6822F02002CA600168CA6822F489
:102DA0008072CA6001684A6922F001024A612021EA
:102DB00080F83A10FFF711FB002010BD2DE9F0411B
:102DC000044600680169E26821F440511143016141
:102DD0002169A068E26908436169114308432168D9
:102DE000CA6849F20C639A430243CA602068416989
:102DF000A26921F4407111434161E06919276425FA
:102E00003226B0F5004F354A354920684FF00008AA
:102E100006D0884201D0904236D1FEF775FC35E0ED
:102E2000884201D0904202D1FEF76EFC01E0FEF72D
:102E30005BFC61684A18A0FB070148EB0803FDF73B
:102E400031FA0146B0FBF5F00201B1FBF5F06FF08D
:102E50001803584301EB800006EBC000B0FBF5F00F
:102E600000F0F80002EB4002B1FBF5F0584301EB33
:102E7000800006EBC000B0FBF5F000F00700216811
:102E800010448860BDE8F081FEF72EFC61688B0F6E
:102E90008A00A0FB0701FDF705FA0146B0FBF5F03B
:102EA0006FF01802504301EB800006EB0010B0FBFE
:102EB000F5F000F0F002B1FBF5F002EB0012B1FB0F
:102EC000F5F06FF01803584301EB800006EB00109B
:102ED000B0FBF5F000F00F00D1E700000014014056
:102EE0000010014090F83910212901D002207047CC
:102EF0008168B1F5805F016A0BD04A1C02620268EA
:102F000009785160C18C491E0904090CC1840ED096
:102F100017E009880268C1F30801516001690029BE
:102F2000016A02D0491C0162ECE7891CFBE70168D9
:102F3000CA6822F08002CA600068C16841F040019E
:102F4000C160002070472DE9F041984617460E46B3
:102F50000446069D1DE0681C1BD02DB1FEF714FA37
:102F6000A0EB0800A84214D92068C16821F4D071F0
:102F7000C1602068416921F001014161202084F88D
:102F8000390084F83A00002084F838000320BDE8B6
:102F9000F0812068006836EA000004D00020B842C2
:102FA000D9D00020F3E70120F9E7000010B504486C
:102FB00001F0A2F9BDE810400148FFF749B8000050
:102FC000180400200148FFF743B80000580400200F
:102FD0000148FFF73DB8000098040020FEE709070C
:102FE000090E002804DB00F1E02080F8001470478F
:102FF00000F00F0000F1E02080F8141D704702E09F
:1030000008C8121F08C1002AFAD170477047002073
:1030100001E001C1121F002AFBD17047D0ED000A68
:10302000F4EEC00AF1EE10FA01DD80ED000AD0EDF9
:10303000000AB1EE400AF4EEC00AF1EE10FA01D235
:1030400080ED000A7047000038B50F480021006885
:10305000026842680092C26842F01002C2600A4CE4
:103060000A4A94F83A0020280DD13223A262A3859F
:10307000E1632168606B091DFEF76EF82068416905
:1030800041F04001416138BD18040020584700203C
:1030900070B50D4A00F001010023116000F002013B
:1030A0004908516000F00401890891601946012621
:1030B000CC1C06FA04F50540491C03EBD503042992
:1030C000F6DBD36070BD0000C4470020F0B50025DA
:1030D000DFF860C02C460127E61C00EA0C0EBEF1AA
:1030E000010F16D007FA06F635EA060500EBD07098
:1030F0004010641C042CEFDB012911D025F00400E2
:10310000012A10D020F00200012B0FD020F0010086
:10311000F0BD07FA06FE4EEA050E0EF0FF05E5E7E4
:1031200045F00400ECE740F00200EDE740F001005C
:10313000F0BD00000100008000218181017A032997
:1031400004D0012911D0022918D020E04FF40071D9
:103150008181817A012902D0022903D017E040F24F
:10316000012113E04FF4017110E04FF4807181816F
:10317000817A03290BD14FF4817107E04FF480610C
:103180008181817A032902D14FF481618181417A61
:1031900003290FD001291FD0022919D1818921F4D7
:1031A000C05141F400518181C27A032A10D141F00B
:1031B00080010CE0818921F4205141F4805181810A
:1031C000C27A012A05D0022A02D141F04001818150
:1031D000704741F01001FAE7818921F4405141F430
:1031E00000618181C27A032AF2D141F02001EEE729
:1031F00010B5048944810A8852BA02814B885BBAAF
:10320000438003808B885BBA838089798171131B2B
:103210000169B3F5805F01DD491E03E013F5805FAE
:1032200001DA491C016102EB41318289891A41614D
:1032300010BD0189818170472DED028B84B05B4CFC
:10324000DFF8648104F50270002640F2FF194FF4A4
:10325000FA6B0290012256495648FFF795F8544DF3
:103260002878FFF715FF68680228F3D1E86998BB52
:1032700000279FED518A40F6B83A00BFB8F9DC004C
:10328000F0EE480A00EE100A0298B8EEC00A00F00C
:10329000F7FBCDE9006994ED910A00231946BDEED4
:1032A000C00A10EE100A02B2444800F0D9FF012013
:1032B00000F0DEFA7F1C5745E0DB31210023E96195
:1032C0001A466868FFF702FF394968700A2301222D
:1032D000491C3848FFF782F8012235493548FFF785
:1032E00053F82878FFF7D4FE35488068B0B39FEDD7
:1032F000358A0027DA4600BFB8F9DC00F0EE480A4C
:1033000000EE100A0298B8EEC00A00F0B9FBCDE951
:10331000006994ED910A00231946BDEEC00A10EE33
:10332000100A02B2254800F09BFF012000F0A0FA2D
:103330007F1C5745E0DB30210023E9611A466868AD
:10334000FFF7C4FE1A4968700A230122491C194874
:10335000FFF744F8012000F08BFA7BE7FFE79FEDD1
:103360001A8A00254F46DA46B8F9DC00F0EE480A22
:1033700000EE100A0298B8EEC00A00F081FBCDE919
:10338000006794ED910A00231946BDEEC00A10EEC5
:10339000100A02B2094800F063FF012000F068FA49
:1033A0006D1C5545E0DBD5E750460020E842002083
:1033B0008C0000209804002000C0DA45B4000020F2
:1033C000C44700200080BBC50000000070B52DED93
:1033D000048B01F091F8FFF737FE384E9FED388AE5
:1033E0009FED389A00244FF4FA5500BF04EB840097
:1033F00000EBC40006EBC000B0EE481AF0EE490A3C
:10340000B3EE090A2A462B460321FFF78BFA641C08
:10341000042CEBDB40F6B836B0EE481AF0EE480A62
:103420009FED290A0023324603212848FFF77AFA44
:10343000DFED278A4FF4FA64B0EE481AF0EE680A1E
:10344000B2EE040A2346324603212248FFF76AFA05
:103450001E4842F22832B0EE481AF0EE490AB3EEA6
:10346000090A134603216830FFF75CFA1948B0EEE9
:10347000481AF0EE680AB2EE040A23462A460321EF
:103480006830FFF74FFA14480021144D4161016183
:10349000C160816041600C46C0F8001004EB44003C
:1034A00000EBC40005EB80000D49FFF7C2FE641C71
:1034B000062CF3DBBDEC048B70BD0000E84200205D
:1034C00000000000CDCC4C3DCDCC4C3E88440020CB
:1034D0009A99193E58450020844700205046002004
:1034E000B4000020FDF75EFFFFF754FAFFF78AF8FB
:1034F000FEF7D4FFFFF716F8FEF7F2FFFFF7F8F834
:10350000FFF7B8F9FFF7D4F9FFF7EEF9FFF746F93F
:10351000FFF75CFFFFF72CF800F0B1F9FEE701467A
:103520000020842900D0C81C704700002DED028BBC
:1035300082B0794F794EDFF8E8B17A4DDFF8E89143
:103540004FF4806A4FF000085FF0000455F8240043
:1035500000EE100A04EB440000EBC400F8EEC00AD1
:1035600037F9200000EE100A04EB840000EBC400E1
:10357000B8EEC00A06EBC00000F082FA641C042C0E
:10358000E4DB96ED5D0A4FF40071BDEEC00A10EE6B
:10359000100A00B2CDE9000196ED430ABDEEC00A63
:1035A00010EE100A96ED290A03B2BDEEC00A10EE25
:1035B000100A96ED0F0A02B2BDEEC00A10EE100A14
:1035C00001B25A4800F04CFED9F820004C4620B118
:1035D00001280AD002281AD112E051465846FDF7B8
:1035E000C9FEA0B90120206211E051465846FDF7FE
:1035F000C1FE50B902202062606A401C606206E091
:1036000051465846FDF7B6FE08B1C4F82080606AFE
:103610000A2801DDC4F824804548B0F9021000EE04
:10362000101AB8EEC01A9FED430AC1EE000A9FEDD2
:10363000421A60EE818AC4ED028AB0F9001000EEF1
:10364000901AF8EEE00A80EE801A9FED3C0A21EE17
:10365000008A84ED038AB0F918004042FCF7E9FEC5
:103660009FED371B53EC112BFCF771FEFCF7F2FEBC
:1036700000EE100A84ED040A6068042843D005288F
:1036800041D006283FD0F1EE480A606A70EEE80AA1
:10369000401C30EE801A00EE900AF8EEE00A61EE6F
:1036A000200AFDEEE00AC5ED000A78EEC80A30EE09
:1036B000801A00EE900AF8EEE00A61EE200AFDEEB4
:1036C000E00AC5ED010A78EE280A30EE801A00EE15
:1036D000900AF8EEE00A61EE200AFDEEE00AC5ED80
:1036E000020A78EE680A70EE800A00EE100AB8EE60
:1036F000C00A20EE800ABDEEC00A85ED030A012053
:1037000000F0B6F820E7C5F80C80C5F80880C5F8C9
:103710000480C5F80080F2E750460020E84200200F
:10372000000C0240AC4700208C000020B4000020B8
:103730006A4700200000254400004844000048C4B7
:10374000CDCCCCCCCCCC14404FF40076454C4FF4CF
:10375000006A4FF4805B4FF480784FF40059770093
:1037600055465146404800F012FD30B141463E48B2
:1037700000F00DFD08B10120606029463A4800F0D4
:1037800006FD30B13146384800F001FD08B1022095
:1037900060602946344800F0FAFC30B139463248BE
:1037A00000F0F5FC08B103206060454641462E4814
:1037B00000F0EDFC30B159462B4800F0E8FC08B1B0
:1037C000042060603146284800F0E1FC30B15946E1
:1037D000254800F0DCFC08B105206060394622482D
:1037E00000F0D5FC30B159461F4800F0D0FC08B1BC
:1037F0000620606029461C4800F0C9FC30B14946EB
:10380000194800F0C4FC08B1072060604D464946E5
:10381000154800F0BCFC30B13146134800F0B7FC4D
:1038200008B10820606029460F4800F0B0FC30B1B4
:1038300039460D4800F0ABFC08B109206060002358
:103840001A46E1696068FFF741FC064960700A2387
:103850000122491C0548FEF7C1FD012000F008F8CF
:103860007EE700008C0000206A47002098040020BA
:1038700010B500B9012000F031FF002010BD10B5D7
:1038800000F052FF002010BD7FB50D46044641698F
:10389000B0F9080081B1A16971B1FFF740FED4E928
:1038A00005128DE80700D4E900102B46226901F0CB
:1038B0004EF8039004B070BDFFF731FE03A9CDE9C7
:1038C0000001208A2B4682B2D4E9001001F012F8E0
:1038D000012801D00020EDE70398EBE72DE9F74F31
:1038E00000262DED028B84B0DFF87891DFF8788127
:1038F00015460746B2469FED5D8A5D4C40F2FF1BC0
:1039000004F50270039068380290A2E0079804283A
:1039100002D005287DD144E0C5EB453000EBC00066
:1039200081004FF4B47091FBF0F5524800F0CEFCEA
:1039300020B1052229464F4800F0CFFC4D4800F049
:10394000B4FCC9F81400B8F9DC00F0EE480A00EE47
:10395000100A0398B8EEC00A00F092F898ED310A08
:10396000D9ED050A0298B8EEC00AF8EEE00A00F0B8
:1039700087F8B8F9B000D4ED770A00EE100A3E4897
:10398000B8EEC00A00F07CF8CDE900AB94ED910AE6
:10399000BDEEC00A10EE100A02B2374890ED0F0AD1
:1039A0004AE005EB4520C0EBC000BB2190FBF1F0E5
:1039B000C0EB40314FF4B47091FBF0F52D4800F0AE
:1039C00085FC20B1052229462A4800F086FC2948BA
:1039D00000F06BFCC9F81400B8F9B000F0EE480A2A
:1039E00000EE100A0298B8EEC00A00F049F898ED0F
:1039F0003C0AD9ED050A0398B8EEC00AF8EEE00AD1
:103A000000F03EF8B8F9DC00D4ED910A00EE100A9F
:103A100000E01AE01848B8EEC00A683000F030F84C
:103A20001548CDE900AB90ED290ABDEEC00A10EEB5
:103A3000100A94ED770A02B2BDEEC00A002310EE20
:103A4000100A01B20D4800F00BFC0120FFF710FF37
:103A5000761CBE42FFF65AAF04B0BDEC028BBDE847
:103A6000FE8F00008C000020504600200000000067
:103A7000E84200209C47002058450020B400002068
:103A800000B530EEC01A80ED080AC0ED050A80EDE1
:103A90000B1AD0ED141A01469FED692A30EEC00AC8
:103AA000F5EEC01AB1EE400AF1EE10FA0ED0B5EE06
:103AB000C01AF1EE10FA02DDF0EE410A01E0F0EE7C
:103AC000400AF4EEE10AF1EE10FA12DCD1ED150A2B
:103AD000F5EEC00AF1EE10FA0ED0B5EEC01AF1EE16
:103AE00010FA01DDB0EE410AB4EEE00AF1EE10FA90
:103AF00002D2B0EE420A00BD886D01F13402032803
:103B000002D0042838D07AE091ED000A104620EE69
:103B1000010A81ED0C0A91ED0D0AD1ED010A00EECA
:103B2000810A81ED0D0A91ED0A0AD1ED020A31EE0A
:103B3000400A20EE200A81ED0E0A91ED180AB8EE37
:103B4000400AFFF76BFA91ED0C0AD1ED0D0A01F175
:103B50003C0030EE200AD1ED0E0A30EE200A81ED55
:103B60000F0A91ED170AB8EE400AFFF757FA91EDE8
:103B70000F0A81ED100A42E091ED0A0AD1ED001A18
:103B8000104671EE400A60EEA10AC1ED0C0AD1EDBB
:103B9000010A60EE810AC1ED0D0AF0EE000A00EEA6
:103BA000601A91ED090AD1ED020A31EE000A20EE09
:103BB000200A81ED0E0A91ED180AB8EE400AFFF7CF
:103BC0002DFA91ED0C0AD1ED0D0A01F1480030EE0D
:103BD000200AD1ED0E0A30EE200A81ED110AD1ED56
:103BE000130A30EE800A81ED120A91ED170AB8EE41
:103BF000400AFFF713FA91ED120A81ED130A91EDD5
:103C00000A0A81ED090A91ED0B0A81ED0A0A91ED8C
:103C1000070A81ED060A91ED080A81ED070A91ED88
:103C2000040A81ED030A91ED050A81ED040A886D0D
:103C3000032802D091ED120A00BD91ED0F0A00BDDC
:103C40000000000000F1580C8CE80E0080EC030A24
:103C5000704700002DE9F041184C0F460546666993
:103C60002068001D00F076FC38B9206890F82C1010
:103C700001208840A1698143A161681C07D137B147
:103C80002168BDE8F0410E48091D00F0A7BC20687E
:103C90003544B5424560216805D2A068BDE8F041D1
:103CA000091D00F083BC6068091D00F07FFC206BDB
:103CB000854200D22563BDE8F08100002C00002081
:103CC000D40600202DE9F041054600F093FC2E4C6F
:103CD0002069401C206120682C4F10B1E06940B37E
:103CE0002DE025602069012829D1002606EB8600F9
:103CF00007EB800000F04CFC761C072EF6D323481F
:103D00008C3000F045FC2148A03000F041FC1F48F9
:103D1000B43000F03DFC1D48C83000F039FC1B48B1
:103D2000DC3000F035FC19488C3060601430A06045
:103D300005E02068E96AC06A884200D82560E06A28
:103D4000401CE062E96A0120A26988401043A0613A
:103D500001EB810007EB8000291D00F03FFC00F023
:103D600069FCE06900280CD02068E96AC06A8842D2
:103D700007D207494FF080500860BFF34F8FBFF361
:103D80006F8FBDE8F08100002C000020F8050020B6
:103D900004ED00E010B5044690F8510058B1012838
:103DA0000CD002280FD0502080F31188BFF34F8F22
:103DB000BFF36F8FFEE7206B00F050FC2046BDE89C
:103DC000104000F04BBC10BD10484FF4705142073A
:103DD00006D0C01D0D4920F00700411AC1F57051F1
:103DE0000B4A00230144C2E900030839103A21F0CC
:103DF000070111604B600B600B1AC0E90013936060
:103E00004FF000405360D06070470000E80600208B
:103E100078000020144E154CA6F1C8074FF08058CA
:103E2000DFF84C9012E000BF00F0E4FBF068C568DA
:103E3000281D00F08FFB2069401E2061E068401EB5
:103E4000E06000F0F7FB2846FFF7A4FFE0680028D9
:103E5000EAD138680128F9D9C9F80080BFF34F8F3B
:103E6000BFF36F8FF2E70000C00600202C00002097
:103E700004ED00E02DE9F0479A46DDE9098481462A
:103E80006FF00303206B03EB82021044089D20F0C7
:103E90000706700707D0502080F31188BFF34F8FBB
:103EA000BFF36F8FFEE723180A5C83F834200A5CA7
:103EB00012B1401C1028F6D3002784F84370072D58
:103EC00000D30625E562C4E91157201D00F06BFB05
:103ED00004F1180000F067FB2461C5F1070064627B
:103EE000A061E76484F8507052464946304600F0BD
:103EF000BFF82060B8F1000F01D0C8F80040BDE85D
:103F0000F087000030B5114900E011460A6882428E
:103F1000FBD34B685C18844203D140681844486066
:103F2000084643681C18944209D1084C103C246888
:103F3000A24209D052681A4442600A6812680260BC
:103F4000814200D0086030BD0460F9E778000020AD
:103F500006484168096829B14168C968C968496863
:103F6000016370474FF0FF31FAE700002C0000209A
:103F700008484068401C4FF0500080F3118804D07E
:103F8000BFF34F8FBFF36F8FFEE7BFF34F8FBFF3CA
:103F90006F8FFEE7800000202DE9F04105460027E5
:103FA00000F0F8FB314E306808B9FFF70DFFF068FC
:103FB00005424BD1C5B3083568070ED005F00700A0
:103FC000C0F108000544680707D0502080F311882D
:103FD000BFF34F8FBFF36F8FFEE72DB3706885423D
:103FE00034D82248103001460C6801E020460C46C7
:103FF0006168A94202D221680029F7D131688C4258
:1040000024D007682168016060680837411B1029C7
:104010000FD96019420708D0502080F31188BFF3F0
:104020004F8FBFF36F8FFEE710E041606560FFF7D1
:1040300069FF61687068401A7060B268904200D28F
:10404000B060F06801430020C4E9000100F00EFDFB
:10405000780707D0502080F31188BFF34F8FBFF34C
:104060006F8FFEE73846BDE8F08100006800002051
:1040700010B5031F4FF080741C601B1F21F001015D
:104080001960191F044B0B6014390A60091F6FF087
:10409000020244380A6010BD713F000870B5044642
:1040A00008880D46C0F30A03A3F58063238048788F
:1040B0008978C00840EA4110C0F30A02A2F5806284
:1040C0006280A878E978800940EA810029795B1D3F
:1040D00040EA8120C0F30A01A1F58061A18028791E
:1040E0006E79400840EAC610C0F30A00A0F580606F
:1040F0000026E0800A2B00D82680521D0A2A00D80C
:104100006680491D0A2900D8A680401D0A2800D8CB
:10411000E680207AA072607AE07268798009207265
:104120006879C0F301106072B4F900104FF4A56013
:1041300001F52571814211D8B4F9021001F52571FC
:1041400081420BD8B4F9041001F52571814205D8DC
:10415000B4F9061001F52571814203D91A212046D0
:10416000FCF7EAF8E888E081288920826889608283
:10417000287B2075687B6075E889E082288AA0F535
:10418000806020832046BDE87040FEF7D5BF002840
:1041900003D08089814301D00020704701207047FF
:1041A0002DED028B82B0284C42F21076002561681A
:1041B000072932D0092934D0244F9FED258A37F9B9
:1041C000B00FF0EE480A00EE100A2248B8EEC00A1E
:1041D000FFF756FCB7F92C00F0EE480A00EE100A83
:1041E0001C48B8EEC00A6830FFF74AFC40F2FF10E6
:1041F000CDE900501848002390ED910ABDEEC00AA9
:1042000010EE101A90ED770A0AB2BDEEC00A10EE59
:10421000100A01B2114800F023F80120FFF728FB33
:10422000C5E7A06930B1002204213046FFF756FBF4
:10423000A561F2E740F2E24204213046FFF74EFB6F
:104240000120A061E9E700008C000020504600201A
:104250000000000088440020E8420020B400002054
:1042600030B589B0DDE90C4502950025049505952A
:10427000082506950D0A8DF800508DF80110110AD9
:104280008DF80210190A8DF804108DF80530210AF6
:104290008DF806108DF803208DF8074008AB6A46AC
:1042A00002A9FCF73FFA09B030BDD0E90112012A9A
:1042B00004DDC368A2F10102194403E003D10168DF
:1042C0004FF00002826041600846704701460020BE
:1042D0008968002900D101207047436832B18260AB
:1042E0000160C91A91FBF2F1C1607047002282603F
:1042F000C26041607047000038B501680A68D206A4
:1043000024D5CA68D20621D50446086848680090BA
:104310000F4884421AD1606B0068016821F00101E6
:104320000160606B0068406880B2202804D10949B0
:1043300001F11200FFF7B2FE616B3220096848609C
:10434000606B0068016841F00101016038BD000048
:1043500018040020584700202DED028B84B05E4DDC
:10436000DFF8708105F50270DFF870B140F2FF19D7
:1043700000270290012259495948FEF705F85C468A
:104380009BF80000FEF784FE6068042812D006281F
:1043900010D005280ED0002339461A46E761FEF7F3
:1043A00095FE4E4960700A230122491C4C48FEF7D5
:1043B00015F8DFE7E06998BB00269FED4A8A4FF4C5
:1043C0007A6A00BFB8F9DC00F0EE480A00EE100A85
:1043D0000298B8EEC00AFFF753FBCDE9007995EDDE
:1043E000910A00231946BDEEC00A10EE100A02B26F
:1043F0003D48FFF735FF0120FFF73AFA761C564596
:10440000E0DB01210023E1611A466068FEF75EFEF1
:10441000324960700A230122491C3148FDF7DEFF52
:1044200001222E492E48FDF7AFFF2078FEF730FE1F
:104430002E484FF00004806838B39FED2D8A464621
:1044400040F6B83AB6F9DC00F0EE480A00EE100A81
:104450000298B8EEC00AFFF713FBCDE9007995ED9D
:10446000910A00231946BDEEC00A10EE100A02B2EE
:104470001D48FFF7F5FE0120FFF7FAF9641C5445CB
:10448000E0DB0120FFF7F4F974E79FED1A8A4FF49F
:10449000FA6A4E46B8F9DC00F0EE480A00EE100A5F
:1044A0000298B8EEC00AFFF7EBFACDE9007695ED79
:1044B000910A00231946BDEEC00A10EE100A02B29E
:1044C0000948FFF7CDFE0120FFF7D2F9641C5445DF
:1044D000E0DBD6E750460020E84200208C000020B8
:1044E0009804002000C0DA45B4000020C447002032
:1044F0000080BBC50000000070B5134C00250120F2
:1045000065612062C4E9065025606560A560E560CC
:1045100021460E482561FCF769F90C48FCF79CFC24
:1045200002210A48FCF7ECF80E2065616062214622
:104530000748FCF75BF90648FCF78EFCBDE87040C5
:1045400002210348FCF7DCB828460020B400002014
:10455000DC000020D0E9013201699A60D0E9012332
:104560005A604A68824201D182684A600022026130
:104570000868401E0860086870470000034B03602D
:1045800003F154000860802010607047040100208F
:1045900000F108014FF0FF32C0E90112C160016172
:1045A00000210160704700210161704730B50B6840
:1045B0005A1C02D000F1080202E0026904E022461F
:1045C000546825689D42FAD953684B6099608A60A7
:1045D000516008610168491C016030BD42684A6051
:1045E00093688B6093685960916008610168491C09
:1045F00001607047502080F31188BFF34F8FBFF3E5
:104600006F8F0A494868401C486001280CD108484F
:10461000006810F0FF0F07D0502080F31188BFF31F
:104620004F8FBFF36F8FFEE77047000080000020C0
:1046300004ED00E00849486828B1401E486001D1F7
:1046400080F311887047502080F31188BFF34F8F9B
:10465000BFF36F8FFEE700008000002070B50028D8
:1046600027D0144DA0F108046168E868014207D121
:10467000502080F31188BFF34F8FBFF36F8FFEE799
:1046800022683AB1502080F31188BFF34F8FBFF3F7
:104690006F8FFEE78143616000F07CF860686968B5
:1046A000084468602046FFF72DFCBDE8704000F02C
:1046B000DDB970BD680000204FF0E02000210161ED
:1046C000816105494FF47A720968B1FBF2F1491E24
:1046D00041610721016170472800002010B50200E8
:1046E00014D00F48806B38B1502080F31188BFF38D
:1046F0004F8FBFF36F8FFEE700F04CF8002110469C
:10470000FFF7A8FA00F0B2F9002807D105494FF0E9
:1047100080500860BFF34F8FBFF36F8F10BD000054
:104720002C00002004ED00E010B586B000240394B6
:1047300005AA04A903A80494FFF720FFDDE90301FB
:104740000094CDE9011000230EA11048059A00F055
:10475000FEF80F490028486311D0502080F31188DB
:10476000BFF34F8FBFF36F8F4FF0FF30086301200F
:10477000C8614C6106B0BDE8104000F041B806B019
:1047800010BD000049444C4500000000153E0008E3
:104790002C0000200248816B491C81637047000097
:1047A0002C0000201448816B11B101214162704737
:1047B000002141628169B1FA81F1C1F11F0101EB70
:1047C00081020E4951F822306BB101EB820101F1F7
:1047D00008034A6852684A609A4201D152684A60A6
:1047E000D16801607047502080F31188BFF34F8F6C
:1047F000BFF36F8FFEE700002C000020F8050020BB
:104800001CB537480168374A914207D1502080F3E0
:104810001188BFF34F8FBFF36F8FFEE700683149F8
:10482000491E884207D1502080F31188BFF34F8F73
:10483000BFF36F8FFEE72C4908780190FF200870C6
:1048400008788DF800009DF800009DF8002000F029
:10485000F000904207D0502080F31188BFF34F8FB3
:10486000BFF36F8FFEE79DF80000204B00F0500073
:1048700018700720986005E09DF8002052008DF820
:104880000020401E9DF800201206F5D498600328F1
:1048900007D0502080F31188BFF34F8FBFF36F8F85
:1048A000FEE74FF440709860019808700C48203083
:1048B000016841F470010160016841F070410160DC
:1048C000FFF7FAFE00205860FBF79EFC08480168DD
:1048D00041F040410160FBF783FC00201CBD00005B
:1048E00000ED00E071C20F4100E400E08000002014
:1048F00034EF00E02DE9FF5F8346DDE90E8799463E
:1049000016468A469000FFF747FB05001CD054204E
:10491000FFF742FB040014D00020256384F8510007
:10492000CDE90240CDE900874B4632465146584614
:10493000FFF7A0FA2046FFF7C5F9012004B0BDE853
:10494000F09F2846FFF78AFE4FF0FF30F6E7F0B5FC
:1049500085B0DDE90B640A9DA6B1DCB15427009750
:104960002663022684F85160002604AFCDE9024692
:10497000CDE90057FFF77EFA2046FFF7A3F9049828
:1049800005B0F0BD502080F31188BFF34F8FBFF307
:104990006F8FFEE7502080F31188BFF34F8FBFF376
:1049A0006F8FFEE72DE9F0412E4C0027A06B40B140
:1049B000206A401C2062606A00B101273846BDE8C9
:1049C000F0816669761C666113D16068006838B151
:1049D000502080F31188BFF34F8FBFF36F8FFEE736
:1049E0006068A1686160A060A06A401CA062FFF7D7
:1049F000AFFA206BDFF87080864209D360680068E8
:104A000080B16068C068C568686886420DD220635E
:104A10002068C06A00EB800158F821000128CAD93B
:104A20000127C8E74FF0FF30F1E7281DFFF792FD9F
:104A3000A86A18B105F11800FFF78CFDE86A01219A
:104A4000A26981401143A16100EB800108EB810064
:104A5000291DFFF7C3FDE86A2168C96A8842CDD3E2
:104A60000127CBE72C000020F80500202DE9F047B6
:104A70002C4D00242746A86B38B1FFF7BBFDA86B6F
:104A8000401EA863A86B40B146E0502080F3118817
:104A9000BFF34F8FBFF36F8FFEE72969224E0120CE
:104AA000D1B3A6F1B40980463068E8B1F068C468B3
:104AB00004F11800FFF74EFD201DFFF74BFDE06AE3
:104AC000AA6908FA00F11143A96100EB800109EB22
:104AD0008100211DFFF782FDE06A2968C96A8842CA
:104AE000E2D3C5F82480DFE70CB1FFF731FA2C6A76
:104AF00044B14646FFF756FF00B16E62641EF9D11D
:104B000000202862686A38B1084901273807086020
:104B1000BFF34F8FBFF36F8FFFF78CFD3846BDE8B3
:104B2000F08700002C000020AC06002004ED00E01F
:104B3000304C00083529000800000000000000008B
:104B40008000000000000000000000001C4C000875
:104B50002D3500080000000000000000800000006B
:104B60000000000000000000044C0008A141000803
:104B700000000000000000008000000000000000B5
:104B800000000000284C0008594300080000000005
:104B90000000000080000000000000000000000095
:104BA000104C00083932000800000000000000002E
:104BB000800000000000000000000000F84B00082A
:104BC00049370008000000000000000080000000DD
:104BD000000000000000000000061016000610167D
:104BE000000000000000000001020304060708099D
:104BF00000000000010203046D736753656E645486
:104C000061736B007265736375655461736B00004B
:104C1000676976655461736B000000006D6F76659F
:104C20005461736B0000000075705461736B000079
:104C300064656661756C745461736B005C4C00084C
:104C400000000020B4000000FE2F0008104D0008F6
:104C5000B4000020244B00000E30000800000000CB
:104C60000000000000000000000000000000000044
:104C70000000000000000000010000001000000023
:104C8000000000000024F40000000000000000000C
:104C90000000000000000000000000000000000014
:104CA0000000000000000000000000000000000004
:104CB00000000000000000000000000000000000F4
:104CC00000000000000000000000000000000000E4
:104CD00000000000000000000000000000000000D4
:104CE000AAAAAAAA0000000000000000010000001B
:104CF00000000000000000000000000000000000B4
:104D000000000000000000000000000000000000A3
:04000005080001AD41
:00000001FF
