:020000040800F2
:10000000504B00208102000883230008772000085D
:100010008123000849070008112A00080000000099
:10002000000000000000000000000000C101000806
:100030007D070008000000001D0200088D23000855
:100040009B0200089B0200089B0200089B0200081C
:100050009B0200089B0200089B0200089B0200080C
:100060009B0200089B0200089B0200089B020008FC
:100070009B0200089B0200089B0200089B020008EC
:100080009B0200089B0200089B0200085907000819
:100090004D0700089B0200089B0200089B02000815
:1000A0009B0200089B0200089B0200089B020008BC
:1000B0005D2400089B0200089B0200089B020008C8
:1000C0009B0200089B0200089B0200089B0200089C
:1000D0009B020008F92900089B0200089B02000807
:1000E0009B0200089B0200089B0200089B0200087C
:1000F0009B0200089B0200089B0200089B0200086C
:100100009B0200089B020008692400089B0200086B
:100110009B0200089B0200089B0200089B0200084B
:100120009B0200089B0200089B0200089B0200083B
:100130009B0200089B0200089B0200087107000850
:10014000650700089B0200089B0200089B0200084C
:100150009B0200089B0200089B020008052A000879
:100160009B0200089B0200089B0200089B020008FB
:100170009B0200089B0200089B0200080000000090
:100180009B0200089B0200089B0200089B020008DB
:100190009B0200089B0200089B0200089B020008CB
:1001A00000000000000000009B020008DFF80CD0F7
:1001B00000F0B8FA00480047612B0008504B0020BF
:1001C0002C4B19680868B0E8F04F80F30988BFF33A
:1001D0006F8F4FF0000080F311887047000000001F
:1001E00008480068006880F308884FF0000080F33A
:1001F000148862B661B6BFF34F8FBFF36F8F00DF15
:1002000000BF00BF08ED00E0DFF80C00016841F41A
:1002100070010160704700BF88ED00E0EFF30980D6
:10022000BFF36F8F134B1A681EF0100F08BF20ED3D
:10023000108A20E9F04F106009B44FF0500080F3AD
:100240001188BFF34F8FBFF36F8F03F06BFB4FF03D
:10025000000080F3118809BC19680868B0E8F04F05
:100260001EF0100F08BFB0EC108A80F30988BFF3AE
:100270006F8F704724000020EFF305807047000067
:100280000648804706480047FEE7FEE7FEE7FEE730
:10029000FEE7FEE7FEE7FEE7FEE7FEE74124000893
:1002A000AD0100082DE9F05F0546002092469B460F
:1002B00088460646814640241BE02846414647467C
:1002C000224600F0AFF953465A46C01A914110D366
:1002D00011461846224600F096F92D1A67EB0108E0
:1002E0004F4622460120002100F08DF917EB00094E
:1002F0004E41201EA4F10104DFDC484631462A4667
:100300004346BDE8F09F40EA01039B0703D009E0A4
:1003100008C9121F08C0042AFAD203E011F8013BF1
:1003200000F8013B521EF9D27047D2B201E000F84A
:10033000012B491EFBD270470022F6E710B5134689
:100340000A4604461946FFF7F0FF204610BD2DE986
:10035000FE4F804681EA0300C00F0C46009021F05A
:10036000004123F00045B8EB0200A94105D2404608
:10037000214690461C460B46024623F0004010439F
:1003800047D0270DC7F30A00C3F30A510290401A61
:10039000019040286BDAC3F3130040F4801B0098EF
:1003A000924620B10023D2EB030A63EB0B0B0198BA
:1003B0005946C0F14002504600F025F906460D4668
:1003C00050465946019A00F03DF910EB0800614192
:1003D000002487EA115284EAE7731A4340D0009A56
:1003E00062B3019A012A4FEA075215DC001B61EB48
:1003F00002014FF0004202EA0752CDE90042001C20
:1004000041F5801132462B4600F03DF903B0BDE8BE
:10041000F08F40462146F9E7001B61EB0201001C0A
:1004200041F5801300185B412018A2F5001747EB37
:10043000030140EAD570B6196D4111E06D084FEA2D
:10044000360645EAC0754FEA0752001B61EB020110
:10045000001C41F5801149084FEA30000019514154
:1004600032462B4603B0BDE8F04F00F0FDB80098CF
:10047000012240000023D0EB020263EBE0730098FE
:1004800021464FEAE074B8EB000061EB0401E9E7B4
:1004900083F000435BE781F0004158E72DE9FE4F10
:1004A00081EA030404F0004421F0004100944FF07D
:1004B000000B23F0004350EA01045ED052EA03042B
:1004C0005BD0C3F30A54C1F30A552C44A4F2F334AD
:1004D0000194A0FB0254C1F3130141F48011C3F352
:1004E000130343F4801301FB024400FB034E840A10
:1004F000970A44EA815447EA8357A4FB07680295A8
:100500008D0A05FB07854FEA932C04FB0C54270545
:10051000029D4FEA065847EA1637B5EB08056EEB21
:10052000070C870E920E47EA811742EA8312A7FB57
:100530000201B6EB0B0164EB00042B0D43EA0C3314
:100540005E1844EB1C50DA465146E7FB0201C5F346
:1005500013044FEA0B3343EA14534FEA0432019C6D
:1005600043EA0603A4F10C040294009CCDE900B414
:1005700000F089F803B0BDE8F08F00200146F9E7EC
:100580000EB5C10F80EAE0700844CA07002140F2AE
:1005900033438DE80E000A460B4600F074F803B0B2
:1005A00000BD70B5C1F30A5201F000450024C1F34B
:1005B000130140F2FF3341F480119A4201DA002026
:1005C00070BD40F233439A42A2F2334203DC5242FE
:1005D00000F028F800E090402C43F1D0404270BD7C
:1005E00000F0004230F000400AD0C10D01F560710A
:1005F000C0F3160042EA0151C20840071143704798
:10060000002001467047202A04DB203A00FA02F15C
:10061000002070479140C2F1200320FA03F31943F0
:1006200090407047202A04DB203A21FA02F0002192
:10063000704721FA02F3D040C2F1200291400843F2
:1006400019467047202A06DBCB17203A41FA02F000
:1006500043EAE07306E041FA02F3D040C2F120021F
:10066000914008431946704710B5141E73F10004F9
:1006700008DA401C41F1000192185B411A4301D194
:1006800020F0010010BD2DE9F04D92469B4611B1BE
:10069000B1FA81F202E0B0FA80F220329046FFF720
:1006A000B2FF04460F4640EA0A0041EA0B015346F6
:1006B0005A46084313D0114653EA010019D0C8F135
:1006C00040025046FFF7AEFF05460E4650465946DB
:1006D0004246FFF798FF084305D0012004E020467A
:1006E0003946BDE8F08D0020054346EAE0762C430C
:1006F00037430A986305E40AA0EB08000022FD0ACC
:1007000044EA47540A3002D500200146E9E70105D2
:1007100010196941DDE9084500196941BDE8F04D4E
:10072000A2E70000064C074D06E0E06840F0010338
:1007300094E8070098471034AC42F6D3FFF73AFD2F
:10074000683D0008883D0008FEE70000014800F011
:1007500088B90000A8000020014800F082B900001C
:10076000A8000020014800F07CB90000D000002063
:10077000014800F076B90000D000002070477047B3
:1007800090F82020012A07D0022A05D0416A41F4BE
:100790008021416201207047006842690A4342613A
:1007A00000207047F0B590F820500468A468012D2F
:1007B00005D0022D03D0416A41F4802153E014F0AA
:1007C000406F01D1E5004BD5C4F30164022C03D97D
:1007D000416A41F4000146E00125A5401D608D6895
:1007E0004FF4C0739DB1CE6835434E6845EAC605E7
:1007F000066803EB0417F5514FF4C275076805EB63
:1008000004150E697E51097D012905D009E00E8885
:10081000CD6845EA4655EBE701684E5946F48076C7
:100820004E511179D2F805504FF4C67641EA0525AC
:10083000016806EB04168D511178D2F801204FF4AF
:10084000C47541EA0221026805EB041551510068A4
:1008500003EB0411425842F0010242500020F0BD67
:10086000416A41F4001141620120F0BD10B590F8D9
:100870002020012A07D0022A05D0416A41F48021B4
:100880004162012010BD3B48D0F8002242F0010235
:10089000C0F80022D0F8002222F47C52C0F80022D6
:1008A000D0F800224B6A42EA0322C0F800220A7DF7
:1008B00002F01F0301229A40D0F81C329343C0F883
:1008C0001C32CB69B3B9D0F80C329343C0F80C3268
:1008D0008C894B6864F31F434C6900EBC404C4F873
:1008E00040320C890B6864F31F434C6900EBC4046D
:1008F000C4F84432CB69012B16D1D0F80C32134323
:10090000C0F80C320C884B6864F31F434C6900EB51
:10091000C404C4F840320C89CB6864F31F434C69AB
:1009200000EBC404C4F844328B69002BD0F80432C5
:100930000ED01343C0F804320B69002BD0F81432E8
:1009400008D01343C0F81432096A012904D008E022
:100950009343EFE79343F5E7D0F81C121143C0F837
:100960001C12D0F8001221F00101C0F80012002082
:1009700010BD000000640040704730B590F8204082
:10098000012C05D0022C03D0416A41F480215DE0A6
:100990000468002955D02469A40754D04FF4D874B2
:1009A000056804EB01142D5915F0040595600568E0
:1009B0002D594ED0ED08556005682C5904F00204FD
:1009C000D4604FF4DA74056804EB01142D5905F076
:1009D0000F05156105682D59C5F307259561056853
:1009E0002C59240C54614FF4DC72046802EB0112A0
:1009F000A4581C700468A458240A5C700468A458A5
:100A0000240C9C700468A258120EDA704FF4DE7247
:100A1000046802EB0112A4581C710468A458240A4B
:100A20005C710468A458240C9C710468A258120ECE
:100A3000DA71006881B1016941F020010161002093
:100A400030BDE468A8E7416A41F400114162012029
:100A500030BD6D0D1560AFE7C16841F02001C16088
:100A6000EDE72DE9F05F0546006800244669D0F8FF
:100A700004908768D0F80CB0D0F810A0D0F8188097
:100A8000F10748D0F90714D001218160B80703D5D8
:100A9000284600F064FA0CE0780702D54FF40064B1
:100AA00007E0380702D54FF4805402E0284600F0F2
:100AB00055FAF80516D529684FF480708860B80596
:100AC00003D5284600F04DFA0CE0780502D544F431
:100AD000005407E0380502D544F4804402E028467B
:100AE00000F03EFAF80316D529684FF4803088608C
:100AF000B80303D5284600F036FA0CE0780302D597
:100B000044F4004407E0380302D544F4803402E0A2
:100B1000284600F027FA300707D55FEACB6004D5F6
:100B20002968102044F40074C86070074FF008076B
:100B300007D55FEA0B7004D52868C760284600F027
:100B4000A9F9B00706D52868C068800702D02846F2
:100B500000F0A2F9700607D55FEACA6004D52968DB
:100B6000102044F480640861B00607D55FEA0A707B
:100B700004D528680761284600F0C0F9F00606D5BC
:100B800028680069800702D0284600F0B8F9B00351
:100B900008D55FEAC96005D5296810204860284655
:100BA00000F0AEF9F00307D55FEA097004D52868B4
:100BB0004760284600F0D8F9300446D55FEA49700E
:100BC00040D5F00504D55FEAC87001D044F00104B7
:100BD000B00504D55FEA887001D544F002047005C1
:100BE00004D55FEA487001D544F00404300529D5E6
:100BF00018F0700F26D008F07000402815D006DCE1
:100C0000102809D020280AD0302816D10AE0502810
:100C10000ED0602811D10EE044F008040DE044F03D
:100C200010040AE044F0200407E044F0400404E02B
:100C300044F0800401E044F480742868816921F064
:100C400070018161296804204860002C05D0686A21
:100C5000204368622846FFF78FFEBDE8F09F70B51D
:100C6000040003D094F8200010B104E0012070BD0E
:100C7000204600F081F82068016821F0020101603F
:100C800000F07AFA0546052604E000F075FA401BEC
:100C90000A2811D8206840688007F6D420680168C7
:100CA00041F00101016000F067FA05460BE000F039
:100CB00063FA401B0A2806D9606A40F4003060627B
:100CC00084F82060D2E720684068C007EFD0207E1B
:100CD0000128206801683DD021F080010160607E1C
:100CE00001282068016838D021F040010160A07E11
:100CF00001282068016833D021F020010160E07EE6
:100D00000128206801682ED041F010010160207F89
:100D100001282068016829D021F008010160607F66
:100D200001282068016824D021F004010160D4E981
:100D300002010843D4E90412114308436168491EC3
:100D400008432168C86100206062012084F8200007
:100D5000002070BD41F08001C0E741F04001C5E7CF
:100D600041F02001CAE721F01001CFE741F008016E
:100D7000D4E741F00401D9E7F0B587B00446142167
:100D80006846FFF7D9FA3E4B3E48DFF8F0E01968B5
:100D9000D4F800C03B4A032502260927103000245E
:100DA000491CF4452AD11960012907D1016841F095
:100DB00000710160006800F000700590106840F05C
:100DC000080010601068CDE9005600F00800CDE979
:100DD000047069462C48CDE9024500F0D9F800229C
:100DE0000521132000F054FA132000F043FA0022EA
:100DF0000521142000F04CFA14203BE0DFF88CE0D1
:100E0000F44539D1D0F800C04CF0806CC0F800C077
:100E1000D0F800C001290CF0806CCDF814C0196026
:100E200007D1016841F000710160006800F00070B6
:100E30000590106840F002001060106802AB00F0EE
:100E4000020005904FF44050CDE9000683E8B00061
:100E500069460F4800F09CF8002205213F2000F071
:100E600017FA3F2000F006FA00220521402000F08A
:100E70000FFA402000F0FEF907B0F0BD006400401A
:100E80000000002030380240000C024000680040A2
:100E9000000402407047000070B5144D0446A8429B
:100EA00017D113480068A0F58070FF3805D00128DD
:100EB0000FD10F482146403009E00D4941F2F5506D
:100EC0006C3101EB8000A0F5AE4021467C3801F08A
:100ED00011FE0848844203D12146074801F00AFE6A
:100EE0002868416941F00201416170BDA8000020FD
:100EF0003C410020D000002008430020704770478C
:100F00007047000070B5044690F82000012804D016
:100F1000606A40F40020606218E0022084F820003B
:100F20002068016821F00101016000F025F9054603
:100F30000EE000BF00F020F9401B0A2808D9606AC3
:100F400040F400306062052084F82000012070BD6C
:100F500020684068C007EDD1606270BD704770477F
:100F60007047704770477047704790F835100229F6
:100F700003D08021416501207047052180F835109C
:100F80000068016821F00101016000207047000045
:100F90002DE9F84F00224FF0010803254FF00F0E06
:100FA0000B6808FA02F42340A3426ED14E68012E6A
:100FB00005D0022E03D0112E01D0122E12D1866838
:100FC0004FEA420C05FA0CF7BE43CF6807FA0CF75C
:100FD000374387604668A6430C79C4F300149440F5
:100FE00034434460C668570005FA07FC8C6826EA5B
:100FF0000C06BC403443C4604C68022C01D0122C57
:1010000013D1D40800EB8404A346D4F820905407ED
:101010004FEAD46A0EFA0AF629EA06090E6906FAB8
:101020000AF646EA0906CBF8206004680E7924EA3D
:101030000C0406F00306BE40264306604C68E4003C
:101040006FD53B4C266846F480462660246822F023
:10105000030604F480440094364C3444A446D4F887
:1010600008489607360F0EFA06F7BC43324FB842CF
:1010700001D100272EE0314FB84201D1012729E0EC
:101080002F4FB84202D1022724E04AE02D4FB84248
:1010900001D103271EE02C4FB84201D1042719E0EB
:1010A0002A4FB84201D1052714E0294FB84201D197
:1010B00006270FE0274FB84201D107270AE0264F45
:1010C000B84201D1082705E0244FB84201D10927D1
:1010D00000E00A27B7402743CCF80878204E346850
:1010E0004F689C43FF0300D51C4334601C4E361DE3
:1010F00034684F689C43BF0300D51C433460184ECE
:10110000083634684F689C43FF0200D51C433460A6
:10111000134E0C3634684F689C43BF0200D51C4305
:101120003460521C102AFFF43BAFBDE8F88F00007A
:1011300044380240003001400000024000040240F8
:1011400000080240000C024000100240001402405F
:1011500000180240001C024000200240002402400F
:10116000003C01400069084000D0012070470AB1EE
:10117000816170470904FBE70148806870470000FF
:101180001400002002488168027811448160704791
:10119000140000200B4810B5016841F40071016093
:1011A000016841F480610160016841F4807101606F
:1011B000032000F08DF8002000F006F800F03EF863
:1011C000002010BD003C024010B5014688B000224E
:1011D000322000F05DF8322000F04CF81348002473
:1011E000016841F008010160006805A900F00800ED
:1011F0000690684600F050F900F06EF90C49400086
:10120000B0FBF1F10C480B4A491E026040F2E73294
:10121000C0E90324C0E9011400F0A8FB10B10120CB
:1012200008B010BD044800F0D9FBF9E7403802408F
:1012300040420F00000C00404C0300200C4882B0DC
:10124000016841F480410160006800F48040009032
:101250000748001F016841F08051016000680022CA
:1012600000F0805000900F21901E02B000F010B8E6
:1012700044380240002809DB00F01F0201219140A0
:101280004009800000F1E020C0F800117047000024
:10129000F0B40E4B1B680C46C3F30223C3F10705E1
:1012A000042D00D90425191D072901D2002300E0CF
:1012B000DB1E012606FA05F1491E214099409E4099
:1012C000761E16403143F0BC01F0A3BB0CED00E0EC
:1012D000064900F0070208684FF6FF03184040EA8D
:1012E0000220034A10430860704700000CED00E044
:1012F0000000FA052DE9F8431748016841F08051D4
:1013000001600068154F00F08050012600903E6497
:10131000FFF732FF05464FF47A78114C05E000BF25
:10132000FFF72AFF401B40450DD86068C003F7D582
:101330007E64FFF721FF0546464607E0FFF71CFFE6
:10134000401BB04202D90320BDE8F88360688003E7
:10135000F4D50020F8E700004038024000000E42BB
:10136000007000402DE9F0470E46050065D0DFF81B
:101370001481D8F80000F7B200F00F00B04207D295
:1013800088F80070D8F8000000F00F00B04254D187
:1013900028683D4C810712D5400703D5206840F4EA
:1013A000E05020602878000703D5206840F46040B2
:1013B00020602068A96820F0F000084320602878A9
:1013C000C0072DD0304968680839012812D002289A
:1013D00013D0032811D00968890700292DDA216864
:1013E00021F0030101432160FFF7C6FE814641F26F
:1013F000883A0EE009688903EFE709688901ECE79C
:10140000FFF7BAFEA0EB0901514502D90320BDE860
:10141000F0872068696800F00C00B0EB810FEFD115
:10142000D8F80010404601F00F01B14207D907700B
:10143000006800F00F00B04201D00120E7E72878F3
:10144000400705D52068E96820F4E0500843206093
:101450002878000706D52068296920F4604040EA12
:10146000C100206000F058F82168084AC1F3031158
:10147000515CC8400649086006480068FFF7A4FEB2
:101480000020C4E7003C024008380240203D00082C
:1014900020000020180000200F2202600C4A136870
:1014A00003F003034360136803F0F00383601368E1
:1014B00003F4E053C36012684FF4E05303EAD2022E
:1014C00002610448006800F00F00086070470000E7
:1014D00008380240003C0240044805490068096899
:1014E000044AC1F38221515CC840704720000020AB
:1014F00008380240303D0008044805490068096882
:10150000044AC1F34231515CC840704720000020BA
:1015100008380240303D0008154810B5006810F04A
:101520000C02144813D01449042A0FD0082A0ED1F3
:101530000F4C241F2268236802F03F025B0207D58C
:101540002068C0F38810A0FB010106E0084610BD2A
:101550002168C1F38811A1FB00010023FEF7A2FE60
:101560002168C1F30141491C4900B0FBF1F010BDF5
:10157000083802400024F400001BB7002DE9F84FA2
:10158000040076D02078DFF838A3CE4DC00749D0CC
:10159000DAF800105046C1F38101012908D0006833
:1015A000C0F3810002280AD1281D0068400206D538
:1015B0002868800336D560680028E2D032E0606891
:1015C000B0F5803F10D0B0F5A02F286810D020F4DF
:1015D00080302860286820F4802028606068A0B1EE
:1015E000FFF7CAFD06460CE0286840F48030F4E7B7
:1015F00040F480202860F7E7FFF7BEFD801B6428D9
:1016000073D828688003F7D50CE0FFF7B5FD0646D0
:1016100005E000BFFFF7B0FD801B6428F0D8286804
:101620008003F7D42078DFF8A08280074FF000090C
:101630003ED5DAF80010504611F00C0F09D00068C2
:10164000C0F3810002280BD19D48001F00684002B2
:1016500006D42868800715D5E068012809D111E073
:10166000E068B8B10120C8F80000FFF785FD064624
:1016700005E020E1FFF780FD801B0228C0D8286824
:101680008007F7D52868216920F0F80040EAC100FA
:1016900028600DE0C8F80090FFF76EFD064604E0F4
:1016A000FFF76AFD801B02281FD828688007F7D43F
:1016B0002078000722D5824E844861696C3671B16A
:1016C00001210160FFF758FD074604E0FFF754FDD4
:1016D000C01B022809D830688007F7D50EE0C0F893
:1016E0000090FFF749FD074605E082E0FFF744FD63
:1016F000C01B02287DD830688007F7D420784007C7
:1017000068D5DFF8BCB100270BF1380BDBF800001F
:10171000C0000BD4DBF8001041F08051CBF8001072
:10172000DBF80000012700F080500090684E306820
:10173000C00510D4306840F480703060FFF71CFDA5
:10174000009005E0FFF718FD0099401A022850D8D4
:101750003068C005F6D55A4EA068683601280FD00B
:101760000528306810D020F001003060306820F08B
:1017700004003060A068B8B1FFF7FEFC00900FE0F5
:10178000306840F00100F4E740F004003060F7E713
:10179000FFF7F2FC0099411A41F28830814266D885
:1017A00030688007F4D50EE0FFF7E6FC009007E014
:1017B000FFF7E2FC0099411A41F28830814256D885
:1017C00030688007F4D42FB1DBF8001021F080518D
:1017D000CBF80010A069D0B3DAF800205146C2F36C
:1017E0008102022A4AD00228484607D0C8F8600081
:1017F00000E03CE0FFF7C0FC04463BE04746C8F889
:101800006000FFF7B9FC064605E000BFFFF7B4FC37
:10181000801B02282BD828688001F7D4D4E907015F
:101820000843A16A2B4A490802EB0141626A41EA76
:101830008211084394F82C1040EA01612048001FEF
:10184000016001203866FFF797FC044605E034E0AC
:10185000FFF792FC001B022809D828688001F7D501
:101860002BE000BFFFF788FC001B022802D90320F1
:10187000BDE8F88F28688001F4D41EE00128F7D075
:101880000868E26900F48001914214D1226A00F0F4
:101890003F0191420FD147F6C071626A0140914207
:1018A00009D1A26A00F44031914204D1E16A00F00A
:1018B0007060884201D00120DAE70020D8E70000FC
:1018C000083802400038024000004742800E47427C
:1018D000007000400000FFFF7047704770B590F83F
:1018E0003C20012A32D0012480F83C40022280F8BA
:1018F0003D2003685A689D6822F070060A683243EA
:101900005A60134B02689A4214D0B2F1804F11D042
:10191000104B9A420ED0104B9A420BD00F4B9A426A
:1019200008D00F4B9A4205D00E4B9A4202D00E4B74
:101930009A4204D1496825F080031943916080F8E8
:101940003D40002180F83C10084670BD022070BD6B
:10195000000001400004004000080040000C00406E
:1019600000040140004001400018004010B5040090
:1019700003D094F83D0010B107E0012010BD002015
:1019800084F83C00204600F00DF8022084F83D0069
:10199000211D206800F06EFD012084F83D0000202C
:1019A00010BD000008B50068B0F1804F12D10A48A0
:1019B000016841F0010101600068002200F00100AF
:1019C000009005211C20FFF763FCBDE808401C20A7
:1019D000FFF750BC08BD0000403802400168CA68EB
:1019E00042F00102CA600068816801F0070106291F
:1019F00003D0016841F0010101600020704770B51B
:101A0000044690F83C00012817D0012584F83C508A
:101A1000022084F83D002068826822F0770222F4D8
:101A20007F4282600868502830D00DDC20284DD0DD
:101A300005DC98B310283BD148E0022070BD302867
:101A400044D0402834D139E0602828D0702806D00E
:101A5000B0F5805F2CD0B0F5005F29D10AE0CB68EB
:101A6000D1E90121206800F076FD2068816841F00D
:101A7000770109E0CB68D1E90121206800F06BFD16
:101A80002068816841F48041816011E0CA6849683A
:101A9000206800F035FE5021206807E016E0CA6893
:101AA0004968206800F03DFE6021206800F05DFD7F
:101AB00084F83D50002084F83C0070BDCA68496835
:101AC000206800F01DFE40212068EFE722680146F3
:101AD0001046EBE7704770B50446006801694FF0A7
:101AE0000005C943890715D4C168C943890711D4C2
:101AF000E91E016101202077206880698007204667
:101B000002D0FFF7E7FF04E000F0EBF8204600F01A
:101B100005F9257720680169C943490717D4C168C9
:101B2000C943490713D46FF00401016102202077F3
:101B30002068806910F4407F204602D0FFF7CAFF7A
:101B400004E000F0CEF8204600F0E8F825772068A1
:101B50000169C943090716D4C168C943090712D4EA
:101B60006FF008010161042020772068C0698007B8
:101B7000204602D0FFF7AEFF04E000F0B2F82046A6
:101B800000F0CCF8257720680169C943C90617D44D
:101B9000C168C943C90613D46FF010010161082060
:101BA00020772068C06910F4407F204602D0FFF7FC
:101BB00091FF04E000F095F8204600F0AFF825779B
:101BC00020680169C943C90708D1C168C943C90769
:101BD00004D1891E0161204600F0C4F82068016923
:101BE000C943090609D4C168C943090605D46FF081
:101BF000800101612046FFF76FFE20680169C9433B
:101C0000490609D4C168C943490605D46FF04001AB
:101C10000161204600F0B0F820680169C9438906D7
:101C20000BD4C168C943890607D46FF02001016154
:101C30002046BDE87040FFF750BE70BD10B586B0BD
:101C4000044614216846FEF777FB2068B0F1804F08
:101C500015D10C480021026842F0010202600068C0
:101C600000F001000590062000900220CDE901015E
:101C70000120CDE9031069460348FFF789F906B052
:101C800010BD0000303802400000024070B504462C
:101C900090F83C0001280DD0012584F83C5002202A
:101CA00084F83D0042B1042A0AD0082A0CD00C2A3C
:101CB00011D10DE0022070BD206800F05FFC0AE049
:101CC000206800F08BFC06E0206800F0BDFC02E01C
:101CD000206800F0EDFC84F83D50002084F83C00C2
:101CE00070BD704710B5040003D094F83D0010B1EA
:101CF00007E0012010BD002084F83C00204600F0E1
:101D00000CF8022084F83D00211D206800F0B2FB91
:101D1000012084F83D00002010BD7047704700008E
:101D200010B504460068012200F008FC0B49206849
:101D3000884202D00A49884203D1416C41F40041F3
:101D400041642068816801F00701062903D0016819
:101D500041F001010160002010BD000000000140C1
:101D60000004014000680349884201D1FFF70ABA24
:101D700070470000000C00407047704770B5026863
:101D800004461068D168536910F00F0F52D003F069
:101D9000010501F490762E435FD0C20705D0CA0535
:101DA00003D5E26B42F00102E263420705D5DA0790
:101DB00003D0E26B42F00202E263820705D5DA0744
:101DC00003D0E26B42F00402E263020707D501F0A0
:101DD00020022A4303D0E26B42F00802E263E26B86
:101DE000002A33D0800604D5880602D5204600F0AC
:101DF000C0FC20684069E16BC0F38010090700D483
:101E000028B3204600F0A7FC2068416949061AD58E
:101E1000416921F040014161606BA0B11B4901653E
:101E2000606BFFF7A2F8002810D0606B016DBDE871
:101E300070400847830610D58B060ED52046BDE8B6
:101E4000704000F096BC2046FFF797FF70BD20461B
:101E5000FFF793FF0020E06370BD030606D50B0675
:101E600004D52046BDE8704000F062BD4006F3D5C1
:101E70004806F1D5D168204621F04001D1602021EB
:101E800084F8391000F0F6F870BD0000472700080C
:101E900070B5040004D094F83900002510B106E0B4
:101EA000012070BD84F83850204600F023F824202B
:101EB00084F839002068C16821F40051C1602046CF
:101EC00000F0A2FC2068016921F4904101612068C2
:101ED000416921F02A0141612068C16841F4005143
:101EE000C160E563202084F8390084F83A000020BE
:101EF00070BD000070B586B0044614216846FEF738
:101F00001BFA2948274E2568274914380222012345
:101F10000324B5421FD10D6845F010050D60096816
:101F200001F010010591016841F0020101600068B3
:101F3000694600F002000590C0208DE81D000720D2
:101F400004901A48FFF724F8002205212520FFF706
:101F50009FF9252022E0164EB54221D10D6845F0AB
:101F600020050D60096801F020010591016841F02C
:101F7000400101600068694600F0400005904FF4A0
:101F800084408DE81D00082004900A48FFF700F8FF
:101F9000002205214720FFF77BF94720FFF76AF968
:101FA00006B070BD001001404438024000040240F9
:101FB000001401400018024070472DE9F843044620
:101FC00090F839001F4616460D46202850D1B5B16D
:101FD000AEB194F8380001284AD0012084F83800C6
:101FE0004FF00008C4F83C80212084F83900FFF746
:101FF000C3F8A6848146E68484F8388026E0012070
:10200000BDE8F883E08C401EE084A0684B46B0F544
:10201000805F4FF000024FF080012046009703D010
:1020200000F0B7FCE8B90DE000F0B3FCC8B92888AF
:102030002168C0F308004860206908B16D1C05E004
:10204000AD1C03E0216815F8010B4860E08C002806
:10205000D8D14B46002240212046009700F099FC41
:1020600008B10320CCE7202084F839000020C7E71E
:102070000220C5E77047FEE70F4810B50D49016023
:102080000521416000214FF400328160C0E9031254
:10209000520142610176012242768176C176017752
:1020A0004177FEF7DCFD002803D0BDE81040FEF7C5
:1020B00066BB10BD00640040A80000200F4810B5AA
:1020C0000D4901600521416000214FF4003281601B
:1020D000C0E9031252014261017601224276817603
:1020E000C17601774177FEF7BAFD002803D0BDE83D
:1020F0001040FEF744BB10BD00680040D000002037
:1021000010B59CB01C2216496846FEF7FCF8002169
:10211000684600F02FFF134C11491C22E0601C316F
:1021200007A8FEF7F0F8002107A800F023FF0C49EC
:1021300020601C2238310EA8FEF7E5F800210EA819
:1021400000F018FF064960601C22543115A8FEF704
:10215000DAF8002115A800F00DFFA0601CB010BD3A
:10216000B03C00080400002070B586B01421684619
:10217000FEF7E2F836480024016841F040010160B2
:10218000016801F040010591016841F0080101601A
:10219000016801F008010591016841F00101016049
:1021A000016801F001010591016841F01001016031
:1021B000016801F010010591016841F00201016020
:1021C000016801F002010591016841F02001016000
:1021D000016801F020010591016841F08001016072
:1021E000016801F080010591016841F0040101607E
:1021F0000068184E00F004004FF48355059000224B
:1022000029463046FEF7B3FF4FF49060CDE9000455
:10221000694611480294FEF7BBFE01200095CDE906
:102220000104694630460394FEF7B2FE0320CDE96F
:102230000004694609480294FEF7AAFE3F20CDE952
:102240000004694606480294FEF7A2FE06B070BD7F
:102250003038024000100240000C024000140240DE
:102260000008024010B58EB0002407940894099429
:102270000A940B941C2168460C94FEF75DF82348E1
:102280004FF08041016040F28331C0E9011440F217
:10229000E731C0E903148461FFF768FB08B1FEF77A
:1022A0006EFA4FF48050079007A91848FFF7A7FB74
:1022B00008B1FEF764FA1548FFF714FD08B1FEF700
:1022C0005EFA0B940BA911480C94FFF707FB08B1B9
:1022D000FEF755FA6420CDE90040029404226946D5
:1022E0000A480494FFF7D2FC08B1FEF748FA082226
:1022F000694606480194FFF7C9FC08B1FEF73FFAAA
:102300000248FFF79BFC0EB010BD00008C030020BC
:102310000C4810B50A4901604FF4E13141600021D9
:1023200081600C22C160C0E904128161C161FFF7C4
:10233000AFFD002803D0BDE81040FEF720BA10BD65
:1023400000100140CC0300200C4810B50A49016080
:102350004FF4E1314160002181600C22C160C0E98D
:1023600004128161C161FFF793FD002803D0BDE82D
:102370001040FEF704BA10BD001401400C04002008
:10238000FEE77047012000F0E9FDFBE710B55020A3
:1023900080F31188BFF34F8FBFF36F8F01F0C2FB43
:1023A00018B104494FF080500860002080F3118874
:1023B00010BD000004ED00E030B593B03021684658
:1023C000FDF7BAFF14210CA8FDF7B6FF1A48002547
:1023D000016841F080510160006800F08050119068
:1023E0001648016841F4404101600068022400F48D
:1023F0004040119001200090000401908001CDE93F
:10240000064006200890B420CDE9090404200B9072
:102410006846FFF7B3F8FEF76DFF0CA90F2081E8BF
:1024200031004FF4A0500F90E002109005210CA84D
:10243000FEF798FF13B030BD4038024000700040F6
:102440000548016841F47001016003494FF00060E4
:10245000803908607047000088ED00E00148FFF710
:102460003ABB00008C0300200148FFF734BB00009A
:102470004C030020F0B50268254C264D264E274F10
:10248000274B4FF0804CA04209D0604507D0A842AE
:1024900005D0B04203D0B84201D0984204D122F016
:1024A000700E4A6842EA0E02A0421BD0604519D065
:1024B000A84217D0B04215D0B84213D0984211D0DC
:1024C000184DA8420ED0184DA8420BD0174DA84267
:1024D00008D0174DA84205D0164DA84202D0164D7F
:1024E000A84203D122F44075CA682A434D6922F0FC
:1024F00080022A4302608A68C2620A688262A0423D
:1025000001D0984201D10969016301214161F0BD07
:10251000000001400004004000080040000C0040A2
:1025200000040140004001400044014000480140D7
:1025300000180040001C00400020004010B501F0D1
:102540001F030121046A99408C430462016A9A4086
:102550001143016210BD10B5846842EA032224F4DD
:102560007F440A432243826010BD826822F07002D9
:102570000A4342F00701816070470000F0B5026A2B
:1025800022F001020262036A42688469124E24F05A
:1025900073050C682C4323F002058B682B430D4D0B
:1025A000A84201D0B04205D123F00807CB683B43D5
:1025B00023F00403A84201D0B04205D14D6922F4B2
:1025C000407215438A692A434260846149684163C5
:1025D0000362F0BD0000014000040140F0B5026A52
:1025E00022F010020262026A436884690D6824F4D2
:1025F000E64444EA05248D6822F0200242EA0512EE
:102600000F4D104EA84201D0B04206D1CF6822F043
:10261000800242EA071222F04002A84201D0B042F2
:1026200007D14D6923F4406343EA85038D6943EA8A
:10263000850343608461496881630262F0BD0000E4
:102640000000014000040140F0B5026A22F48072EB
:102650000262026A4368C46922F4007224F07305BE
:102660000C68124E2C438D6842EA05220E4DA8429A
:1026700001D0B04206D1CF6822F4006242EA0722BC
:1026800022F48062A84201D0B04207D14D6923F400
:10269000405343EA05138D6943EA05134360C4615F
:1026A0004968C1630262F0BD0000014000040140BE
:1026B00030B5026A22F480520262046A4268C36939
:1026C0000D6823F4E64343EA05238D6824F400549F
:1026D00044EA0534084DA84202D0084DA84204D16E
:1026E0004D6922F4804242EA85124260C361496822
:1026F0000164046230BD000000000140000401409C
:1027000010B5036A046A24F001040462846924F0A9
:10271000F00444EA021423F00A020A4384610262CC
:1027200010BD10B5036A23F0100303628369046AC5
:1027300023F4704343EA023224F0A00343EA011178
:102740008261016210BD10B5806B0021C185C1841A
:10275000FFF713FB10BD0168CA6822F49072CA60CB
:1027600001684A6922F001024A61202180F83A108A
:10277000704710B590F83A10222901D0022010BD00
:102780008168B1F5805F11D00169002901681FD00F
:10279000496801F07F03816A4A1C82620B70C18D17
:1027A000491E0904090CC18518D02BE00269816A11
:1027B000002A0268526805D0D2B20A80816A491C98
:1027C0008162ECE7C2F308020A80816A891CF7E79C
:1027D0004A68816A4B1C83620A70E0E70168CA6834
:1027E00022F02002CA600168CA6822F48072CA60BE
:1027F00001684A6922F001024A61202180F83A10FA
:10280000FFF7DAFB002010BD2DE9F0410446006817
:102810000169E26821F44051114301612169A06816
:10282000E26908436169114308432168CA6849F2B3
:102830000C639A430243CA6020684169A26921F48B
:10284000407111434161E069192764253226B0F5D2
:10285000004F354A354920684FF0000806D08842BD
:1028600001D0904236D1FEF747FE35E0884201D0D4
:10287000904202D1FEF740FE01E0FEF72DFE6168B6
:102880004A18A0FB070148EB0803FDF70BFD0146C2
:10289000B0FBF5F00201B1FBF5F06FF018035843FF
:1028A00001EB800006EBC000B0FBF5F000F0F80093
:1028B00002EB4002B1FBF5F0584301EB800006EB60
:1028C000C000B0FBF5F000F00700216810448860FC
:1028D000BDE8F081FEF700FE61688B0F8A00A0FB67
:1028E0000701FDF7DFFC0146B0FBF5F06FF01802C1
:1028F000504301EB800006EB0010B0FBF5F000F058
:10290000F002B1FBF5F002EB0012B1FBF5F06FF055
:102910001803584301EB800006EB0010B0FBF5F004
:1029200000F00F00D1E7000000140140001001404A
:1029300090F83910212901D0022070478168B1F543
:10294000805F016A0BD04A1C0262026809785160FC
:10295000C18C491E0904090CC1840ED017E00988F6
:102960000268C1F30801516001690029016A02D0BF
:10297000491C0162ECE7891CFBE70168CA6822F088
:102980008002CA600068C16841F04001C160002057
:1029900070472DE9F041984617460E460446069DBD
:1029A0001DE0681C1BD02DB1FEF7E6FBA0EB080074
:1029B000A84214D92068C16821F4D071C160206890
:1029C000416921F001014161202084F8390084F837
:1029D0003A00002084F838000320BDE8F081206828
:1029E000006836EA000004D00020B842D9D00020A8
:1029F000F3E70120F9E700000148FFF7BFB9000045
:102A0000CC0300200148FFF7B9B900000C040020F6
:102A1000FEE70907090E002804DB00F1E02080F83A
:102A20000014704700F00F0000F1E02080F8141D42
:102A3000704702E008C8121F08C1002AFAD1704787
:102A40007047002001E001C1121F002AFBD170472E
:102A5000D0ED000AF4EEC00AF1EE10FA01DD80EDCF
:102A6000000AD0ED000AB1EE400AF4EEC00AF1EE21
:102A700010FA01D280ED000A7047000010B50D4930
:102A8000002201234A61C1E906230A604A608A6084
:102A90000446CA600E200A61C1E908302046FDF7ED
:102AA000E5FE2046FEF72EFA2046BDE81040022142
:102AB000FDF766BE5841002010B50D4904460022BE
:102AC0000120C1E906200A604A608A600E23CA60BC
:102AD000C1E90423C1E908032046FDF7C7FE2046EB
:102AE000FEF710FA2046BDE810400221FDF748BE6F
:102AF0008041002070B50D460446174B174A00214F
:102B00002846FDF73AFF012825D11349238963811F
:102B100008886FF0040540BA20814A8852BA628062
:102B200022808A8852BA12B292FBF5F2A280897989
:102B3000A171C11AB1F5805F02DD2169491E04E06F
:102B400011F5805F216901DA491C216100EB4130F8
:102B5000A189401A606170BD840000203C410020C2
:102B6000FEF718FBFFF728FCFFF7FEFAFFF784FAE1
:102B7000FFF7A4FAFFF776FBFFF7CAFBFFF7E4FBCA
:102B8000FFF7BEFA00F0F1F9FEE7014600208429C4
:102B900000D0C81C704700002DED088B82B04FF0AC
:102BA000000A954F954D964EDFF85892DFF85882FF
:102BB000964800F081FD9548FEF76EF95FF000043D
:102BC00056F8240000EE100A04EB440000EBC400A9
:102BD000F8EEC00A37F9200000EE100A04EBC4003A
:102BE00000EB4000B8EEC00A05EB800000F0ECF905
:102BF000641C042CE4DB95ED600A4FF40071BCEE1C
:102C0000C00A10EE100A80B2CDE9000195ED450A28
:102C1000BCEEC00A10EE100A95ED2A0A83B2BCEE93
:102C2000C00A10EE100A95ED0F0A82B2BCEEC00A7F
:102C300010EE100A81B2754800F016FDD9F80400B4
:102C40004C4620B101280BD002281DD114E04FF4CE
:102C500080616F48FEF786FAB0B90120606013E02A
:102C60004FF480616A48FEF77DFA58B9022060602F
:102C7000A068401CA06007E04FF480616448FEF744
:102C800071FA08B1C4F804A0A0680A2801DDC4F8EC
:102C900008A0B8F9020000EE100AF8EEC00A9FED95
:102CA0005D0A80EE801ADFED5C0A61EE209AC4EDC9
:102CB000039AB8F9000000EE900AB8EEE01AC1EEEF
:102CC000000A9FED560A20EE809A84ED049A20783F
:102CD00034287DD035287BD0A068401CFDF750FCFF
:102CE00039EEC90A834641EC180B10EE100A019127
:102CF000FDF776FC41EC1B0BB8F91800FDF740FC22
:102D000004469FED47AB009153EC1A2BFDF7C6FB31
:102D100053EC1B2BFDF7BCFB53EC182BFDF7BEFB54
:102D2000FDF73FFCB1EE490A306030EE690A0199C7
:102D300041EC1BBB10EE100AFDF752FC41EC180BE6
:102D4000009953EC1A2B41EC104B51EC100BFDF792
:102D5000A5FB53EC182BFDF79BFB53EC1B2BFDF74E
:102D60009DFBFDF71EFC706039EE290A019941ECCC
:102D700018BB10EE100AFDF733FC41EC1B0B009959
:102D800053EC1A2B41EC104B51EC100BFDF786FB6A
:102D900053EC1B2BFDF77CFB53EC182BFDF77EFB54
:102DA000FDF7FFFBB06039EE690A019941EC18BBF1
:102DB00010EE100AFDF714FC41EC190B009953ECCE
:102DC0001A2B41EC104B51EC100BFDF767FB00E0A8
:102DD0000EE053EC192BFDF75BFB53EC182BFDF7C2
:102DE0005DFBFDF7DEFBF0600A2000F0B7F8DFE6E0
:102DF0000A2000F0B3F8F7E7A84100203443002090
:102E00002C4700209400002012470020A80000203A
:102E1000000C02400000254400004844000048C463
:102E2000CDCCCCCCCCCC14C04FF40076474CDFF8E2
:102E300020814FF4006B4FF480794FF4005A7700F3
:102E40005D465946434800F0C5FB30B1494641480C
:102E500000F0C0FB08B13120207029463D4800F049
:102E6000B9FB30B131463B4800F0B4FB08B1322029
:102E700020702946374800F0ADFB30B1394635485F
:102E800000F0A8FB08B1332020704D464946314878
:102E900000F0A0FB38B14FF480512E4800F09AFBAF
:102EA00008B13420207031462A4800F093FB38B135
:102EB0004FF48051274800F08DFB08B13520207079
:102EC0003946244800F086FB38B14FF48051214840
:102ED00000F080FB08B13620207029461D4800F024
:102EE00079FB30B151461B4800F074FB08B1372024
:102EF000207055465146174800F06CFB30B1314602
:102F0000144800F067FB08B13820207029461148AA
:102F100000F060FB30B139460E4800F05BFB08B1B1
:102F200039202070612188F80010622188F806108D
:102F3000217888F805103223072205490648FFF753
:102F40003CF80A2000F00AF87AE70000940000201C
:102F50008C000020124700200C04002010B500B99E
:102F6000012000F07BFC002010BD10B500F09CFC9F
:102F7000002010BD7FB50D4604464169B0F9080038
:102F800081B1A16971B1FFF700FED4E905128DE8A6
:102F90000700D4E900102B46226900F098FD039049
:102FA00004B070BDFFF7F1FD03A9CDE90001208A4F
:102FB0002B4682B2D4E9001000F05CFD012801D05C
:102FC0000020EDE70398EBE700B530EEC01A80ED86
:102FD000080AC0ED050A80ED0B1AD0ED141A01465F
:102FE0009FED692A30EEC00AF5EEC01AB1EE400A34
:102FF000F1EE10FA0ED0B5EEC01AF1EE10FA02DDC5
:10300000F0EE410A01E0F0EE400AF4EEE10AF1EEE2
:1030100010FA12DCD1ED150AF5EEC00AF1EE10FA45
:103020000ED0B5EEC01AF1EE10FA01DDB0EE410A95
:10303000B4EEE00AF1EE10FA02D2B0EE420A00BDA0
:10304000886D01F13402032802D0042838D07AE0D8
:1030500091ED000A104620EE010A81ED0C0A91ED77
:103060000D0AD1ED010A00EE810A81ED0D0A91ED04
:103070000A0AD1ED020A31EE400A20EE200A81ED63
:103080000E0A91ED180AB8EE400AFFF7E1FC91ED47
:103090000C0AD1ED0D0A01F13C0030EE200AD1ED11
:1030A0000E0A30EE200A81ED0F0A91ED170AB8EEF4
:1030B000400AFFF7CDFC91ED0F0A81ED100A42E0C6
:1030C00091ED0A0AD1ED001A104671EE400A60EE49
:1030D000A10AC1ED0C0AD1ED010A60EE810AC1ED31
:1030E0000D0AF0EE000A00EE601A91ED090AD1ED2A
:1030F000020A31EE000A20EE200A81ED0E0A91ED5F
:10310000180AB8EE400AFFF7A3FC91ED0C0AD1EDC6
:103110000D0A01F1480030EE200AD1ED0E0A30EE22
:10312000200A81ED110AD1ED130A30EE800A81EDFB
:10313000120A91ED170AB8EE400AFFF789FC91EDEB
:10314000120A81ED130A91ED0A0A81ED090A91ED47
:103150000B0A81ED0A0A91ED070A81ED060A91ED4D
:10316000080A81ED070A91ED040A81ED030A91ED49
:10317000050A81ED040A886D032802D091ED120A38
:1031800000BD91ED0F0A00BD000000002DE9F041E7
:10319000184C0F46054666692068001D00F09AFA33
:1031A00038B9206890F82C1001208840A16981432B
:1031B000A161681C07D137B12168BDE8F0410E4814
:1031C000091D00F0CBBA20683544B542456021683E
:1031D00005D2A068BDE8F041091D00F0A7BA6068FB
:1031E000091D00F0A3FA206B854200D22563BDE8DB
:1031F000F081000024000020280500202DE9F04186
:10320000054600F0B7FA2E4C2069401C206120686A
:103210002C4F10B1E06940B32DE0256020690128F2
:1032200029D1002606EB860007EB800000F070FA3B
:10323000761C072EF6D323488C3000F069FA21481B
:10324000A03000F065FA1F48B43000F061FA1D4864
:10325000C83000F05DFA1B48DC3000F059FA19481C
:103260008C3060601430A06005E02068E96AC06AB4
:10327000884200D82560E06A401CE062E96A0120CB
:10328000A26988401043A06101EB810007EB800038
:10329000291D00F063FA00F08DFAE06900280CD0D7
:1032A0002068E96AC06A884207D207494FF0805017
:1032B0000860BFF34F8FBFF36F8FBDE8F081000050
:1032C000240000204C04002004ED00E010B504466A
:1032D00090F8510058B101280CD002280FD050208E
:1032E00080F31188BFF34F8FBFF36F8FFEE7206B22
:1032F00000F074FA2046BDE8104000F06FBA10BD2F
:1033000010484FF47051420706D0C01D0D4920F0FF
:103310000700411AC1F570510B4A00230144C2E96C
:1033200000030839103A21F0070111604B600B606F
:103330000B1AC0E9001393604FF000405360D06057
:10334000704700003C05002070000020144E154C12
:10335000A6F1C8074FF08058DFF84C9012E000BF8C
:1033600000F008FAF068C568281D00F0B3F920697C
:10337000401E2061E068401EE06000F01BFA284615
:10338000FFF7A4FFE0680028EAD138680128F9D9DE
:10339000C9F80080BFF34F8FBFF36F8FF2E70000D3
:1033A000140500202400002004ED00E02DE9F04782
:1033B0009A46DDE9098481466FF00303206B03EB35
:1033C00082021044089D20F00706700707D05020A5
:1033D00080F31188BFF34F8FBFF36F8FFEE7231881
:1033E0000A5C83F834200A5C12B1401C1028F6D322
:1033F000002784F84370072D00D30625E562C4E951
:103400001157201D00F08FF904F1180000F08BF91E
:103410002461C5F107006462A061E76484F850701C
:1034200052464946304600F0BFF82060B8F1000F20
:1034300001D0C8F80040BDE8F087000030B5114960
:1034400000E011460A688242FBD34B685C18844254
:1034500003D1406818444860084643681C189442E9
:1034600009D1084C103C2468A24209D052681A4481
:1034700042600A6812680260814200D0086030BD74
:103480000460F9E77000002006484168096829B126
:103490004168C968C9684968016370474FF0FF31E6
:1034A000FAE700002400002008484068401C4FF064
:1034B000500080F3118804D0BFF34F8FBFF36F8F9C
:1034C000FEE7BFF34F8FBFF36F8FFEE7780000205A
:1034D0002DE9F0410546002700F01CFA314E306816
:1034E00008B9FFF70DFFF06805424BD1C5B30835A9
:1034F00068070ED005F00700C0F108000544680712
:1035000007D0502080F31188BFF34F8FBFF36F8F28
:10351000FEE72DB37068854234D82248103001464A
:103520000C6801E020460C466168A94202D221687D
:103530000029F7D131688C4224D0076821680160E6
:1035400060680837411B10290FD96019420708D05D
:10355000502080F31188BFF34F8FBFF36F8FFEE7CA
:1035600010E041606560FFF769FF61687068401AAC
:103570007060B268904200D2B060F06801430020F1
:10358000C4E9000100F032FB780707D0502080F337
:103590001188BFF34F8FBFF36F8FFEE73846BDE84A
:1035A000F08100006000002010B5031F4FF0807410
:1035B0001C601B1F21F001011960191F044B0B60D7
:1035C00014390A60091F6FF0020244380A6010BD06
:1035D000A9340008002803D08089814301D000204D
:1035E00070470120704700001C4F1D4D1D4C4FF4CB
:1035F00048762878372811D038280FD039280DD0B0
:1036000004211848FEF78CFB08211648FEF788FBBA
:103610002168C82088632168C863EAE70221384628
:10362000FDF7A0FD28B101213846FDF79BFD0028DC
:10363000DFD104210B48FEF773FB206886632878EE
:103640003928D6D14FF47A70FFF788FC0821054855
:10365000FEF766FB2068C663CBE70000001402405B
:10366000940000208C03002070B588B00025DDE9AF
:103670000C460095CDE9015604950595082506955B
:103680000D0A8DF800508DF80110110A8DF8021006
:10369000190A8DF804108DF80530210A8DF80610EE
:1036A0008DF803208DF8074001236A4602A9FDF733
:1036B00079F808B070BD000010B50448FFF7DEF9D6
:1036C000BDE810400248FFF7F7B90000A80000204D
:1036D000D0000020D0E9013201699A60D0E90123CD
:1036E0005A604A68824201D182684A6000220261BF
:1036F0000868401E0860086870470000034B0360BC
:1037000003F154000860802010607047F80000202A
:1037100000F108014FF0FF32C0E90112C160016100
:1037200000210160704700210161704730B50B68CE
:103730005A1C02D000F1080202E0026904E02246AD
:10374000546825689D42FAD953684B6099608A6035
:10375000516008610168491C016030BD42684A60DF
:1037600093688B6093685960916008610168491C97
:1037700001607047502080F31188BFF34F8FBFF373
:103780006F8F0A494868401C486001280CD10848DE
:10379000006810F0FF0F07D0502080F31188BFF3AE
:1037A0004F8FBFF36F8FFEE7704700007800002057
:1037B00004ED00E00849486828B1401E486001D186
:1037C00080F311887047502080F31188BFF34F8F2A
:1037D000BFF36F8FFEE700007800002070B500286F
:1037E00027D0144DA0F108046168E868014207D1B0
:1037F000502080F31188BFF34F8FBFF36F8FFEE728
:1038000022683AB1502080F31188BFF34F8FBFF385
:103810006F8FFEE78143616000F07CF86068696843
:10382000084468602046FFF709FEBDE8704000F0DC
:10383000DDB970BD600000204FF0E0200021016183
:10384000816105494FF47A720968B1FBF2F1491EB2
:1038500041610721016170472000002010B502007E
:1038600014D00F48806B38B1502080F31188BFF31B
:103870004F8FBFF36F8FFEE700F04CF8002110462A
:10388000FFF784FC00F0B2F9002807D105494FF09A
:1038900080500860BFF34F8FBFF36F8F10BD0000E3
:1038A0002400002004ED00E010B586B0002403944D
:1038B00005AA04A903A80494FFF720FFDDE903018A
:1038C0000094CDE9011000230EA11048059A00F0E4
:1038D000FEF80F490028486311D0502080F311886A
:1038E000BFF34F8FBFF36F8F4FF0FF30086301209E
:1038F000C8614C6106B0BDE8104000F041B806B0A8
:1039000010BD000049444C45000000004D33000844
:10391000240000200248816B491C8163704700002D
:10392000240000201448816B11B1012141627047CD
:10393000002141628169B1FA81F1C1F11F0101EBFE
:1039400081020E4951F822306BB101EB820101F185
:1039500008034A6852684A609A4201D152684A6034
:10396000D16801607047502080F31188BFF34F8FFA
:10397000BFF36F8FFEE70000240000204C040020FE
:103980001CB537480168374A914207D1502080F36F
:103990001188BFF34F8FBFF36F8FFEE70068314987
:1039A000491E884207D1502080F31188BFF34F8F02
:1039B000BFF36F8FFEE72C4908780190FF20087055
:1039C00008788DF800009DF800009DF8002000F0B8
:1039D000F000904207D0502080F31188BFF34F8F42
:1039E000BFF36F8FFEE79DF80000204B00F0500002
:1039F00018700720986005E09DF8002052008DF8AF
:103A00000020401E9DF800201206F5D4986003287F
:103A100007D0502080F31188BFF34F8FBFF36F8F13
:103A2000FEE74FF440709860019808700C48203011
:103A3000016841F470010160016841F0704101606A
:103A4000FFF7FAFE00205860FCF7DEFB084801682B
:103A500041F040410160FCF7C3FB00201CBD0000A9
:103A600000ED00E071C20F4100E400E078000020AA
:103A700034EF00E02DE9FF5F8346DDE90E879946CC
:103A800016468A469000FFF723FD05001CD05420FF
:103A9000FFF71EFD040014D00020256384F85100B8
:103AA000CDE90240CDE900874B46324651465846A3
:103AB000FFF77CFC2046FFF7A1FB012004B0BDE826
:103AC000F09F2846FFF78AFE4FF0FF30F6E7F0B58B
:103AD00085B0DDE90B640A9DA6B1DCB154270097DF
:103AE0002663022684F85160002604AFCDE9024621
:103AF000CDE90057FFF75AFC2046FFF77FFB0498FB
:103B000005B0F0BD502080F31188BFF34F8FBFF395
:103B10006F8FFEE7502080F31188BFF34F8FBFF304
:103B20006F8FFEE72DE9F0412E4C0027A06B40B1CE
:103B3000206A401C2062606A00B101273846BDE857
:103B4000F0816669761C666113D16068006838B1DF
:103B5000502080F31188BFF34F8FBFF36F8FFEE7C4
:103B60006068A1686160A060A06A401CA062FFF765
:103B70008BFC206BDFF87080864209D36068006898
:103B800080B16068C068C568686886420DD22063ED
:103B90002068C06A00EB800158F821000128CAD9CA
:103BA0000127C8E74FF0FF30F1E7281DFFF792FD2E
:103BB000A86A18B105F11800FFF78CFDE86A012129
:103BC000A26981401143A16100EB800108EB8100F3
:103BD000291DFFF7C3FDE86A2168C96A8842CDD371
:103BE0000127CBE7240000204C0400202DE9F047FA
:103BF0002C4D00242746A86B38B1FFF7BBFDA86BFE
:103C0000401EA863A86B40B146E0502080F31188A5
:103C1000BFF34F8FBFF36F8FFEE72969224E01205C
:103C2000D1B3A6F1B40980463068E8B1F068C46841
:103C300004F11800FFF74EFD201DFFF74BFDE06A71
:103C4000AA6908FA00F11143A96100EB800109EBB0
:103C50008100211DFFF782FDE06A2968C96A884258
:103C6000E2D3C5F82480DFE70CB1FFF70DFC2C6A26
:103C700044B14646FFF756FF00B16E62641EF9D1AB
:103C800000202862686A38B10849012738070860AF
:103C9000BFF34F8FBFF36F8FFFF78CFD3846BDE842
:103CA000F0870000240000200005002004ED00E063
:103CB0005C3D0008852300080000000000000000B3
:103CC000800000000000000000000000503D0008DF
:103CD000992B000800000000000000008000000098
:103CE0000000000000000000383D0008292E0008F8
:103CF0000000000000000000800000000000000044
:103D000000000000443D0008E93500080000000004
:103D10000000000080000000000000000000000023
:103D2000000000000000000001020304060708096B
:103D300000000000010203046D616753656E645466
:103D400061736B007265736375655461736B00001A
:103D50006D6F76655461736B000000006465666189
:103D6000756C745461736B00883D0008000000207E
:103D7000A8000000322A0008303E0008A8000020F9
:103D8000A84A0000422A00080000000000000000CD
:103D90000000000000000000000000000100000022
:103DA00010000000000000000024F40000000000EB
:103DB0000000000000000000000000000000000003
:103DC00000000000000000000000000000000000F3
:103DD00000000000000000000000000000000000E3
:103DE00000000000000000000000000000000000D3
:103DF00000000000000000000000000000000000C3
:103E000000000000AAAAAAAA00000000000000000A
:103E10000000000000000000000000003130000041
:103E20000000000000000000000000000000000092
:04000005080001AD41
:00000001FF
